{
  "_format": "hh-sol-artifact-1",
  "contractName": "LockBox",
  "sourceName": "contracts/LockBox.sol",
  "abi": [
    {
      "anonymous": false,
      "inputs": [
        {
          "indexed": true,
          "internalType": "address",
          "name": "previousOwner",
          "type": "address"
        },
        {
          "indexed": true,
          "internalType": "address",
          "name": "newOwner",
          "type": "address"
        }
      ],
      "name": "OwnershipTransferred",
      "type": "event"
    },
    {
      "inputs": [
        {
          "internalType": "uint256",
          "name": "_id",
          "type": "uint256"
        }
      ],
      "name": "approveAsset",
      "outputs": [],
      "stateMutability": "nonpayable",
      "type": "function"
    },
    {
      "inputs": [],
      "name": "boxFee",
      "outputs": [
        {
          "internalType": "uint256",
          "name": "",
          "type": "uint256"
        }
      ],
      "stateMutability": "view",
      "type": "function"
    },
    {
      "inputs": [
        {
          "internalType": "uint256",
          "name": "_id",
          "type": "uint256"
        }
      ],
      "name": "cancelLockBox",
      "outputs": [],
      "stateMutability": "nonpayable",
      "type": "function"
    },
    {
      "inputs": [
        {
          "internalType": "uint256",
          "name": "_id",
          "type": "uint256"
        }
      ],
      "name": "claimAsset",
      "outputs": [],
      "stateMutability": "nonpayable",
      "type": "function"
    },
    {
      "inputs": [],
      "name": "counter",
      "outputs": [
        {
          "internalType": "uint256",
          "name": "",
          "type": "uint256"
        }
      ],
      "stateMutability": "view",
      "type": "function"
    },
    {
      "inputs": [
        {
          "internalType": "enum LockBox.AssetType",
          "name": "_assetAtype",
          "type": "uint8"
        },
        {
          "internalType": "address",
          "name": "_assetAaddress",
          "type": "address"
        },
        {
          "internalType": "uint256",
          "name": "_assetAID",
          "type": "uint256"
        },
        {
          "internalType": "uint256",
          "name": "_assetAQuantity",
          "type": "uint256"
        },
        {
          "internalType": "enum LockBox.AssetType",
          "name": "_assetBtype",
          "type": "uint8"
        },
        {
          "internalType": "address",
          "name": "_assetBaddress",
          "type": "address"
        },
        {
          "internalType": "uint256",
          "name": "_assetBID",
          "type": "uint256"
        },
        {
          "internalType": "uint256",
          "name": "_assetBQuantity",
          "type": "uint256"
        },
        {
          "internalType": "uint256",
          "name": "_expiryTime",
          "type": "uint256"
        }
      ],
      "name": "createLockBox",
      "outputs": [],
      "stateMutability": "payable",
      "type": "function"
    },
    {
      "inputs": [
        {
          "internalType": "uint256",
          "name": "_id",
          "type": "uint256"
        }
      ],
      "name": "lockAsset",
      "outputs": [],
      "stateMutability": "payable",
      "type": "function"
    },
    {
      "inputs": [
        {
          "internalType": "uint256",
          "name": "",
          "type": "uint256"
        }
      ],
      "name": "lockBoxInfo",
      "outputs": [
        {
          "internalType": "address",
          "name": "lockBoxOwner",
          "type": "address"
        },
        {
          "internalType": "uint256",
          "name": "expiryTime",
          "type": "uint256"
        },
        {
          "internalType": "enum LockBox.Status",
          "name": "status",
          "type": "uint8"
        },
        {
          "components": [
            {
              "internalType": "enum LockBox.AssetType",
              "name": "assetType",
              "type": "uint8"
            },
            {
              "internalType": "address",
              "name": "owner",
              "type": "address"
            },
            {
              "internalType": "address",
              "name": "assetAddress",
              "type": "address"
            },
            {
              "internalType": "uint256",
              "name": "assetID",
              "type": "uint256"
            },
            {
              "internalType": "uint256",
              "name": "assetQuantity",
              "type": "uint256"
            },
            {
              "internalType": "enum LockBox.LockStatus",
              "name": "lockStatus",
              "type": "uint8"
            },
            {
              "internalType": "enum LockBox.ApprovalStatus",
              "name": "approvalStatus",
              "type": "uint8"
            },
            {
              "internalType": "enum LockBox.ClaimStatus",
              "name": "claimStatus",
              "type": "uint8"
            },
            {
              "internalType": "address",
              "name": "claimedBy",
              "type": "address"
            }
          ],
          "internalType": "struct LockBox.Asset",
          "name": "assetA",
          "type": "tuple"
        },
        {
          "components": [
            {
              "internalType": "enum LockBox.AssetType",
              "name": "assetType",
              "type": "uint8"
            },
            {
              "internalType": "address",
              "name": "owner",
              "type": "address"
            },
            {
              "internalType": "address",
              "name": "assetAddress",
              "type": "address"
            },
            {
              "internalType": "uint256",
              "name": "assetID",
              "type": "uint256"
            },
            {
              "internalType": "uint256",
              "name": "assetQuantity",
              "type": "uint256"
            },
            {
              "internalType": "enum LockBox.LockStatus",
              "name": "lockStatus",
              "type": "uint8"
            },
            {
              "internalType": "enum LockBox.ApprovalStatus",
              "name": "approvalStatus",
              "type": "uint8"
            },
            {
              "internalType": "enum LockBox.ClaimStatus",
              "name": "claimStatus",
              "type": "uint8"
            },
            {
              "internalType": "address",
              "name": "claimedBy",
              "type": "address"
            }
          ],
          "internalType": "struct LockBox.Asset",
          "name": "assetB",
          "type": "tuple"
        }
      ],
      "stateMutability": "view",
      "type": "function"
    },
    {
      "inputs": [
        {
          "internalType": "address",
          "name": "",
          "type": "address"
        },
        {
          "internalType": "address",
          "name": "",
          "type": "address"
        },
        {
          "internalType": "uint256[]",
          "name": "",
          "type": "uint256[]"
        },
        {
          "internalType": "uint256[]",
          "name": "",
          "type": "uint256[]"
        },
        {
          "internalType": "bytes",
          "name": "",
          "type": "bytes"
        }
      ],
      "name": "onERC1155BatchReceived",
      "outputs": [
        {
          "internalType": "bytes4",
          "name": "",
          "type": "bytes4"
        }
      ],
      "stateMutability": "nonpayable",
      "type": "function"
    },
    {
      "inputs": [
        {
          "internalType": "address",
          "name": "",
          "type": "address"
        },
        {
          "internalType": "address",
          "name": "",
          "type": "address"
        },
        {
          "internalType": "uint256",
          "name": "",
          "type": "uint256"
        },
        {
          "internalType": "uint256",
          "name": "",
          "type": "uint256"
        },
        {
          "internalType": "bytes",
          "name": "",
          "type": "bytes"
        }
      ],
      "name": "onERC1155Received",
      "outputs": [
        {
          "internalType": "bytes4",
          "name": "",
          "type": "bytes4"
        }
      ],
      "stateMutability": "nonpayable",
      "type": "function"
    },
    {
      "inputs": [
        {
          "internalType": "address",
          "name": "",
          "type": "address"
        },
        {
          "internalType": "address",
          "name": "",
          "type": "address"
        },
        {
          "internalType": "uint256",
          "name": "",
          "type": "uint256"
        },
        {
          "internalType": "bytes",
          "name": "",
          "type": "bytes"
        }
      ],
      "name": "onERC721Received",
      "outputs": [
        {
          "internalType": "bytes4",
          "name": "",
          "type": "bytes4"
        }
      ],
      "stateMutability": "nonpayable",
      "type": "function"
    },
    {
      "inputs": [],
      "name": "owner",
      "outputs": [
        {
          "internalType": "address",
          "name": "",
          "type": "address"
        }
      ],
      "stateMutability": "view",
      "type": "function"
    },
    {
      "inputs": [],
      "name": "renounceOwnership",
      "outputs": [],
      "stateMutability": "nonpayable",
      "type": "function"
    },
    {
      "inputs": [
        {
          "internalType": "bytes4",
          "name": "interfaceId",
          "type": "bytes4"
        }
      ],
      "name": "supportsInterface",
      "outputs": [
        {
          "internalType": "bool",
          "name": "",
          "type": "bool"
        }
      ],
      "stateMutability": "view",
      "type": "function"
    },
    {
      "inputs": [
        {
          "internalType": "address",
          "name": "newOwner",
          "type": "address"
        }
      ],
      "name": "transferOwnership",
      "outputs": [],
      "stateMutability": "nonpayable",
      "type": "function"
    },
    {
      "inputs": [
        {
          "internalType": "uint256",
          "name": "_fee",
          "type": "uint256"
        }
      ],
      "name": "updateBoxFee",
      "outputs": [],
      "stateMutability": "nonpayable",
      "type": "function"
    },
    {
      "inputs": [],
      "name": "withdrawFunds",
      "outputs": [],
      "stateMutability": "nonpayable",
      "type": "function"
    }
  ],
  "bytecode": "0x608060405267016345785d8a00006002553480156200001d57600080fd5b5062000029336200002f565b6200007f565b600080546001600160a01b038381166001600160a01b0319831681178455604051919092169283917f8be0079c531659141344cd1fd0a4f28419497f9722a3daafe3b4186f6b6457e09190a35050565b613ecf806200008f6000396000f3fe6080604052600436106100fe5760003560e01c80638a88cbbe11610095578063d3f29c3311610064578063d3f29c331461029c578063e18ec218146102bc578063f1c5797d146102dc578063f23a6e611461030d578063f2fde38b1461033957600080fd5b80638a88cbbe146102155780638da5cb5b14610228578063bc197c8114610250578063d3c2a5921461027c57600080fd5b806324600fc3116100d157806324600fc3146101b557806361bc221a146101ca578063715018a6146101e0578063864d7e14146101f557600080fd5b806301ffc9a7146101035780630a1053fb14610138578063150b7a021461015c5780631629614e146101a0575b600080fd5b34801561010f57600080fd5b5061012361011e366004613afc565b610359565b60405190151581526020015b60405180910390f35b34801561014457600080fd5b5061014e60025481565b60405190815260200161012f565b34801561016857600080fd5b50610187610177366004613a13565b630a85bd0160e11b949350505050565b6040516001600160e01b0319909116815260200161012f565b6101b36101ae366004613ba8565b610390565b005b3480156101c157600080fd5b506101b3610eb2565b3480156101d657600080fd5b5061014e60015481565b3480156101ec57600080fd5b506101b3610f59565b34801561020157600080fd5b506101b3610210366004613ba8565b610f8f565b6101b3610223366004613b24565b61176f565b34801561023457600080fd5b506000546040516001600160a01b03909116815260200161012f565b34801561025c57600080fd5b5061018761026b36600461396d565b63bc197c8160e01b95945050505050565b34801561028857600080fd5b506101b3610297366004613ba8565b611d0d565b3480156102a857600080fd5b506101b36102b7366004613ba8565b612ddc565b3480156102c857600080fd5b506101b36102d7366004613ba8565b61334a565b3480156102e857600080fd5b506102fc6102f7366004613ba8565b6133c9565b60405161012f959493929190613ce3565b34801561031957600080fd5b50610187610328366004613a79565b63f23a6e6160e01b95945050505050565b34801561034557600080fd5b506101b361035436600461394c565b613748565b60006001600160e01b03198216630271189760e51b148061038a57506301ffc9a760e01b6001600160e01b03198316145b92915050565b8060008082815260036020526040902060029081015460ff16908111156103c757634e487b7160e01b600052602160045260246000fd5b146103ed5760405162461bcd60e51b81526004016103e490613d36565b60405180910390fd5b600081815260036020526040902060010154421061041d5760405162461bcd60e51b81526004016103e490613dc7565b6000828152600360209081526040808320815160a08101835281546001600160a01b03168152600182015493810193909352600280820154919284019160ff169081111561047b57634e487b7160e01b600052602160045260246000fd5b600281111561049a57634e487b7160e01b600052602160045260246000fd5b8152604080516101208101909152600383810180546020909401939091839160ff16908111156104da57634e487b7160e01b600052602160045260246000fd5b60038111156104f957634e487b7160e01b600052602160045260246000fd5b815281546001600160a01b036101009091048116602083015260018084015490911660408301526002830154606083015260038301546080830152600483015460a09092019160ff169081111561056057634e487b7160e01b600052602160045260246000fd5b600181111561057f57634e487b7160e01b600052602160045260246000fd5b81526020016004820160019054906101000a900460ff1660018111156105b557634e487b7160e01b600052602160045260246000fd5b60018111156105d457634e487b7160e01b600052602160045260246000fd5b81526020016004820160029054906101000a900460ff16600181111561060a57634e487b7160e01b600052602160045260246000fd5b600181111561062957634e487b7160e01b600052602160045260246000fd5b815260049190910154630100000090046001600160a01b03166020918201529082526040805161012081019091526008840180549390920192909190829060ff16600381111561068957634e487b7160e01b600052602160045260246000fd5b60038111156106a857634e487b7160e01b600052602160045260246000fd5b815281546001600160a01b036101009091048116602083015260018084015490911660408301526002830154606083015260038301546080830152600483015460a09092019160ff169081111561070f57634e487b7160e01b600052602160045260246000fd5b600181111561072e57634e487b7160e01b600052602160045260246000fd5b81526020016004820160019054906101000a900460ff16600181111561076457634e487b7160e01b600052602160045260246000fd5b600181111561078357634e487b7160e01b600052602160045260246000fd5b81526020016004820160029054906101000a900460ff1660018111156107b957634e487b7160e01b600052602160045260246000fd5b60018111156107d857634e487b7160e01b600052602160045260246000fd5b81526020016004820160039054906101000a90046001600160a01b03166001600160a01b03166001600160a01b0316815250508152505090508060600151602001516001600160a01b0316336001600160a01b03161415610b67576000816060015160a00151600181111561085d57634e487b7160e01b600052602160045260246000fd5b146108a45760405162461bcd60e51b8152602060048201526017602482015276105cdcd95d081a5cc8185b1c9958591e481b1bd8dad959604a1b60448201526064016103e4565b600060608201515160038111156108cb57634e487b7160e01b600052602160045260246000fd5b141561096a578060600151604001516001600160a01b03166323b872dd33308460600151606001516040518463ffffffff1660e01b815260040161091193929190613c87565b600060405180830381600087803b15801561092b57600080fd5b505af115801561093f573d6000803e3d6000fd5b505050600084815260036020526040902060070180546001925060ff191682805b0217905550505050565b6003606082015151600381111561099157634e487b7160e01b600052602160045260246000fd5b14156109da578060600151604001516001600160a01b031663f242432a333084606001516060015160016040518563ffffffff1660e01b81526004016109119493929190613cab565b60016060820151516003811115610a0157634e487b7160e01b600052602160045260246000fd5b1415610abb57606081015160408082015160809092015190516323b872dd60e01b81526001600160a01b03909216916323b872dd91610a469133913091600401613c87565b602060405180830381600087803b158015610a6057600080fd5b505af1158015610a74573d6000803e3d6000fd5b505050506040513d601f19601f82011682018060405250810190610a989190613adc565b50600083815260036020526040902060070180546001919060ff19168280610960565b60026060820151516003811115610ae257634e487b7160e01b600052602160045260246000fd5b1415610b6257806060015160800151341015610b405760405162461bcd60e51b815260206004820152601a60248201527f496e73756666696369656e74206c6f636b696e672066756e647300000000000060448201526064016103e4565b600083815260036020526040902060070180546001919060ff19168280610960565b505050565b6000816080015160a001516001811115610b9157634e487b7160e01b600052602160045260246000fd5b14610bd85760405162461bcd60e51b8152602060048201526017602482015276105cdcd95d081a5cc8185b1c9958591e481b1bd8dad959604a1b60448201526064016103e4565b60008381526003602052604081206008018054610100600160a81b03191633610100021790556080820151516003811115610c2357634e487b7160e01b600052602160045260246000fd5b1415610cbb57608081015160408082015160609092015190516323b872dd60e01b81526001600160a01b03909216916323b872dd91610c689133913091600401613c87565b600060405180830381600087803b158015610c8257600080fd5b505af1158015610c96573d6000803e3d6000fd5b5050506000848152600360205260409020600c0180546001925060ff19168280610960565b60036080820151516003811115610ce257634e487b7160e01b600052602160045260246000fd5b1415610d2a5760808101516040808201516060909201519051637921219560e11b81526001600160a01b039092169163f242432a91610c689133913091600190600401613cab565b60016080820151516003811115610d5157634e487b7160e01b600052602160045260246000fd5b1415610e0c578060800151604001516001600160a01b03166323b872dd33308460800151608001516040518463ffffffff1660e01b8152600401610d9793929190613c87565b602060405180830381600087803b158015610db157600080fd5b505af1158015610dc5573d6000803e3d6000fd5b505050506040513d601f19601f82011682018060405250810190610de99190613adc565b506000838152600360205260409020600c0180546001919060ff19168280610960565b60026080820151516003811115610e3357634e487b7160e01b600052602160045260246000fd5b1415610b6257806080015160800151341015610e915760405162461bcd60e51b815260206004820152601a60248201527f496e73756666696369656e74206c6f636b696e672066756e647300000000000060448201526064016103e4565b6000838152600360205260409020600c01805460ff19166001179055505050565b6000546001600160a01b03163314610edc5760405162461bcd60e51b81526004016103e490613d92565b4780610f1c5760405162461bcd60e51b815260206004820152600f60248201526e42616c616e6365206973207a65726f60881b60448201526064016103e4565b600080546040516001600160a01b039091169183156108fc02918491818181858888f19350505050158015610f55573d6000803e3d6000fd5b5050565b6000546001600160a01b03163314610f835760405162461bcd60e51b81526004016103e490613d92565b610f8d60006137e3565b565b60008181526003602081905260409091200154819061010090046001600160a01b0316336001600160a01b03161480610fef575060008181526003602052604090206008015461010090046001600160a01b0316336001600160a01b0316145b61100b5760405162461bcd60e51b81526004016103e490613d6d565b8160008082815260036020526040902060029081015460ff169081111561104257634e487b7160e01b600052602160045260246000fd5b1461105f5760405162461bcd60e51b81526004016103e490613d36565b600081815260036020526040902060010154421061108f5760405162461bcd60e51b81526004016103e490613dc7565b6000838152600360209081526040808320815160a08101835281546001600160a01b03168152600182015493810193909352600280820154919284019160ff16908111156110ed57634e487b7160e01b600052602160045260246000fd5b600281111561110c57634e487b7160e01b600052602160045260246000fd5b8152604080516101208101909152600383810180546020909401939091839160ff169081111561114c57634e487b7160e01b600052602160045260246000fd5b600381111561116b57634e487b7160e01b600052602160045260246000fd5b815281546001600160a01b036101009091048116602083015260018084015490911660408301526002830154606083015260038301546080830152600483015460a09092019160ff16908111156111d257634e487b7160e01b600052602160045260246000fd5b60018111156111f157634e487b7160e01b600052602160045260246000fd5b81526020016004820160019054906101000a900460ff16600181111561122757634e487b7160e01b600052602160045260246000fd5b600181111561124657634e487b7160e01b600052602160045260246000fd5b81526020016004820160029054906101000a900460ff16600181111561127c57634e487b7160e01b600052602160045260246000fd5b600181111561129b57634e487b7160e01b600052602160045260246000fd5b815260049190910154630100000090046001600160a01b03166020918201529082526040805161012081019091526008840180549390920192909190829060ff1660038111156112fb57634e487b7160e01b600052602160045260246000fd5b600381111561131a57634e487b7160e01b600052602160045260246000fd5b815281546001600160a01b036101009091048116602083015260018084015490911660408301526002830154606083015260038301546080830152600483015460a09092019160ff169081111561138157634e487b7160e01b600052602160045260246000fd5b60018111156113a057634e487b7160e01b600052602160045260246000fd5b81526020016004820160019054906101000a900460ff1660018111156113d657634e487b7160e01b600052602160045260246000fd5b60018111156113f557634e487b7160e01b600052602160045260246000fd5b81526020016004820160029054906101000a900460ff16600181111561142b57634e487b7160e01b600052602160045260246000fd5b600181111561144a57634e487b7160e01b600052602160045260246000fd5b81526020016004820160039054906101000a90046001600160a01b03166001600160a01b03166001600160a01b0316815250508152505090508060600151602001516001600160a01b0316336001600160a01b031614156115f5576001816060015160a0015160018111156114cf57634e487b7160e01b600052602160045260246000fd5b146115125760405162461bcd60e51b8152602060048201526013602482015272105cdcd95d081a59081b9bdd081b1bd8dad959606a1b60448201526064016103e4565b6000816060015160c00151600181111561153c57634e487b7160e01b600052602160045260246000fd5b146115855760405162461bcd60e51b8152602060048201526019602482015278105cdcd95d081a5cc8185b1c9958591e48185c1c1c9bdd9959603a1b60448201526064016103e4565b6000848152600360205260409020600701805461ff001916610100179055608081015160c00151600190818111156115cd57634e487b7160e01b600052602160045260246000fd5b14156115f0576000848152600360205260409020600201805460ff191660011790555b611769565b8060800151602001516001600160a01b0316336001600160a01b03161415611769576001816080015160a00151600181111561164157634e487b7160e01b600052602160045260246000fd5b146116845760405162461bcd60e51b8152602060048201526013602482015272105cdcd95d081a59081b9bdd081b1bd8dad959606a1b60448201526064016103e4565b6000816080015160c0015160018111156116ae57634e487b7160e01b600052602160045260246000fd5b146116f75760405162461bcd60e51b8152602060048201526019602482015278105cdcd95d081a5cc8185b1c9958591e48185c1c1c9bdd9959603a1b60448201526064016103e4565b6000848152600360205260409020600c01805461ff001916610100179055606081015160c001516001908181111561173f57634e487b7160e01b600052602160045260246000fd5b141561176957600084815260036020526040902060020180546001919060ff191682805b02179055505b50505050565b6002543410156117b65760405162461bcd60e51b8152602060048201526012602482015271506c6561736520706179207468652066656560701b60448201526064016103e4565b6000811180156117c95750620151808111155b61183b5760405162461bcd60e51b815260206004820152603960248201527f4578706972792074696d652073686f756c64206265206d6f7265207468616e2060448201527f6e6f7720616e64206c657373207468616e206f6e65206461790000000000000060648201526084016103e4565b6001805490600061184b83613e3c565b919050555060006040518061012001604052808b600381111561187e57634e487b7160e01b600052602160045260246000fd5b81523360208201526001600160a01b038b166040820152606081018a90526080810189905260a00160008152602001600081526020016000815260200160006001600160a01b0316815250905060006040518061012001604052808860038111156118f957634e487b7160e01b600052602160045260246000fd5b815260200160006001600160a01b03168152602001876001600160a01b031681526020018681526020018581526020016000600181111561194a57634e487b7160e01b600052602160045260246000fd5b81526020016000815260200160008152600060209182018190526040805160a08101909152338152929350919081016119838642613e24565b8152602001600081526020808201869052604091820185905260018054600090815260038352839020845181546001600160a01b0319166001600160a01b0390911617815591840151828201559183015160028083018054959650869593949293909260ff19909116918490811115611a0c57634e487b7160e01b600052602160045260246000fd5b02179055506060820151805160038084018054909291839160ff1916906001908490811115611a4b57634e487b7160e01b600052602160045260246000fd5b021790555060208201518154610100600160a81b0319166101006001600160a01b03928316021782556040830151600180840180546001600160a01b0319169290931691909117909155606083015160028301556080830151600383015560a08301516004830180549192909160ff1916908381811115611adc57634e487b7160e01b600052602160045260246000fd5b021790555060c082015160048201805461ff001916610100836001811115611b1457634e487b7160e01b600052602160045260246000fd5b021790555060e082015160048201805462ff0000191662010000836001811115611b4e57634e487b7160e01b600052602160045260246000fd5b02179055506101009190910151600490910180546001600160a01b039092166301000000026301000000600160b81b031990921691909117905560808201518051600883018054909190829060ff19166001836003811115611bc057634e487b7160e01b600052602160045260246000fd5b021790555060208201518154610100600160a81b0319166101006001600160a01b03928316021782556040830151600180840180546001600160a01b0319169290931691909117909155606083015160028301556080830151600383015560a08301516004830180549192909160ff1916908381811115611c5157634e487b7160e01b600052602160045260246000fd5b021790555060c082015160048201805461ff001916610100836001811115611c8957634e487b7160e01b600052602160045260246000fd5b021790555060e082015160048201805462ff0000191662010000836001811115611cc357634e487b7160e01b600052602160045260246000fd5b02179055506101009190910151600490910180546001600160a01b039092166301000000026301000000600160b81b03199092169190911790555050505050505050505050505050565b60008181526003602081905260409091200154819061010090046001600160a01b0316336001600160a01b03161480611d6d575060008181526003602052604090206008015461010090046001600160a01b0316336001600160a01b0316145b611d895760405162461bcd60e51b81526004016103e490613d6d565b6000828152600360205260409020600101544210611dc05760008281526003602052604090206002908101805460ff191690911790555b6000828152600360209081526040808320815160a08101835281546001600160a01b03168152600182015493810193909352600280820154919284019160ff1690811115611e1e57634e487b7160e01b600052602160045260246000fd5b6002811115611e3d57634e487b7160e01b600052602160045260246000fd5b8152604080516101208101909152600383810180546020909401939091839160ff1690811115611e7d57634e487b7160e01b600052602160045260246000fd5b6003811115611e9c57634e487b7160e01b600052602160045260246000fd5b815281546001600160a01b036101009091048116602083015260018084015490911660408301526002830154606083015260038301546080830152600483015460a09092019160ff1690811115611f0357634e487b7160e01b600052602160045260246000fd5b6001811115611f2257634e487b7160e01b600052602160045260246000fd5b81526020016004820160019054906101000a900460ff166001811115611f5857634e487b7160e01b600052602160045260246000fd5b6001811115611f7757634e487b7160e01b600052602160045260246000fd5b81526020016004820160029054906101000a900460ff166001811115611fad57634e487b7160e01b600052602160045260246000fd5b6001811115611fcc57634e487b7160e01b600052602160045260246000fd5b815260049190910154630100000090046001600160a01b03166020918201529082526040805161012081019091526008840180549390920192909190829060ff16600381111561202c57634e487b7160e01b600052602160045260246000fd5b600381111561204b57634e487b7160e01b600052602160045260246000fd5b815281546001600160a01b036101009091048116602083015260018084015490911660408301526002830154606083015260038301546080830152600483015460a09092019160ff16908111156120b257634e487b7160e01b600052602160045260246000fd5b60018111156120d157634e487b7160e01b600052602160045260246000fd5b81526020016004820160019054906101000a900460ff16600181111561210757634e487b7160e01b600052602160045260246000fd5b600181111561212657634e487b7160e01b600052602160045260246000fd5b81526020016004820160029054906101000a900460ff16600181111561215c57634e487b7160e01b600052602160045260246000fd5b600181111561217b57634e487b7160e01b600052602160045260246000fd5b815260049190910154630100000090046001600160a01b031660209091015290525090506000816040015160028111156121c557634e487b7160e01b600052602160045260246000fd5b14156122065760405162461bcd60e51b815260206004820152601060248201526f4e6f7468696e6720746f20636c61696d60801b60448201526064016103e4565b8060600151602001516001600160a01b0316336001600160a01b031614156128845760018160400151600281111561224e57634e487b7160e01b600052602160045260246000fd5b14156124cd5760008381526003602081905260408220600c01805462010000600160b81b0319163363010000000262ff000019161762010000179055608083015151908111156122ae57634e487b7160e01b600052602160045260246000fd5b141561232a57608081015160408082015160609092015190516323b872dd60e01b81526001600160a01b03909216916323b872dd916122f39130913391600401613c87565b600060405180830381600087803b15801561230d57600080fd5b505af1158015612321573d6000803e3d6000fd5b50505050505050565b6003608082015151600381111561235157634e487b7160e01b600052602160045260246000fd5b14156123995760808101516040808201516060909201519051637921219560e11b81526001600160a01b039092169163f242432a916122f39130913391600190600401613cab565b600160808201515160038111156123c057634e487b7160e01b600052602160045260246000fd5b1415612457576080808201516040808201519190920151915163a9059cbb60e01b815233600482015260248101929092526001600160a01b03169063a9059cbb906044015b602060405180830381600087803b15801561241f57600080fd5b505af1158015612433573d6000803e3d6000fd5b505050506040513d601f19601f820116820180604052508101906117699190613adc565b6002608082015151600381111561247e57634e487b7160e01b600052602160045260246000fd5b1415610b62578060600151602001516001600160a01b03166108fc8260800151608001519081150290604051600060405180830381858888f19350505050158015611769573d6000803e3d6000fd5b6002816040015160028111156124f357634e487b7160e01b600052602160045260246000fd5b14156127e9576001816060015160a00151600181111561252357634e487b7160e01b600052602160045260246000fd5b146125685760405162461bcd60e51b8152602060048201526015602482015274105cdcd95d0810481a5cc81b9bdd081b1bd8dad959605a1b60448201526064016103e4565b6000816060015160e00151600181111561259257634e487b7160e01b600052602160045260246000fd5b146125df5760405162461bcd60e51b815260206004820152601a60248201527f4173736574204120697320616c726561647920636c61696d656400000000000060448201526064016103e4565b60008381526003602081905260408220600701805462010000600160b81b0319163363010000000262ff0000191617620100001790556060830151519081111561263957634e487b7160e01b600052602160045260246000fd5b141561267f578060600151604001516001600160a01b03166323b872dd30338460600151606001516040518463ffffffff1660e01b81526004016122f393929190613c87565b600360608201515160038111156126a657634e487b7160e01b600052602160045260246000fd5b14156126ef578060600151604001516001600160a01b031663f242432a303384606001516060015160016040518563ffffffff1660e01b81526004016122f39493929190613cab565b6001606082015151600381111561271657634e487b7160e01b600052602160045260246000fd5b1415612776576060810151604080820151608090920151905163a9059cbb60e01b815233600482015260248101919091526001600160a01b039091169063a9059cbb90604401602060405180830381600087803b15801561241f57600080fd5b6002606082015151600381111561279d57634e487b7160e01b600052602160045260246000fd5b1415610b6257606081015160208101516080909101516040516001600160a01b039092169181156108fc0291906000818181858888f19350505050158015611769573d6000803e3d6000fd5b60008160400151600281111561280f57634e487b7160e01b600052602160045260246000fd5b1415610b62576001816060015160a00151600181111561283f57634e487b7160e01b600052602160045260246000fd5b14610b625760405162461bcd60e51b8152602060048201526015602482015274105cdcd95d0810481a5cc81b9bdd081b1bd8dad959605a1b60448201526064016103e4565b8060800151602001516001600160a01b0316336001600160a01b03161415610b62576001816040015160028111156128cc57634e487b7160e01b600052602160045260246000fd5b1415612aca5760008381526003602081905260408220600701805462010000600160b81b0319163363010000000262ff0000191617620100001790556060830151519081111561292c57634e487b7160e01b600052602160045260246000fd5b1415612972578060600151604001516001600160a01b03166323b872dd30338460600151606001516040518463ffffffff1660e01b81526004016122f393929190613c87565b6003606082015151600381111561299957634e487b7160e01b600052602160045260246000fd5b14156129e2578060600151604001516001600160a01b031663f242432a303384606001516060015160016040518563ffffffff1660e01b81526004016122f39493929190613cab565b60016060820151516003811115612a0957634e487b7160e01b600052602160045260246000fd5b1415612a54576060810151604080820151608090920151905163a9059cbb60e01b815233600482015260248101919091526001600160a01b039091169063a9059cbb90604401612405565b60026060820151516003811115612a7b57634e487b7160e01b600052602160045260246000fd5b1415610b62578060800151602001516001600160a01b03166108fc8260600151608001519081150290604051600060405180830381858888f19350505050158015611769573d6000803e3d6000fd5b600281604001516002811115612af057634e487b7160e01b600052602160045260246000fd5b1415610b62576000816080015160e001516001811115612b2057634e487b7160e01b600052602160045260246000fd5b14612b6d5760405162461bcd60e51b815260206004820152601a60248201527f4173736574204220697320616c726561647920636c61696d656400000000000060448201526064016103e4565b6001816080015160a001516001811115612b9757634e487b7160e01b600052602160045260246000fd5b14612bdc5760405162461bcd60e51b8152602060048201526015602482015274105cdcd95d0810881a5cc81b9bdd081b1bd8dad959605a1b60448201526064016103e4565b60008381526003602081905260408220600c0180546301000000330262010000600160b81b0319909116176201000017905560808301515190811115612c3257634e487b7160e01b600052602160045260246000fd5b1415612c7757608081015160408082015160609092015190516323b872dd60e01b81526001600160a01b03909216916323b872dd916122f39130913391600401613c87565b60036080820151516003811115612c9e57634e487b7160e01b600052602160045260246000fd5b1415612ce65760808101516040808201516060909201519051637921219560e11b81526001600160a01b039092169163f242432a916122f39130913391600190600401613cab565b60016080820151516003811115612d0d57634e487b7160e01b600052602160045260246000fd5b1415612d6b576080808201516040808201519190920151915163a9059cbb60e01b815233600482015260248101929092526001600160a01b03169063a9059cbb90604401602060405180830381600087803b15801561241f57600080fd5b60026080820151516003811115612d9257634e487b7160e01b600052602160045260246000fd5b1415610b625760808082015160208101519101516040516001600160a01b039092169181156108fc0291906000818181858888f19350505050158015611769573d6000803e3d6000fd5b60008181526003602052604090205481906001600160a01b0316336001600160a01b031614612e1d5760405162461bcd60e51b81526004016103e490613d6d565b8160008082815260036020526040902060029081015460ff1690811115612e5457634e487b7160e01b600052602160045260246000fd5b14612e715760405162461bcd60e51b81526004016103e490613d36565b6000818152600360205260409020600101544210612ea15760405162461bcd60e51b81526004016103e490613dc7565b6000838152600360209081526040808320815160a08101835281546001600160a01b03168152600182015493810193909352600280820154919284019160ff1690811115612eff57634e487b7160e01b600052602160045260246000fd5b6002811115612f1e57634e487b7160e01b600052602160045260246000fd5b8152604080516101208101909152600383810180546020909401939091839160ff1690811115612f5e57634e487b7160e01b600052602160045260246000fd5b6003811115612f7d57634e487b7160e01b600052602160045260246000fd5b815281546001600160a01b036101009091048116602083015260018084015490911660408301526002830154606083015260038301546080830152600483015460a09092019160ff1690811115612fe457634e487b7160e01b600052602160045260246000fd5b600181111561300357634e487b7160e01b600052602160045260246000fd5b81526020016004820160019054906101000a900460ff16600181111561303957634e487b7160e01b600052602160045260246000fd5b600181111561305857634e487b7160e01b600052602160045260246000fd5b81526020016004820160029054906101000a900460ff16600181111561308e57634e487b7160e01b600052602160045260246000fd5b60018111156130ad57634e487b7160e01b600052602160045260246000fd5b815260049190910154630100000090046001600160a01b03166020918201529082526040805161012081019091526008840180549390920192909190829060ff16600381111561310d57634e487b7160e01b600052602160045260246000fd5b600381111561312c57634e487b7160e01b600052602160045260246000fd5b815281546001600160a01b036101009091048116602083015260018084015490911660408301526002830154606083015260038301546080830152600483015460a09092019160ff169081111561319357634e487b7160e01b600052602160045260246000fd5b60018111156131b257634e487b7160e01b600052602160045260246000fd5b81526020016004820160019054906101000a900460ff1660018111156131e857634e487b7160e01b600052602160045260246000fd5b600181111561320757634e487b7160e01b600052602160045260246000fd5b81526020016004820160029054906101000a900460ff16600181111561323d57634e487b7160e01b600052602160045260246000fd5b600181111561325c57634e487b7160e01b600052602160045260246000fd5b815260049190910154630100000090046001600160a01b031660209091015290525090506000816060015160c0015160018111156132aa57634e487b7160e01b600052602160045260246000fd5b14806132dd57506000816080015160c0015160018111156132db57634e487b7160e01b600052602160045260246000fd5b145b6133295760405162461bcd60e51b815260206004820152601d60248201527f43616e6e6f742063616e63656c20746865206c6f636b626f78206e6f7700000060448201526064016103e4565b60008481526003602052604090206002908101805460ff1916600183611763565b6000546001600160a01b031633146133745760405162461bcd60e51b81526004016103e490613d92565b600081116133c45760405162461bcd60e51b815260206004820152601860248201527f73686f756c64206265206d6f7265207468616e207a65726f000000000000000060448201526064016103e4565b600255565b6003602081905260009182526040918290208054600182015460028301548551610120810190965283850180546001600160a01b0390941696929560ff928316959491928492169081111561342e57634e487b7160e01b600052602160045260246000fd5b600381111561344d57634e487b7160e01b600052602160045260246000fd5b815281546001600160a01b036101009091048116602083015260018084015490911660408301526002830154606083015260038301546080830152600483015460a09092019160ff16908111156134b457634e487b7160e01b600052602160045260246000fd5b60018111156134d357634e487b7160e01b600052602160045260246000fd5b81526020016004820160019054906101000a900460ff16600181111561350957634e487b7160e01b600052602160045260246000fd5b600181111561352857634e487b7160e01b600052602160045260246000fd5b81526020016004820160029054906101000a900460ff16600181111561355e57634e487b7160e01b600052602160045260246000fd5b600181111561357d57634e487b7160e01b600052602160045260246000fd5b815260049190910154630100000090046001600160a01b0316602090910152604080516101208101909152600883018054929392829060ff1660038111156135d557634e487b7160e01b600052602160045260246000fd5b60038111156135f457634e487b7160e01b600052602160045260246000fd5b815281546001600160a01b036101009091048116602083015260018084015490911660408301526002830154606083015260038301546080830152600483015460a09092019160ff169081111561365b57634e487b7160e01b600052602160045260246000fd5b600181111561367a57634e487b7160e01b600052602160045260246000fd5b81526020016004820160019054906101000a900460ff1660018111156136b057634e487b7160e01b600052602160045260246000fd5b60018111156136cf57634e487b7160e01b600052602160045260246000fd5b81526020016004820160029054906101000a900460ff16600181111561370557634e487b7160e01b600052602160045260246000fd5b600181111561372457634e487b7160e01b600052602160045260246000fd5b815260049190910154630100000090046001600160a01b0316602090910152905085565b6000546001600160a01b031633146137725760405162461bcd60e51b81526004016103e490613d92565b6001600160a01b0381166137d75760405162461bcd60e51b815260206004820152602660248201527f4f776e61626c653a206e6577206f776e657220697320746865207a65726f206160448201526564647265737360d01b60648201526084016103e4565b6137e0816137e3565b50565b600080546001600160a01b038381166001600160a01b0319831681178455604051919092169283917f8be0079c531659141344cd1fd0a4f28419497f9722a3daafe3b4186f6b6457e09190a35050565b80356001600160a01b038116811461384a57600080fd5b919050565b600082601f83011261385f578081fd5b8135602067ffffffffffffffff82111561387b5761387b613e83565b8160051b61388a828201613df3565b8381528281019086840183880185018910156138a4578687fd5b8693505b858410156138c65780358352600193909301929184019184016138a8565b50979650505050505050565b600082601f8301126138e2578081fd5b813567ffffffffffffffff8111156138fc576138fc613e83565b61390f601f8201601f1916602001613df3565b818152846020838601011115613923578283fd5b816020850160208301379081016020019190915292915050565b80356004811061384a57600080fd5b60006020828403121561395d578081fd5b61396682613833565b9392505050565b600080600080600060a08688031215613984578081fd5b61398d86613833565b945061399b60208701613833565b9350604086013567ffffffffffffffff808211156139b7578283fd5b6139c389838a0161384f565b945060608801359150808211156139d8578283fd5b6139e489838a0161384f565b935060808801359150808211156139f9578283fd5b50613a06888289016138d2565b9150509295509295909350565b60008060008060808587031215613a28578384fd5b613a3185613833565b9350613a3f60208601613833565b925060408501359150606085013567ffffffffffffffff811115613a61578182fd5b613a6d878288016138d2565b91505092959194509250565b600080600080600060a08688031215613a90578081fd5b613a9986613833565b9450613aa760208701613833565b93506040860135925060608601359150608086013567ffffffffffffffff811115613ad0578182fd5b613a06888289016138d2565b600060208284031215613aed578081fd5b81518015158114613966578182fd5b600060208284031215613b0d578081fd5b81356001600160e01b031981168114613966578182fd5b60008060008060008060008060006101208a8c031215613b42578384fd5b613b4b8a61393d565b9850613b5960208b01613833565b975060408a0135965060608a01359550613b7560808b0161393d565b9450613b8360a08b01613833565b935060c08a0135925060e08a013591506101008a013590509295985092959850929598565b600060208284031215613bb9578081fd5b5035919050565b60028110613bd057613bd0613e6d565b9052565b805160048110613be657613be6613e6d565b808352506020810151613c0460208401826001600160a01b03169052565b506040810151613c1f60408401826001600160a01b03169052565b50606081015160608301526080810151608083015260a0810151613c4660a0840182613bc0565b5060c0810151613c5960c0840182613bc0565b5060e0810151613c6c60e0840182613bc0565b50610100818101516001600160a01b03811684830152611769565b6001600160a01b039384168152919092166020820152604081019190915260600190565b6001600160a01b0394851681529290931660208301526040820152606081019190915260a06080820181905260009082015260c00190565b6001600160a01b0386168152602081018590526102a0810160038510613d0b57613d0b613e6d565b846040830152613d1e6060830185613bd4565b613d2c610180830184613bd4565b9695505050505050565b6020808252601e908201527f4c6f636b426f78206973206e6f742070656e64696e6720616e796d6f72650000604082015260600190565b6020808252600b908201526a139bdd08185b1b1bddd95960aa1b604082015260600190565b6020808252818101527f4f776e61626c653a2063616c6c6572206973206e6f7420746865206f776e6572604082015260600190565b6020808252601290820152711b1bd8dad89bde081a5cc8195e1c1a5c995960721b604082015260600190565b604051601f8201601f1916810167ffffffffffffffff81118282101715613e1c57613e1c613e83565b604052919050565b60008219821115613e3757613e37613e57565b500190565b6000600019821415613e5057613e50613e57565b5060010190565b634e487b7160e01b600052601160045260246000fd5b634e487b7160e01b600052602160045260246000fd5b634e487b7160e01b600052604160045260246000fdfea264697066735822122099a539652934dec528ac105bdc736cddfd4999e46bc723117917af10b7d19e5e64736f6c63430008040033",
  "linkReferences": {},
  "deployedLinkReferences": {}
}