{
  "_format": "hh-sol-artifact-1",
  "contractName": "LockBox",
  "sourceName": "contracts/LockBox.sol",
  "abi": [
    {
      "anonymous": false,
      "inputs": [
        {
          "indexed": true,
          "internalType": "address",
          "name": "previousOwner",
          "type": "address"
        },
        {
          "indexed": true,
          "internalType": "address",
          "name": "newOwner",
          "type": "address"
        }
      ],
      "name": "OwnershipTransferred",
      "type": "event"
    },
    {
      "inputs": [
        {
          "internalType": "uint256",
          "name": "_id",
          "type": "uint256"
        }
      ],
      "name": "approveAsset",
      "outputs": [],
      "stateMutability": "nonpayable",
      "type": "function"
    },
    {
      "inputs": [],
      "name": "boxFee",
      "outputs": [
        {
          "internalType": "uint256",
          "name": "",
          "type": "uint256"
        }
      ],
      "stateMutability": "view",
      "type": "function"
    },
    {
      "inputs": [
        {
          "internalType": "uint256",
          "name": "_id",
          "type": "uint256"
        }
      ],
      "name": "cancelLockBox",
      "outputs": [],
      "stateMutability": "nonpayable",
      "type": "function"
    },
    {
      "inputs": [
        {
          "internalType": "uint256",
          "name": "_id",
          "type": "uint256"
        }
      ],
      "name": "claimAsset",
      "outputs": [],
      "stateMutability": "nonpayable",
      "type": "function"
    },
    {
      "inputs": [],
      "name": "counter",
      "outputs": [
        {
          "internalType": "uint256",
          "name": "",
          "type": "uint256"
        }
      ],
      "stateMutability": "view",
      "type": "function"
    },
    {
      "inputs": [
        {
          "internalType": "enum LockBox.AssetType",
          "name": "_assetAtype",
          "type": "uint8"
        },
        {
          "internalType": "address",
          "name": "_assetAaddress",
          "type": "address"
        },
        {
          "internalType": "uint256",
          "name": "_assetAID",
          "type": "uint256"
        },
        {
          "internalType": "uint256",
          "name": "_assetAQuantity",
          "type": "uint256"
        },
        {
          "internalType": "enum LockBox.AssetType",
          "name": "_assetBtype",
          "type": "uint8"
        },
        {
          "internalType": "address",
          "name": "_assetBaddress",
          "type": "address"
        },
        {
          "internalType": "uint256",
          "name": "_assetBID",
          "type": "uint256"
        },
        {
          "internalType": "uint256",
          "name": "_assetBQuantity",
          "type": "uint256"
        },
        {
          "internalType": "uint256",
          "name": "_expiryTime",
          "type": "uint256"
        }
      ],
      "name": "createLockBox",
      "outputs": [],
      "stateMutability": "payable",
      "type": "function"
    },
    {
      "inputs": [
        {
          "internalType": "uint256",
          "name": "_id",
          "type": "uint256"
        }
      ],
      "name": "lockAsset",
      "outputs": [],
      "stateMutability": "payable",
      "type": "function"
    },
    {
      "inputs": [
        {
          "internalType": "uint256",
          "name": "",
          "type": "uint256"
        }
      ],
      "name": "lockBoxInfo",
      "outputs": [
        {
          "internalType": "address",
          "name": "lockBoxOwner",
          "type": "address"
        },
        {
          "internalType": "uint256",
          "name": "expiryTime",
          "type": "uint256"
        },
        {
          "internalType": "enum LockBox.Status",
          "name": "status",
          "type": "uint8"
        },
        {
          "components": [
            {
              "internalType": "enum LockBox.AssetType",
              "name": "assetType",
              "type": "uint8"
            },
            {
              "internalType": "address",
              "name": "owner",
              "type": "address"
            },
            {
              "internalType": "address",
              "name": "assetAddress",
              "type": "address"
            },
            {
              "internalType": "uint256",
              "name": "assetID",
              "type": "uint256"
            },
            {
              "internalType": "uint256",
              "name": "assetQuantity",
              "type": "uint256"
            },
            {
              "internalType": "enum LockBox.LockStatus",
              "name": "lockStatus",
              "type": "uint8"
            },
            {
              "internalType": "enum LockBox.ApprovalStatus",
              "name": "approvalStatus",
              "type": "uint8"
            },
            {
              "internalType": "enum LockBox.ClaimStatus",
              "name": "claimStatus",
              "type": "uint8"
            },
            {
              "internalType": "address",
              "name": "claimedBy",
              "type": "address"
            }
          ],
          "internalType": "struct LockBox.Asset",
          "name": "assetA",
          "type": "tuple"
        },
        {
          "components": [
            {
              "internalType": "enum LockBox.AssetType",
              "name": "assetType",
              "type": "uint8"
            },
            {
              "internalType": "address",
              "name": "owner",
              "type": "address"
            },
            {
              "internalType": "address",
              "name": "assetAddress",
              "type": "address"
            },
            {
              "internalType": "uint256",
              "name": "assetID",
              "type": "uint256"
            },
            {
              "internalType": "uint256",
              "name": "assetQuantity",
              "type": "uint256"
            },
            {
              "internalType": "enum LockBox.LockStatus",
              "name": "lockStatus",
              "type": "uint8"
            },
            {
              "internalType": "enum LockBox.ApprovalStatus",
              "name": "approvalStatus",
              "type": "uint8"
            },
            {
              "internalType": "enum LockBox.ClaimStatus",
              "name": "claimStatus",
              "type": "uint8"
            },
            {
              "internalType": "address",
              "name": "claimedBy",
              "type": "address"
            }
          ],
          "internalType": "struct LockBox.Asset",
          "name": "assetB",
          "type": "tuple"
        }
      ],
      "stateMutability": "view",
      "type": "function"
    },
    {
      "inputs": [],
      "name": "owner",
      "outputs": [
        {
          "internalType": "address",
          "name": "",
          "type": "address"
        }
      ],
      "stateMutability": "view",
      "type": "function"
    },
    {
      "inputs": [],
      "name": "renounceOwnership",
      "outputs": [],
      "stateMutability": "nonpayable",
      "type": "function"
    },
    {
      "inputs": [
        {
          "internalType": "address",
          "name": "newOwner",
          "type": "address"
        }
      ],
      "name": "transferOwnership",
      "outputs": [],
      "stateMutability": "nonpayable",
      "type": "function"
    },
    {
      "inputs": [
        {
          "internalType": "uint256",
          "name": "_fee",
          "type": "uint256"
        }
      ],
      "name": "updateBoxFee",
      "outputs": [],
      "stateMutability": "nonpayable",
      "type": "function"
    },
    {
      "inputs": [],
      "name": "withdrawFunds",
      "outputs": [],
      "stateMutability": "nonpayable",
      "type": "function"
    }
  ],
  "bytecode": "0x608060405267016345785d8a00006002553480156200001d57600080fd5b50620000326200002c62000038565b6200003c565b6200008c565b3390565b600080546001600160a01b038381166001600160a01b0319831681178455604051919092169283917f8be0079c531659141344cd1fd0a4f28419497f9722a3daafe3b4186f6b6457e09190a35050565b6138c4806200009c6000396000f3fe6080604052600436106100c25760003560e01c80638a88cbbe1161007f578063d3f29c3311610059578063d3f29c33146101bb578063e18ec218146101db578063f1c5797d146101fb578063f2fde38b1461022c576100c2565b80638a88cbbe146101665780638da5cb5b14610179578063d3c2a5921461019b576100c2565b80630a1053fb146100c75780631629614e146100f257806324600fc31461010757806361bc221a1461011c578063715018a614610131578063864d7e1414610146575b600080fd5b3480156100d357600080fd5b506100dc61024c565b6040516100e99190613816565b60405180910390f35b6101056101003660046132c4565b610252565b005b34801561011357600080fd5b50610105610be2565b34801561012857600080fd5b506100dc610c83565b34801561013d57600080fd5b50610105610c89565b34801561015257600080fd5b506101056101613660046132c4565b610cd4565b610105610174366004613240565b61141c565b34801561018557600080fd5b5061018e61193d565b6040516100e9919061338e565b3480156101a757600080fd5b506101056101b63660046132c4565b61194c565b3480156101c757600080fd5b506101056101d63660046132c4565b6127e6565b3480156101e757600080fd5b506101056101f63660046132c4565b612d29565b34801561020757600080fd5b5061021b6102163660046132c4565b612d8d565b6040516100e99594939291906133df565b34801561023857600080fd5b506101056102473660046131ff565b61310f565b60025481565b8060008082815260036020526040902060029081015460ff169081111561028957634e487b7160e01b600052602160045260246000fd5b146102af5760405162461bcd60e51b81526004016102a690613654565b60405180910390fd5b60008181526003602052604090206001015442106102df5760405162461bcd60e51b81526004016102a6906137b3565b6000828152600360209081526040808320815160a08101835281546001600160a01b03168152600182015493810193909352600280820154919284019160ff169081111561033d57634e487b7160e01b600052602160045260246000fd5b600281111561035c57634e487b7160e01b600052602160045260246000fd5b8152604080516101208101909152600383018054602090930192829060ff16600281111561039a57634e487b7160e01b600052602160045260246000fd5b60028111156103b957634e487b7160e01b600052602160045260246000fd5b815281546001600160a01b036101009091048116602083015260018084015490911660408301526002830154606083015260038301546080830152600483015460a09092019160ff169081111561042057634e487b7160e01b600052602160045260246000fd5b600181111561043f57634e487b7160e01b600052602160045260246000fd5b81526020016004820160019054906101000a900460ff16600181111561047557634e487b7160e01b600052602160045260246000fd5b600181111561049457634e487b7160e01b600052602160045260246000fd5b81526020016004820160029054906101000a900460ff1660018111156104ca57634e487b7160e01b600052602160045260246000fd5b60018111156104e957634e487b7160e01b600052602160045260246000fd5b815260049190910154630100000090046001600160a01b03166020918201529082526040805161012081019091526008840180549390920192909190829060ff16600281111561054957634e487b7160e01b600052602160045260246000fd5b600281111561056857634e487b7160e01b600052602160045260246000fd5b815281546001600160a01b036101009091048116602083015260018084015490911660408301526002830154606083015260038301546080830152600483015460a09092019160ff16908111156105cf57634e487b7160e01b600052602160045260246000fd5b60018111156105ee57634e487b7160e01b600052602160045260246000fd5b81526020016004820160019054906101000a900460ff16600181111561062457634e487b7160e01b600052602160045260246000fd5b600181111561064357634e487b7160e01b600052602160045260246000fd5b81526020016004820160029054906101000a900460ff16600181111561067957634e487b7160e01b600052602160045260246000fd5b600181111561069857634e487b7160e01b600052602160045260246000fd5b81526020016004820160039054906101000a90046001600160a01b03166001600160a01b03166001600160a01b0316815250508152505090508060600151602001516001600160a01b0316336001600160a01b0316141561095f576000816060015160a00151600181111561071d57634e487b7160e01b600052602160045260246000fd5b1461073a5760405162461bcd60e51b81526004016102a69061361d565b6000606082015151600281111561076157634e487b7160e01b600052602160045260246000fd5b1415610800578060600151604001516001600160a01b03166323b872dd33308460600151606001516040518463ffffffff1660e01b81526004016107a7939291906133a2565b600060405180830381600087803b1580156107c157600080fd5b505af11580156107d5573d6000803e3d6000fd5b505050600084815260036020526040902060070180546001925060ff191682805b021790555061095a565b6001606082015151600281111561082757634e487b7160e01b600052602160045260246000fd5b14156108e157606081015160408082015160809092015190516323b872dd60e01b81526001600160a01b03909216916323b872dd9161086c91339130916004016133a2565b602060405180830381600087803b15801561088657600080fd5b505af115801561089a573d6000803e3d6000fd5b505050506040513d601f19601f820116820180604052508101906108be9190613220565b50600083815260036020526040902060070180546001919060ff191682806107f6565b6002606082015151600281111561090857634e487b7160e01b600052602160045260246000fd5b141561095a578060600151608001513410156109365760405162461bcd60e51b81526004016102a6906137df565b600083815260036020526040902060070180546001919060ff191682805b02179055505b610bdd565b6000816080015160a00151600181111561098957634e487b7160e01b600052602160045260246000fd5b146109a65760405162461bcd60e51b81526004016102a69061361d565b60008381526003602052604081206008018054610100600160a81b031916336101000217905560808201515160028111156109f157634e487b7160e01b600052602160045260246000fd5b1415610a8957608081015160408082015160609092015190516323b872dd60e01b81526001600160a01b03909216916323b872dd91610a3691339130916004016133a2565b600060405180830381600087803b158015610a5057600080fd5b505af1158015610a64573d6000803e3d6000fd5b5050506000848152600360205260409020600c0180546001925060ff19168280610954565b60016080820151516002811115610ab057634e487b7160e01b600052602160045260246000fd5b1415610b6b578060800151604001516001600160a01b03166323b872dd33308460800151608001516040518463ffffffff1660e01b8152600401610af6939291906133a2565b602060405180830381600087803b158015610b1057600080fd5b505af1158015610b24573d6000803e3d6000fd5b505050506040513d601f19601f82011682018060405250810190610b489190613220565b506000838152600360205260409020600c0180546001919060ff19168280610954565b60026080820151516002811115610b9257634e487b7160e01b600052602160045260246000fd5b1415610bdd57806080015160800151341015610bc05760405162461bcd60e51b81526004016102a6906137df565b6000838152600360205260409020600c01805460ff191660011790555b505050565b610bea613180565b6001600160a01b0316610bfb61193d565b6001600160a01b031614610c215760405162461bcd60e51b81526004016102a6906136b0565b4780610c3f5760405162461bcd60e51b81526004016102a69061378a565b610c4761193d565b6001600160a01b03166108fc829081150290604051600060405180830381858888f19350505050158015610c7f573d6000803e3d6000fd5b5050565b60015481565b610c91613180565b6001600160a01b0316610ca261193d565b6001600160a01b031614610cc85760405162461bcd60e51b81526004016102a6906136b0565b610cd26000613184565b565b60008181526003602081905260409091200154819061010090046001600160a01b0316610cff613180565b6001600160a01b03161480610d42575060008181526003602052604090206008015461010090046001600160a01b0316610d37613180565b6001600160a01b0316145b610d5e5760405162461bcd60e51b81526004016102a69061368b565b8160008082815260036020526040902060029081015460ff1690811115610d9557634e487b7160e01b600052602160045260246000fd5b14610db25760405162461bcd60e51b81526004016102a690613654565b6000818152600360205260409020600101544210610de25760405162461bcd60e51b81526004016102a6906137b3565b6000838152600360209081526040808320815160a08101835281546001600160a01b03168152600182015493810193909352600280820154919284019160ff1690811115610e4057634e487b7160e01b600052602160045260246000fd5b6002811115610e5f57634e487b7160e01b600052602160045260246000fd5b8152604080516101208101909152600383018054602090930192829060ff166002811115610e9d57634e487b7160e01b600052602160045260246000fd5b6002811115610ebc57634e487b7160e01b600052602160045260246000fd5b815281546001600160a01b036101009091048116602083015260018084015490911660408301526002830154606083015260038301546080830152600483015460a09092019160ff1690811115610f2357634e487b7160e01b600052602160045260246000fd5b6001811115610f4257634e487b7160e01b600052602160045260246000fd5b81526020016004820160019054906101000a900460ff166001811115610f7857634e487b7160e01b600052602160045260246000fd5b6001811115610f9757634e487b7160e01b600052602160045260246000fd5b81526020016004820160029054906101000a900460ff166001811115610fcd57634e487b7160e01b600052602160045260246000fd5b6001811115610fec57634e487b7160e01b600052602160045260246000fd5b815260049190910154630100000090046001600160a01b03166020918201529082526040805161012081019091526008840180549390920192909190829060ff16600281111561104c57634e487b7160e01b600052602160045260246000fd5b600281111561106b57634e487b7160e01b600052602160045260246000fd5b815281546001600160a01b036101009091048116602083015260018084015490911660408301526002830154606083015260038301546080830152600483015460a09092019160ff16908111156110d257634e487b7160e01b600052602160045260246000fd5b60018111156110f157634e487b7160e01b600052602160045260246000fd5b81526020016004820160019054906101000a900460ff16600181111561112757634e487b7160e01b600052602160045260246000fd5b600181111561114657634e487b7160e01b600052602160045260246000fd5b81526020016004820160029054906101000a900460ff16600181111561117c57634e487b7160e01b600052602160045260246000fd5b600181111561119b57634e487b7160e01b600052602160045260246000fd5b81526020016004820160039054906101000a90046001600160a01b03166001600160a01b03166001600160a01b0316815250508152505090508060600151602001516001600160a01b0316336001600160a01b031614156112f4576001816060015160a00151600181111561122057634e487b7160e01b600052602160045260246000fd5b1461123d5760405162461bcd60e51b81526004016102a69061342b565b6000816060015160c00151600181111561126757634e487b7160e01b600052602160045260246000fd5b146112845760405162461bcd60e51b81526004016102a69061371c565b6000848152600360205260409020600701805461ff001916610100179055608081015160c00151600190818111156112cc57634e487b7160e01b600052602160045260246000fd5b14156112ef576000848152600360205260409020600201805460ff191660011790555b611416565b8060800151602001516001600160a01b0316336001600160a01b03161415611416576001816080015160a00151600181111561134057634e487b7160e01b600052602160045260246000fd5b1461135d5760405162461bcd60e51b81526004016102a69061342b565b6000816080015160c00151600181111561138757634e487b7160e01b600052602160045260246000fd5b146113a45760405162461bcd60e51b81526004016102a69061371c565b6000848152600360205260409020600c01805461ff001916610100179055606081015160c00151600190818111156113ec57634e487b7160e01b600052602160045260246000fd5b141561141657600084815260036020526040902060020180546001919060ff191682805b02179055505b50505050565b60025434101561143e5760405162461bcd60e51b81526004016102a690613482565b6000811180156114515750620151808111155b61146d5760405162461bcd60e51b81526004016102a69061355a565b6001805490600061147d83613837565b919050555060006040518061012001604052808b60028111156114b057634e487b7160e01b600052602160045260246000fd5b81523360208201526001600160a01b038b166040820152606081018a90526080810189905260a00160008152602001600081526020016000815260200160006001600160a01b03168152509050600060405180610120016040528088600281111561152b57634e487b7160e01b600052602160045260246000fd5b815260200160006001600160a01b03168152602001876001600160a01b031681526020018681526020018581526020016000600181111561157c57634e487b7160e01b600052602160045260246000fd5b81526020016000815260200160008152600060209182018190526040805160a08101909152338152929350919081016115b5864261381f565b8152602001600081526020808201869052604091820185905260018054600090815260038352839020845181546001600160a01b0319166001600160a01b0390911617815591840151828201559183015160028083018054959650869593949293909260ff1990911691849081111561163e57634e487b7160e01b600052602160045260246000fd5b021790555060608201518051600383018054909190829060ff1916600183600281111561167b57634e487b7160e01b600052602160045260246000fd5b021790555060208201518154610100600160a81b0319166101006001600160a01b03928316021782556040830151600180840180546001600160a01b0319169290931691909117909155606083015160028301556080830151600383015560a08301516004830180549192909160ff191690838181111561170c57634e487b7160e01b600052602160045260246000fd5b021790555060c082015160048201805461ff00191661010083600181111561174457634e487b7160e01b600052602160045260246000fd5b021790555060e082015160048201805462ff000019166201000083600181111561177e57634e487b7160e01b600052602160045260246000fd5b02179055506101009190910151600490910180546001600160a01b039092166301000000026301000000600160b81b031990921691909117905560808201518051600883018054909190829060ff191660018360028111156117f057634e487b7160e01b600052602160045260246000fd5b021790555060208201518154610100600160a81b0319166101006001600160a01b03928316021782556040830151600180840180546001600160a01b0319169290931691909117909155606083015160028301556080830151600383015560a08301516004830180549192909160ff191690838181111561188157634e487b7160e01b600052602160045260246000fd5b021790555060c082015160048201805461ff0019166101008360018111156118b957634e487b7160e01b600052602160045260246000fd5b021790555060e082015160048201805462ff00001916620100008360018111156118f357634e487b7160e01b600052602160045260246000fd5b02179055506101009190910151600490910180546001600160a01b039092166301000000026301000000600160b81b03199092169190911790555050505050505050505050505050565b6000546001600160a01b031690565b60008181526003602081905260409091200154819061010090046001600160a01b0316611977613180565b6001600160a01b031614806119ba575060008181526003602052604090206008015461010090046001600160a01b03166119af613180565b6001600160a01b0316145b6119d65760405162461bcd60e51b81526004016102a69061368b565b6000828152600360205260409020600101544210611a0d5760008281526003602052604090206002908101805460ff191690911790555b6000828152600360209081526040808320815160a08101835281546001600160a01b03168152600182015493810193909352600280820154919284019160ff1690811115611a6b57634e487b7160e01b600052602160045260246000fd5b6002811115611a8a57634e487b7160e01b600052602160045260246000fd5b8152604080516101208101909152600383018054602090930192829060ff166002811115611ac857634e487b7160e01b600052602160045260246000fd5b6002811115611ae757634e487b7160e01b600052602160045260246000fd5b815281546001600160a01b036101009091048116602083015260018084015490911660408301526002830154606083015260038301546080830152600483015460a09092019160ff1690811115611b4e57634e487b7160e01b600052602160045260246000fd5b6001811115611b6d57634e487b7160e01b600052602160045260246000fd5b81526020016004820160019054906101000a900460ff166001811115611ba357634e487b7160e01b600052602160045260246000fd5b6001811115611bc257634e487b7160e01b600052602160045260246000fd5b81526020016004820160029054906101000a900460ff166001811115611bf857634e487b7160e01b600052602160045260246000fd5b6001811115611c1757634e487b7160e01b600052602160045260246000fd5b815260049190910154630100000090046001600160a01b03166020918201529082526040805161012081019091526008840180549390920192909190829060ff166002811115611c7757634e487b7160e01b600052602160045260246000fd5b6002811115611c9657634e487b7160e01b600052602160045260246000fd5b815281546001600160a01b036101009091048116602083015260018084015490911660408301526002830154606083015260038301546080830152600483015460a09092019160ff1690811115611cfd57634e487b7160e01b600052602160045260246000fd5b6001811115611d1c57634e487b7160e01b600052602160045260246000fd5b81526020016004820160019054906101000a900460ff166001811115611d5257634e487b7160e01b600052602160045260246000fd5b6001811115611d7157634e487b7160e01b600052602160045260246000fd5b81526020016004820160029054906101000a900460ff166001811115611da757634e487b7160e01b600052602160045260246000fd5b6001811115611dc657634e487b7160e01b600052602160045260246000fd5b815260049190910154630100000090046001600160a01b03166020909101529052509050600081604001516002811115611e1057634e487b7160e01b600052602160045260246000fd5b1415611e2e5760405162461bcd60e51b81526004016102a690613458565b8060600151602001516001600160a01b0316336001600160a01b0316141561231c57600181604001516002811115611e7657634e487b7160e01b600052602160045260246000fd5b1415612092576000838152600360205260408120600c0180546301000000600160b81b031916336301000000021762ff00001916620100001790556080820151516002811115611ed657634e487b7160e01b600052602160045260246000fd5b1415611f5257608081015160408082015160609092015190516323b872dd60e01b81526001600160a01b03909216916323b872dd91611f1b91309133916004016133a2565b600060405180830381600087803b158015611f3557600080fd5b505af1158015611f49573d6000803e3d6000fd5b5050505061208d565b60016080820151516002811115611f7957634e487b7160e01b600052602160045260246000fd5b1415612015578060800151604001516001600160a01b031663a9059cbb338360800151608001516040518363ffffffff1660e01b8152600401611fbd9291906133c6565b602060405180830381600087803b158015611fd757600080fd5b505af1158015611feb573d6000803e3d6000fd5b505050506040513d601f19601f8201168201806040525081019061200f9190613220565b5061208d565b6002608082015151600281111561203c57634e487b7160e01b600052602160045260246000fd5b141561208d578060600151602001516001600160a01b03166108fc8260800151608001519081150290604051600060405180830381858888f1935050505015801561208b573d6000803e3d6000fd5b505b61095a565b6002816040015160028111156120b857634e487b7160e01b600052602160045260246000fd5b14156122a9576001816060015160a0015160018111156120e857634e487b7160e01b600052602160045260246000fd5b146121055760405162461bcd60e51b81526004016102a6906134f4565b6000816060015160e00151600181111561212f57634e487b7160e01b600052602160045260246000fd5b1461214c5760405162461bcd60e51b81526004016102a6906136e5565b600083815260036020526040812060070180546301000000600160b81b031916336301000000021762ff000019166201000017905560608201515160028111156121a657634e487b7160e01b600052602160045260246000fd5b14156121ec578060600151604001516001600160a01b03166323b872dd30338460600151606001516040518463ffffffff1660e01b8152600401611f1b939291906133a2565b6001606082015151600281111561221357634e487b7160e01b600052602160045260246000fd5b141561208d578060600151604001516001600160a01b031663a9059cbb338360600151608001516040518363ffffffff1660e01b81526004016122579291906133c6565b602060405180830381600087803b15801561227157600080fd5b505af1158015612285573d6000803e3d6000fd5b505050506040513d601f19601f8201168201806040525081019061208b9190613220565b6000816040015160028111156122cf57634e487b7160e01b600052602160045260246000fd5b141561095a576001816060015160a0015160018111156122ff57634e487b7160e01b600052602160045260246000fd5b1461095a5760405162461bcd60e51b81526004016102a6906134f4565b8060800151602001516001600160a01b0316336001600160a01b03161415610bdd5760018160400151600281111561236457634e487b7160e01b600052602160045260246000fd5b141561252857600083815260036020526040812060070180546301000000600160b81b031916336301000000021762ff000019166201000017905560608201515160028111156123c457634e487b7160e01b600052602160045260246000fd5b1415612441578060600151604001516001600160a01b03166323b872dd30338460600151606001516040518463ffffffff1660e01b815260040161240a939291906133a2565b600060405180830381600087803b15801561242457600080fd5b505af1158015612438573d6000803e3d6000fd5b5050505061095a565b6001606082015151600281111561246857634e487b7160e01b600052602160045260246000fd5b14156124ac578060600151604001516001600160a01b031663a9059cbb338360600151608001516040518363ffffffff1660e01b81526004016122579291906133c6565b600260608201515160028111156124d357634e487b7160e01b600052602160045260246000fd5b141561095a578060800151602001516001600160a01b03166108fc8260600151608001519081150290604051600060405180830381858888f19350505050158015612522573d6000803e3d6000fd5b50610bdd565b60028160400151600281111561254e57634e487b7160e01b600052602160045260246000fd5b1415610bdd576000816080015160e00151600181111561257e57634e487b7160e01b600052602160045260246000fd5b1461259b5760405162461bcd60e51b81526004016102a690613523565b6001816080015160a0015160018111156125c557634e487b7160e01b600052602160045260246000fd5b146125e25760405162461bcd60e51b81526004016102a6906135b7565b6000838152600360205260408120600c01805462ff0000191662010000176301000000600160b81b03191633630100000002179055608082015151600281111561263c57634e487b7160e01b600052602160045260246000fd5b14156126b857608081015160408082015160609092015190516323b872dd60e01b81526001600160a01b03909216916323b872dd9161268191309133916004016133a2565b600060405180830381600087803b15801561269b57600080fd5b505af11580156126af573d6000803e3d6000fd5b50505050610bdd565b600160808201515160028111156126df57634e487b7160e01b600052602160045260246000fd5b1415612775578060800151604001516001600160a01b031663a9059cbb338360800151608001516040518363ffffffff1660e01b81526004016127239291906133c6565b602060405180830381600087803b15801561273d57600080fd5b505af1158015612751573d6000803e3d6000fd5b505050506040513d601f19601f820116820180604052508101906125229190613220565b6002608082015151600281111561279c57634e487b7160e01b600052602160045260246000fd5b1415610bdd5760808082015160208101519101516040516001600160a01b039092169181156108fc0291906000818181858888f19350505050158015611416573d6000803e3d6000fd5b60008181526003602052604090205481906001600160a01b0316612808613180565b6001600160a01b03161461282e5760405162461bcd60e51b81526004016102a69061368b565b8160008082815260036020526040902060029081015460ff169081111561286557634e487b7160e01b600052602160045260246000fd5b146128825760405162461bcd60e51b81526004016102a690613654565b60008181526003602052604090206001015442106128b25760405162461bcd60e51b81526004016102a6906137b3565b6000838152600360209081526040808320815160a08101835281546001600160a01b03168152600182015493810193909352600280820154919284019160ff169081111561291057634e487b7160e01b600052602160045260246000fd5b600281111561292f57634e487b7160e01b600052602160045260246000fd5b8152604080516101208101909152600383018054602090930192829060ff16600281111561296d57634e487b7160e01b600052602160045260246000fd5b600281111561298c57634e487b7160e01b600052602160045260246000fd5b815281546001600160a01b036101009091048116602083015260018084015490911660408301526002830154606083015260038301546080830152600483015460a09092019160ff16908111156129f357634e487b7160e01b600052602160045260246000fd5b6001811115612a1257634e487b7160e01b600052602160045260246000fd5b81526020016004820160019054906101000a900460ff166001811115612a4857634e487b7160e01b600052602160045260246000fd5b6001811115612a6757634e487b7160e01b600052602160045260246000fd5b81526020016004820160029054906101000a900460ff166001811115612a9d57634e487b7160e01b600052602160045260246000fd5b6001811115612abc57634e487b7160e01b600052602160045260246000fd5b815260049190910154630100000090046001600160a01b03166020918201529082526040805161012081019091526008840180549390920192909190829060ff166002811115612b1c57634e487b7160e01b600052602160045260246000fd5b6002811115612b3b57634e487b7160e01b600052602160045260246000fd5b815281546001600160a01b036101009091048116602083015260018084015490911660408301526002830154606083015260038301546080830152600483015460a09092019160ff1690811115612ba257634e487b7160e01b600052602160045260246000fd5b6001811115612bc157634e487b7160e01b600052602160045260246000fd5b81526020016004820160019054906101000a900460ff166001811115612bf757634e487b7160e01b600052602160045260246000fd5b6001811115612c1657634e487b7160e01b600052602160045260246000fd5b81526020016004820160029054906101000a900460ff166001811115612c4c57634e487b7160e01b600052602160045260246000fd5b6001811115612c6b57634e487b7160e01b600052602160045260246000fd5b815260049190910154630100000090046001600160a01b031660209091015290525090506000816060015160c001516001811115612cb957634e487b7160e01b600052602160045260246000fd5b1480612cec57506000816080015160c001516001811115612cea57634e487b7160e01b600052602160045260246000fd5b145b612d085760405162461bcd60e51b81526004016102a6906135e6565b60008481526003602052604090206002908101805460ff1916600183611410565b612d31613180565b6001600160a01b0316612d4261193d565b6001600160a01b031614612d685760405162461bcd60e51b81526004016102a6906136b0565b60008111612d885760405162461bcd60e51b81526004016102a690613753565b600255565b600360208190526000918252604091829020805460018201546002808401548651610120810190975294840180546001600160a01b0390941696929560ff90811695949192849290911690811115612df557634e487b7160e01b600052602160045260246000fd5b6002811115612e1457634e487b7160e01b600052602160045260246000fd5b815281546001600160a01b036101009091048116602083015260018084015490911660408301526002830154606083015260038301546080830152600483015460a09092019160ff1690811115612e7b57634e487b7160e01b600052602160045260246000fd5b6001811115612e9a57634e487b7160e01b600052602160045260246000fd5b81526020016004820160019054906101000a900460ff166001811115612ed057634e487b7160e01b600052602160045260246000fd5b6001811115612eef57634e487b7160e01b600052602160045260246000fd5b81526020016004820160029054906101000a900460ff166001811115612f2557634e487b7160e01b600052602160045260246000fd5b6001811115612f4457634e487b7160e01b600052602160045260246000fd5b815260049190910154630100000090046001600160a01b0316602090910152604080516101208101909152600883018054929392829060ff166002811115612f9c57634e487b7160e01b600052602160045260246000fd5b6002811115612fbb57634e487b7160e01b600052602160045260246000fd5b815281546001600160a01b036101009091048116602083015260018084015490911660408301526002830154606083015260038301546080830152600483015460a09092019160ff169081111561302257634e487b7160e01b600052602160045260246000fd5b600181111561304157634e487b7160e01b600052602160045260246000fd5b81526020016004820160019054906101000a900460ff16600181111561307757634e487b7160e01b600052602160045260246000fd5b600181111561309657634e487b7160e01b600052602160045260246000fd5b81526020016004820160029054906101000a900460ff1660018111156130cc57634e487b7160e01b600052602160045260246000fd5b60018111156130eb57634e487b7160e01b600052602160045260246000fd5b815260049190910154630100000090046001600160a01b0316602090910152905085565b613117613180565b6001600160a01b031661312861193d565b6001600160a01b03161461314e5760405162461bcd60e51b81526004016102a6906136b0565b6001600160a01b0381166131745760405162461bcd60e51b81526004016102a6906134ae565b61317d81613184565b50565b3390565b600080546001600160a01b038381166001600160a01b0319831681178455604051919092169283917f8be0079c531659141344cd1fd0a4f28419497f9722a3daafe3b4186f6b6457e09190a35050565b80356001600160a01b03811681146131eb57600080fd5b919050565b8035600381106131eb57600080fd5b600060208284031215613210578081fd5b613219826131d4565b9392505050565b600060208284031215613231578081fd5b81518015158114613219578182fd5b60008060008060008060008060006101208a8c03121561325e578485fd5b6132678a6131f0565b985061327560208b016131d4565b975060408a0135965060608a0135955061329160808b016131f0565b945061329f60a08b016131d4565b935060c08a0135925060e08a013591506101008a013590509295985092959850929598565b6000602082840312156132d5578081fd5b5035919050565b6001600160a01b03169052565b600281106132f9576132f9613868565b9052565b80516133088161387e565b80835250602081015160018060a01b0380821660208501528060408401511660408501525050606081015160608301526080810151608083015260a081015161335460a08401826132e9565b5060c081015161336760c08401826132e9565b5060e081015161337a60e08401826132e9565b5061010080820151611416828501826132dc565b6001600160a01b0391909116815260200190565b6001600160a01b039384168152919092166020820152604081019190915260600190565b6001600160a01b03929092168252602082015260400190565b6001600160a01b0386168152602081018590526102a081016134008561387e565b84604083015261341360608301856132fd565b6134216101808301846132fd565b9695505050505050565b602080825260139082015272105cdcd95d081a59081b9bdd081b1bd8dad959606a1b604082015260600190565b60208082526010908201526f4e6f7468696e6720746f20636c61696d60801b604082015260600190565b602080825260129082015271506c6561736520706179207468652066656560701b604082015260600190565b60208082526026908201527f4f776e61626c653a206e6577206f776e657220697320746865207a65726f206160408201526564647265737360d01b606082015260800190565b602080825260159082015274105cdcd95d0810481a5cc81b9bdd081b1bd8dad959605a1b604082015260600190565b6020808252601a908201527f4173736574204220697320616c726561647920636c61696d6564000000000000604082015260600190565b60208082526039908201527f4578706972792074696d652073686f756c64206265206d6f7265207468616e2060408201527f6e6f7720616e64206c657373207468616e206f6e652064617900000000000000606082015260800190565b602080825260159082015274105cdcd95d0810881a5cc81b9bdd081b1bd8dad959605a1b604082015260600190565b6020808252601d908201527f43616e6e6f742063616e63656c20746865206c6f636b626f78206e6f77000000604082015260600190565b60208082526017908201527f417373657420697320616c7265616479206c6f636b6564000000000000000000604082015260600190565b6020808252601e908201527f4c6f636b426f78206973206e6f742070656e64696e6720616e796d6f72650000604082015260600190565b6020808252600b908201526a139bdd08185b1b1bddd95960aa1b604082015260600190565b6020808252818101527f4f776e61626c653a2063616c6c6572206973206e6f7420746865206f776e6572604082015260600190565b6020808252601a908201527f4173736574204120697320616c726561647920636c61696d6564000000000000604082015260600190565b60208082526019908201527f417373657420697320616c726561647920617070726f76656400000000000000604082015260600190565b60208082526018908201527f73686f756c64206265206d6f7265207468616e207a65726f0000000000000000604082015260600190565b6020808252600f908201526e42616c616e6365206973207a65726f60881b604082015260600190565b6020808252601290820152711b1bd8dad89bde081a5cc8195e1c1a5c995960721b604082015260600190565b6020808252601a908201527f496e73756666696369656e74206c6f636b696e672066756e6473000000000000604082015260600190565b90815260200190565b6000821982111561383257613832613852565b500190565b600060001982141561384b5761384b613852565b5060010190565b634e487b7160e01b600052601160045260246000fd5b634e487b7160e01b600052602160045260246000fd5b6003811061317d5761317d61386856fea26469706673582212207f5af0910e4c554509a24beef43b805b42e7b34a3f6568b590ccd7659f49a40764736f6c63430008000033",
  "linkReferences": {},
  "deployedLinkReferences": {}
}