{
  "_format": "hh-sol-artifact-1",
  "contractName": "LockBox",
  "sourceName": "contracts/LockBox.sol",
  "abi": [
    {
      "anonymous": false,
      "inputs": [
        {
          "indexed": true,
          "internalType": "address",
          "name": "previousOwner",
          "type": "address"
        },
        {
          "indexed": true,
          "internalType": "address",
          "name": "newOwner",
          "type": "address"
        }
      ],
      "name": "OwnershipTransferred",
      "type": "event"
    },
    {
      "inputs": [
        {
          "internalType": "uint256",
          "name": "_id",
          "type": "uint256"
        }
      ],
      "name": "approveAsset",
      "outputs": [],
      "stateMutability": "nonpayable",
      "type": "function"
    },
    {
      "inputs": [],
      "name": "boxFee",
      "outputs": [
        {
          "internalType": "uint256",
          "name": "",
          "type": "uint256"
        }
      ],
      "stateMutability": "view",
      "type": "function"
    },
    {
      "inputs": [
        {
          "internalType": "uint256",
          "name": "_id",
          "type": "uint256"
        }
      ],
      "name": "cancelLockBox",
      "outputs": [],
      "stateMutability": "nonpayable",
      "type": "function"
    },
    {
      "inputs": [
        {
          "internalType": "uint256",
          "name": "_id",
          "type": "uint256"
        }
      ],
      "name": "claimAsset",
      "outputs": [],
      "stateMutability": "nonpayable",
      "type": "function"
    },
    {
      "inputs": [],
      "name": "counter",
      "outputs": [
        {
          "internalType": "uint256",
          "name": "",
          "type": "uint256"
        }
      ],
      "stateMutability": "view",
      "type": "function"
    },
    {
      "inputs": [
        {
          "internalType": "enum LockBox.AssetType",
          "name": "_assetAtype",
          "type": "uint8"
        },
        {
          "internalType": "address",
          "name": "_assetAaddress",
          "type": "address"
        },
        {
          "internalType": "uint256",
          "name": "_assetAID",
          "type": "uint256"
        },
        {
          "internalType": "uint256",
          "name": "_assetAQuantity",
          "type": "uint256"
        },
        {
          "internalType": "enum LockBox.AssetType",
          "name": "_assetBtype",
          "type": "uint8"
        },
        {
          "internalType": "address",
          "name": "_assetBaddress",
          "type": "address"
        },
        {
          "internalType": "uint256",
          "name": "_assetBID",
          "type": "uint256"
        },
        {
          "internalType": "uint256",
          "name": "_assetBQuantity",
          "type": "uint256"
        },
        {
          "internalType": "uint256",
          "name": "_expiryTime",
          "type": "uint256"
        }
      ],
      "name": "createLockBox",
      "outputs": [],
      "stateMutability": "payable",
      "type": "function"
    },
    {
      "inputs": [
        {
          "internalType": "uint256",
          "name": "_id",
          "type": "uint256"
        }
      ],
      "name": "lockAsset",
      "outputs": [],
      "stateMutability": "payable",
      "type": "function"
    },
    {
      "inputs": [
        {
          "internalType": "uint256",
          "name": "",
          "type": "uint256"
        }
      ],
      "name": "lockBoxInfo",
      "outputs": [
        {
          "internalType": "address",
          "name": "lockBoxOwner",
          "type": "address"
        },
        {
          "internalType": "uint256",
          "name": "expiryTime",
          "type": "uint256"
        },
        {
          "internalType": "enum LockBox.Status",
          "name": "status",
          "type": "uint8"
        },
        {
          "components": [
            {
              "internalType": "enum LockBox.AssetType",
              "name": "assetType",
              "type": "uint8"
            },
            {
              "internalType": "address",
              "name": "owner",
              "type": "address"
            },
            {
              "internalType": "address",
              "name": "assetAddress",
              "type": "address"
            },
            {
              "internalType": "uint256",
              "name": "assetID",
              "type": "uint256"
            },
            {
              "internalType": "uint256",
              "name": "assetQuantity",
              "type": "uint256"
            },
            {
              "internalType": "enum LockBox.LockStatus",
              "name": "lockStatus",
              "type": "uint8"
            },
            {
              "internalType": "enum LockBox.ApprovalStatus",
              "name": "approvalStatus",
              "type": "uint8"
            },
            {
              "internalType": "enum LockBox.ClaimStatus",
              "name": "claimStatus",
              "type": "uint8"
            },
            {
              "internalType": "address",
              "name": "claimedBy",
              "type": "address"
            }
          ],
          "internalType": "struct LockBox.Asset",
          "name": "assetA",
          "type": "tuple"
        },
        {
          "components": [
            {
              "internalType": "enum LockBox.AssetType",
              "name": "assetType",
              "type": "uint8"
            },
            {
              "internalType": "address",
              "name": "owner",
              "type": "address"
            },
            {
              "internalType": "address",
              "name": "assetAddress",
              "type": "address"
            },
            {
              "internalType": "uint256",
              "name": "assetID",
              "type": "uint256"
            },
            {
              "internalType": "uint256",
              "name": "assetQuantity",
              "type": "uint256"
            },
            {
              "internalType": "enum LockBox.LockStatus",
              "name": "lockStatus",
              "type": "uint8"
            },
            {
              "internalType": "enum LockBox.ApprovalStatus",
              "name": "approvalStatus",
              "type": "uint8"
            },
            {
              "internalType": "enum LockBox.ClaimStatus",
              "name": "claimStatus",
              "type": "uint8"
            },
            {
              "internalType": "address",
              "name": "claimedBy",
              "type": "address"
            }
          ],
          "internalType": "struct LockBox.Asset",
          "name": "assetB",
          "type": "tuple"
        }
      ],
      "stateMutability": "view",
      "type": "function"
    },
    {
      "inputs": [],
      "name": "owner",
      "outputs": [
        {
          "internalType": "address",
          "name": "",
          "type": "address"
        }
      ],
      "stateMutability": "view",
      "type": "function"
    },
    {
      "inputs": [],
      "name": "renounceOwnership",
      "outputs": [],
      "stateMutability": "nonpayable",
      "type": "function"
    },
    {
      "inputs": [
        {
          "internalType": "address",
          "name": "newOwner",
          "type": "address"
        }
      ],
      "name": "transferOwnership",
      "outputs": [],
      "stateMutability": "nonpayable",
      "type": "function"
    },
    {
      "inputs": [
        {
          "internalType": "uint256",
          "name": "_fee",
          "type": "uint256"
        }
      ],
      "name": "updateBoxFee",
      "outputs": [],
      "stateMutability": "nonpayable",
      "type": "function"
    },
    {
      "inputs": [],
      "name": "withdrawFunds",
      "outputs": [],
      "stateMutability": "nonpayable",
      "type": "function"
    }
  ],
  "bytecode": "0x608060405267016345785d8a00006002553480156200001d57600080fd5b506200003e620000326200004460201b60201c565b6200004c60201b60201c565b62000110565b600033905090565b60008060009054906101000a900473ffffffffffffffffffffffffffffffffffffffff169050816000806101000a81548173ffffffffffffffffffffffffffffffffffffffff021916908373ffffffffffffffffffffffffffffffffffffffff1602179055508173ffffffffffffffffffffffffffffffffffffffff168173ffffffffffffffffffffffffffffffffffffffff167f8be0079c531659141344cd1fd0a4f28419497f9722a3daafe3b4186f6b6457e060405160405180910390a35050565b61a9c280620001206000396000f3fe6080604052600436106100c25760003560e01c80638a88cbbe1161007f578063d3f29c3311610059578063d3f29c3314610200578063e18ec21814610229578063f1c5797d14610252578063f2fde38b14610293576100c2565b80638a88cbbe146101905780638da5cb5b146101ac578063d3c2a592146101d7576100c2565b80630a1053fb146100c75780631629614e146100f257806324600fc31461010e57806361bc221a14610125578063715018a614610150578063864d7e1414610167575b600080fd5b3480156100d357600080fd5b506100dc6102bc565b6040516100e9919061a6ff565b60405180910390f35b61010c60048036038101906101079190619de2565b6102c2565b005b34801561011a57600080fd5b506101236122ed565b005b34801561013157600080fd5b5061013a61258e565b604051610147919061a6ff565b60405180910390f35b34801561015c57600080fd5b50610165612594565b005b34801561017357600080fd5b5061018e60048036038101906101899190619de2565b61261c565b005b6101aa60048036038101906101a59190619d1c565b614019565b005b3480156101b857600080fd5b506101c1614b95565b6040516101ce919061a3ef565b60405180910390f35b3480156101e357600080fd5b506101fe60048036038101906101f99190619de2565b614bbe565b005b34801561020c57600080fd5b5061022760048036038101906102229190619de2565b61826f565b005b34801561023557600080fd5b50610250600480360381019061024b9190619de2565b6191d6565b005b34801561025e57600080fd5b5061027960048036038101906102749190619de2565b6193d2565b60405161028a95949392919061a46a565b60405180910390f35b34801561029f57600080fd5b506102ba60048036038101906102b59190619cca565b619aaf565b005b60025481565b806102ef7f424f2f6a09eb64cc2e5a3de2fad5d7d66bb4ac5305f5a1c399923b5afdba15ce60001b619ba7565b61031b7fa1ad576a2d6992ed7b88ac6dd6c5b6846983805cb0427c0e8a41335b22e8b93f60001b619ba7565b6103477f1f7ce69f3a12ace3ace288e4eaf2dc375ff9ad825d70123d8ddc3b3e2278ca1560001b619ba7565b6103737f8e1fe2551377b139dadb7648fa1673466d36144e02376204c389b3820ee4546460001b619ba7565b600060028111156103ad577f4e487b7100000000000000000000000000000000000000000000000000000000600052602160045260246000fd5b6003600083815260200190815260200160002060020160009054906101000a900460ff166002811115610409577f4e487b7100000000000000000000000000000000000000000000000000000000600052602160045260246000fd5b14610449576040517f08c379a00000000000000000000000000000000000000000000000000000000081526004016104409061a5df565b60405180910390fd5b6104757f33022e746519d961c33b01de9185a41573e4fc0c351141794fa8406e8a04020e60001b619ba7565b6104a17fdd81122a554767cfe179b98466e3d873f0a9c9262999538e6dd14c5df76a5edb60001b619ba7565b6104cd7fd39ad4e4da0d0a5325df22e87cc3141aa779daa0fe8b28832b0ff581d4ac5e7e60001b619ba7565b6104f97f0a9edcc9292ed53e3fcd9e2b3d287694cd5b4445e1fb439b6bd8a45e3a73566460001b619ba7565b60036000828152602001908152602001600020600101544210610551576040517f08c379a00000000000000000000000000000000000000000000000000000000081526004016105489061a6bf565b60405180910390fd5b61057d7f88de8a13c76a3a73aebe7a4c632ecedb37c29ed5874d34b4acc61bb5e7ff228860001b619ba7565b6105a97fcc203b25f9ee9b3e1555dae6fd15c5ac5bd91c845caadc809d660de83ad9f52f60001b619ba7565b6105d57f0f02331a4bd9b65227f1f92b981c65a3ebccff7cc05e538e4a263bce28be844160001b619ba7565b6106017f42ed41e6d0e7ff0cf04414d92fcc376bfb2199d51b93386368423fd01e624b5160001b619ba7565b61062d7fa02e431d18016abb130d447875908999c68d25c1dcbab9b52f2dd4172eb1b49060001b619ba7565b6000600360008481526020019081526020016000206040518060a00160405290816000820160009054906101000a900473ffffffffffffffffffffffffffffffffffffffff1673ffffffffffffffffffffffffffffffffffffffff1673ffffffffffffffffffffffffffffffffffffffff168152602001600182015481526020016002820160009054906101000a900460ff1660028111156106f8577f4e487b7100000000000000000000000000000000000000000000000000000000600052602160045260246000fd5b6002811115610730577f4e487b7100000000000000000000000000000000000000000000000000000000600052602160045260246000fd5b815260200160038201604051806101200160405290816000820160009054906101000a900460ff166002811115610790577f4e487b7100000000000000000000000000000000000000000000000000000000600052602160045260246000fd5b60028111156107c8577f4e487b7100000000000000000000000000000000000000000000000000000000600052602160045260246000fd5b81526020016000820160019054906101000a900473ffffffffffffffffffffffffffffffffffffffff1673ffffffffffffffffffffffffffffffffffffffff1673ffffffffffffffffffffffffffffffffffffffff1681526020016001820160009054906101000a900473ffffffffffffffffffffffffffffffffffffffff1673ffffffffffffffffffffffffffffffffffffffff1673ffffffffffffffffffffffffffffffffffffffff16815260200160028201548152602001600382015481526020016004820160009054906101000a900460ff1660018111156108d7577f4e487b7100000000000000000000000000000000000000000000000000000000600052602160045260246000fd5b600181111561090f577f4e487b7100000000000000000000000000000000000000000000000000000000600052602160045260246000fd5b81526020016004820160019054906101000a900460ff16600181111561095e577f4e487b7100000000000000000000000000000000000000000000000000000000600052602160045260246000fd5b6001811115610996577f4e487b7100000000000000000000000000000000000000000000000000000000600052602160045260246000fd5b81526020016004820160029054906101000a900460ff1660018111156109e5577f4e487b7100000000000000000000000000000000000000000000000000000000600052602160045260246000fd5b6001811115610a1d577f4e487b7100000000000000000000000000000000000000000000000000000000600052602160045260246000fd5b81526020016004820160039054906101000a900473ffffffffffffffffffffffffffffffffffffffff1673ffffffffffffffffffffffffffffffffffffffff1673ffffffffffffffffffffffffffffffffffffffff1681525050815260200160088201604051806101200160405290816000820160009054906101000a900460ff166002811115610ad7577f4e487b7100000000000000000000000000000000000000000000000000000000600052602160045260246000fd5b6002811115610b0f577f4e487b7100000000000000000000000000000000000000000000000000000000600052602160045260246000fd5b81526020016000820160019054906101000a900473ffffffffffffffffffffffffffffffffffffffff1673ffffffffffffffffffffffffffffffffffffffff1673ffffffffffffffffffffffffffffffffffffffff1681526020016001820160009054906101000a900473ffffffffffffffffffffffffffffffffffffffff1673ffffffffffffffffffffffffffffffffffffffff1673ffffffffffffffffffffffffffffffffffffffff16815260200160028201548152602001600382015481526020016004820160009054906101000a900460ff166001811115610c1e577f4e487b7100000000000000000000000000000000000000000000000000000000600052602160045260246000fd5b6001811115610c56577f4e487b7100000000000000000000000000000000000000000000000000000000600052602160045260246000fd5b81526020016004820160019054906101000a900460ff166001811115610ca5577f4e487b7100000000000000000000000000000000000000000000000000000000600052602160045260246000fd5b6001811115610cdd577f4e487b7100000000000000000000000000000000000000000000000000000000600052602160045260246000fd5b81526020016004820160029054906101000a900460ff166001811115610d2c577f4e487b7100000000000000000000000000000000000000000000000000000000600052602160045260246000fd5b6001811115610d64577f4e487b7100000000000000000000000000000000000000000000000000000000600052602160045260246000fd5b81526020016004820160039054906101000a900473ffffffffffffffffffffffffffffffffffffffff1673ffffffffffffffffffffffffffffffffffffffff1673ffffffffffffffffffffffffffffffffffffffff1681525050815250509050610df07f8a5a82ee2f570052ffd4bee51fc3cf4806cffb4e45f612ab2d9adabd9c7a62c860001b619ba7565b610e1c7fcb99b2dab63dd57b5d3631a24315aaeea8cc3359e1f37ff2f88656e3535d709b60001b619ba7565b80606001516020015173ffffffffffffffffffffffffffffffffffffffff163373ffffffffffffffffffffffffffffffffffffffff16141561184a57610e847fd27e1556927d798d7eefb9a29766228a42da73ffaa5dd28130877ead35f5601160001b619ba7565b610eb07f0edc3f0fa69d0b50f41ad5160f2db5499b31c44e392df979233f0ab9a36b2bff60001b619ba7565b610edc7fa57a645591c313cc0370e6f01398ec05fbd50ff86ebb0087225731e975c7d06160001b619ba7565b610f087f3cbf36659aa9b516efc926f55744ad80900330167a6929fa1fa0c56e0324ae3360001b619ba7565b60006001811115610f42577f4e487b7100000000000000000000000000000000000000000000000000000000600052602160045260246000fd5b816060015160a001516001811115610f83577f4e487b7100000000000000000000000000000000000000000000000000000000600052602160045260246000fd5b14610fc3576040517f08c379a0000000000000000000000000000000000000000000000000000000008152600401610fba9061a5bf565b60405180910390fd5b610fef7f28c7bb9276bb9f3587556130d4ebc1759f704fa9b06920bfc4fa5e45c7a5141f60001b619ba7565b61101b7f3faacf6e9ebe3383c0395c181cd6b2e0fcd61665598b38601f6d432dd98021d760001b619ba7565b6110477fc73b646323eaf1c85b134cdf24f0e3f4c27c21593804f1b1902ae76006eb28aa60001b619ba7565b60006002811115611081577f4e487b7100000000000000000000000000000000000000000000000000000000600052602160045260246000fd5b81606001516000015160028111156110c2577f4e487b7100000000000000000000000000000000000000000000000000000000600052602160045260246000fd5b1415611290576110f47fd059af2fbaa5c3da935c398e1d7fbb8c1a99f2367c2386af4eaa4516cfef508d60001b619ba7565b6111207fcf17a83b96f2dab5b0309faf4ba3e1735873d86c833db4a025835b57873cdeba60001b619ba7565b61114c7fb85276d7c57d2a2c6d2a6adef9dff4181e3351287cdf959f430d6ec3b56aae5a60001b619ba7565b80606001516040015173ffffffffffffffffffffffffffffffffffffffff166323b872dd33308460600151606001516040518463ffffffff1660e01b81526004016111999392919061a40a565b600060405180830381600087803b1580156111b357600080fd5b505af11580156111c7573d6000803e3d6000fd5b505050506111f77fc5157a31f87ea36a0a5b79740cfa2be66ab4452c101bc148d26f6cf1df346f7960001b619ba7565b6112237fb941d82bcb11824b24b7f2c6fd44e153c0a218ebd2a4482fedb18ad21b2f9dd760001b619ba7565b60016003600085815260200190815260200160002060030160040160006101000a81548160ff02191690836001811115611286577f4e487b7100000000000000000000000000000000000000000000000000000000600052602160045260246000fd5b0217905550611845565b6112bc7f52dc46f349ca871b0dd51153f5df23447fe0643af3aa66706f95d1a66d099ad360001b619ba7565b6112e87f6a6a6acaae7ec1d5c9902c146c275dc50ac6d21c7f231b26c1160d4cc6ced7a160001b619ba7565b60016002811115611322577f4e487b7100000000000000000000000000000000000000000000000000000000600052602160045260246000fd5b8160600151600001516002811115611363577f4e487b7100000000000000000000000000000000000000000000000000000000600052602160045260246000fd5b1415611552576113957fd1965990ed4d5afd3a7fd3db2f579ef903a2eb6a0a30652a2aaffad60feffc1460001b619ba7565b6113c17fa03b5fc8963881dcbdb8d5e747c45441278e088760f57fdc9f4ffb6605eab42f60001b619ba7565b6113ed7fbe026c5bcf2b9c12fa704b3a3308b2f1e462ea3960e7014a57e72bfca2c7f90860001b619ba7565b80606001516040015173ffffffffffffffffffffffffffffffffffffffff166323b872dd33308460600151608001516040518463ffffffff1660e01b815260040161143a9392919061a40a565b602060405180830381600087803b15801561145457600080fd5b505af1158015611468573d6000803e3d6000fd5b505050506040513d601f19601f8201168201806040525081019061148c9190619cf3565b506114b97f77f49d4a31bfe5e08b017235ee8588415c32ed7465b9271e7a440ae6944cbba660001b619ba7565b6114e57f0256f982bc535e50672fe50b63d8c8529be297ef5fe5d80341ba74fbe06ffdab60001b619ba7565b60016003600085815260200190815260200160002060030160040160006101000a81548160ff02191690836001811115611548577f4e487b7100000000000000000000000000000000000000000000000000000000600052602160045260246000fd5b0217905550611844565b61157e7fe05dda3297a358fe08e204fb4acc18cfe85213187360d9b10875d9a442e96d8360001b619ba7565b6115aa7f73b2d4171944c25de06f774ee1c2f3193ae33dc0bd2b9561759db60637b8415c60001b619ba7565b6002808111156115e3577f4e487b7100000000000000000000000000000000000000000000000000000000600052602160045260246000fd5b8160600151600001516002811115611624577f4e487b7100000000000000000000000000000000000000000000000000000000600052602160045260246000fd5b1415611816576116567ff4cb60851c4b416e48a5fe5bb20870b686086597a6c804ce1c0af48e58c31c0960001b619ba7565b6116827f2e1bf7f8c8dc6b2337f2c688d4170873ea388da214be5374939dea8b446d415460001b619ba7565b6116ae7f7d845ac424c9d50faa00ccb7fc4636a24678c1f1bf437ddbffb1d50240e2e85e60001b619ba7565b6116da7f963a4ed897f5d9f246e70629f01e1ed37e28dc78dd5748e6dcddfc58f06709b460001b619ba7565b806060015160800151341015611725576040517f08c379a000000000000000000000000000000000000000000000000000000000815260040161171c9061a6df565b60405180910390fd5b6117517f6e75c9d4d821154d2aff50ecb4c93816ab4d41157c2d8ad652118d89d3902b4b60001b619ba7565b61177d7f4f8e0ed88cfd25966cde126d536c61e29ed6e92149d71b13c8711a761e982a7560001b619ba7565b6117a97f44555a887003210d5b1fe99ad896c2cf764798c4d5f118d2651fd41cd86f815a60001b619ba7565b60016003600085815260200190815260200160002060030160040160006101000a81548160ff0219169083600181111561180c577f4e487b7100000000000000000000000000000000000000000000000000000000600052602160045260246000fd5b0217905550611843565b6118427f707831068b775c97fccec202ad1cff15b51c8a2d830036a0d5b38aa05543f62060001b619ba7565b5b5b5b6122e8565b6118767fcf2c2677664f266662896e689b12b6d8940177c49f7842d2f9396360a204a1bd60001b619ba7565b6118a27fadf7fd31ed9a37ec427281acf9220ead45d872d790736566608855e5a64e409060001b619ba7565b6118ce7fbb4124a083f063b3f0431f8338c3e1ae40de86441d910a1d2f93b31168811efa60001b619ba7565b6118fa7f8df8de4c81d227a7cf3b6610dfd3eba346d568affa4afc10225e2384b270da9a60001b619ba7565b60006001811115611934577f4e487b7100000000000000000000000000000000000000000000000000000000600052602160045260246000fd5b816080015160a001516001811115611975577f4e487b7100000000000000000000000000000000000000000000000000000000600052602160045260246000fd5b146119b5576040517f08c379a00000000000000000000000000000000000000000000000000000000081526004016119ac9061a5bf565b60405180910390fd5b6119e17f787c0c507cc6b6a01ee9916be7dd7defebe3793c55c180514244ea80e41a295b60001b619ba7565b611a0d7f2d024790c6477e9997c559125854fac1dbaa1b275c1cb17ad9333f692272fd9d60001b619ba7565b611a397fa1193f8afd048d4e24c66a778fe0020526ba7408f4fd4cee562ba27ddf1e07a160001b619ba7565b336003600085815260200190815260200160002060080160000160016101000a81548173ffffffffffffffffffffffffffffffffffffffff021916908373ffffffffffffffffffffffffffffffffffffffff160217905550611abd7f96dcc0a2cb26b42b41baa0ca80eb2024eba1408252470952c8ff4d46a364ea1e60001b619ba7565b611ae97f1a7c799143242477636ca4771f3dbcc4500cb75319d58b43cd2df4d9c67595ed60001b619ba7565b60006002811115611b23577f4e487b7100000000000000000000000000000000000000000000000000000000600052602160045260246000fd5b8160800151600001516002811115611b64577f4e487b7100000000000000000000000000000000000000000000000000000000600052602160045260246000fd5b1415611d3257611b967f907c16f7257fcf857217ecb72d320345910654b6343353e5fe141d7cb22a7f6960001b619ba7565b611bc27fcaa10094f9c77d79cbe07678364d2c36fced4bedfb48331c69a20c8a0f7c1a2560001b619ba7565b611bee7f3d319f2e2898747f4c078cf0e5d3ecbcd600611c15e2fefe02a2782905953b8460001b619ba7565b80608001516040015173ffffffffffffffffffffffffffffffffffffffff166323b872dd33308460800151606001516040518463ffffffff1660e01b8152600401611c3b9392919061a40a565b600060405180830381600087803b158015611c5557600080fd5b505af1158015611c69573d6000803e3d6000fd5b50505050611c997fe13c3815f0f5bbea23d1e9f0db6366b26489a52cd3cdf2b20e92ae3a64fc717560001b619ba7565b611cc57f72216226a0a2454565ecfa135ece00c901ca0471e3bb0a3bc7ad60d381774d5260001b619ba7565b60016003600085815260200190815260200160002060080160040160006101000a81548160ff02191690836001811115611d28577f4e487b7100000000000000000000000000000000000000000000000000000000600052602160045260246000fd5b02179055506122e7565b611d5e7f578cc01487f161ad88100423c5b9079099e5bec974e93bdcf5b9b79a8a52909360001b619ba7565b611d8a7f113a3d98aa1433d47f99f16e34ba249ecc78a42df4a85cdaf9b6ea8ecc9b385560001b619ba7565b60016002811115611dc4577f4e487b7100000000000000000000000000000000000000000000000000000000600052602160045260246000fd5b8160800151600001516002811115611e05577f4e487b7100000000000000000000000000000000000000000000000000000000600052602160045260246000fd5b1415611ff457611e377ffa9a01baf847ae4beae55fabf97df832c8fa6bdd2c8d4af843f87d5795eafd8c60001b619ba7565b611e637fd18592e8875b8a09998e86508e78a312e7a17fb83be16bdf12c97567c50e49a460001b619ba7565b611e8f7fc612a2f7eb85e20fad4a601c5f2667c80785a52c6977bd9d502777facfe699d060001b619ba7565b80608001516040015173ffffffffffffffffffffffffffffffffffffffff166323b872dd33308460800151608001516040518463ffffffff1660e01b8152600401611edc9392919061a40a565b602060405180830381600087803b158015611ef657600080fd5b505af1158015611f0a573d6000803e3d6000fd5b505050506040513d601f19601f82011682018060405250810190611f2e9190619cf3565b50611f5b7f1f1a895dfec9ab85994ccad440b70fafbd6f2671a709482bae9e2fe86cf99f7560001b619ba7565b611f877f3326f2a6a757621ada4e2f71f32fffad264a3e3b7613612c3c6bfae1ada79c2a60001b619ba7565b60016003600085815260200190815260200160002060080160040160006101000a81548160ff02191690836001811115611fea577f4e487b7100000000000000000000000000000000000000000000000000000000600052602160045260246000fd5b02179055506122e6565b6120207f6f9c589a01050919315bfa04c81af1bba842faf6f76a6586914c431e4f1fb8a260001b619ba7565b61204c7f47db03e5be2b34def5333539919605f5c4220eb6651421f16bfe60b0ba38a34060001b619ba7565b600280811115612085577f4e487b7100000000000000000000000000000000000000000000000000000000600052602160045260246000fd5b81608001516000015160028111156120c6577f4e487b7100000000000000000000000000000000000000000000000000000000600052602160045260246000fd5b14156122b8576120f87fc30595d8423c0e3165a0a65a80fd0f6263d9687da21987e23ad51d87463685ae60001b619ba7565b6121247f53dd733d13320f94c67cfc57d9e509d4d1082e84a733c97b50c7bed44013461260001b619ba7565b6121507f04896f462002492b84e73233c5ca9552d46b9ec0fcee0ae445677f20d24c438260001b619ba7565b61217c7f2dd7e007732ed68cc0a81e0436f35cb6a1a690e082eba8bdfe485fa4b12e9d5960001b619ba7565b8060800151608001513410156121c7576040517f08c379a00000000000000000000000000000000000000000000000000000000081526004016121be9061a6df565b60405180910390fd5b6121f37f4470818df3a64aea3d7c766a65c3fa55cd6035ece526cae10e1c6573a260a30b60001b619ba7565b61221f7f56d03a9fccf7585873be69accb7281730a6a5bcaa259b72cd82b95772d86b33360001b619ba7565b61224b7f1e351e5c8db2ab8812ca3352e5c92e04213658728fbd4eb5280ecc57b99c84e060001b619ba7565b60016003600085815260200190815260200160002060080160040160006101000a81548160ff021916908360018111156122ae577f4e487b7100000000000000000000000000000000000000000000000000000000600052602160045260246000fd5b02179055506122e5565b6122e47fcec5744fc51e151f9369911f9f7e5b5e2a6d55e65c684f1dcda1e4d1c64baf8d60001b619ba7565b5b5b5b5b505050565b6122f5619baa565b73ffffffffffffffffffffffffffffffffffffffff16612313614b95565b73ffffffffffffffffffffffffffffffffffffffff1614612369576040517f08c379a00000000000000000000000000000000000000000000000000000000081526004016123609061a61f565b60405180910390fd5b6123957fea4b9820828be7c61376f4cc81c0206b1f293bf3088841823a310de1aebe4a5260001b619ba7565b6123c17f52e443eeaf4bd4617058e9f4e1aff5351c0d98bede64829c72d7cfe84550ed3660001b619ba7565b6123ed7fd522da769b91850b18e96e243e3b8a7044c1f30a040d1de54309cf9e9de3c82760001b619ba7565b600047905061241e7f28a553b15dde9cd1d21b6e852e6a25354e5b25829d4f69141b25c8dbabae47a560001b619ba7565b61244a7f7c32e3c3ce7c12c23b828728cddb5ff33d554a382c9243eba8dc36a0161714f060001b619ba7565b6124767f12609c52a1c541e888f66ca6fe7f7ada9bfc3a8b09f59d42352851668a1abbf360001b619ba7565b600081116124b9576040517f08c379a00000000000000000000000000000000000000000000000000000000081526004016124b09061a69f565b60405180910390fd5b6124e57fc0cddda6d0d5f618f8ed802852f66ef9c0f79e18346d5dd551be4ecdc86f4cf160001b619ba7565b6125117f7932c43fab12872fa7a3935a92a3fc2defda4c05aa2cf8fdac8446953f08cc3860001b619ba7565b61253d7fec48a0366bd6adc8c5c43cf58be921b02174f5aecc48bc060bd8ba48f7c072ab60001b619ba7565b612545614b95565b73ffffffffffffffffffffffffffffffffffffffff166108fc829081150290604051600060405180830381858888f1935050505015801561258a573d6000803e3d6000fd5b5050565b60015481565b61259c619baa565b73ffffffffffffffffffffffffffffffffffffffff166125ba614b95565b73ffffffffffffffffffffffffffffffffffffffff1614612610576040517f08c379a00000000000000000000000000000000000000000000000000000000081526004016126079061a61f565b60405180910390fd5b61261a6000619bb2565b565b806126497ff305781557ea9cac350fb341e554a5dbee288dade81aa57e6078d60ded6c2c0760001b619ba7565b6126757f8a9a936c05abe4affdf8808369e50dba2980c4c56d3e7a3423c4431a5aefa53660001b619ba7565b6126a17f87809facaeeb8e3924d4da88dd7a268d6e5c7b72e4a7ea909c9ee3159febd30d60001b619ba7565b6126cd7f98bc5334f92347c89e60dea58073248f22889ed5c9ce114b806efea212cc3a6460001b619ba7565b6003600082815260200190815260200160002060030160000160019054906101000a900473ffffffffffffffffffffffffffffffffffffffff1673ffffffffffffffffffffffffffffffffffffffff16612725619baa565b73ffffffffffffffffffffffffffffffffffffffff1614806127b257506003600082815260200190815260200160002060080160000160019054906101000a900473ffffffffffffffffffffffffffffffffffffffff1673ffffffffffffffffffffffffffffffffffffffff1661279a619baa565b73ffffffffffffffffffffffffffffffffffffffff16145b6127f1576040517f08c379a00000000000000000000000000000000000000000000000000000000081526004016127e89061a5ff565b60405180910390fd5b61281d7f5b637aa460c45fea06fe865225606c68c6cd45868e1fedf448ecb147239041ee60001b619ba7565b6128497f3872ad57768d303f35f623b0907fbf37813fe87d4a0568ecf79099a3cf3afeea60001b619ba7565b816128767f424f2f6a09eb64cc2e5a3de2fad5d7d66bb4ac5305f5a1c399923b5afdba15ce60001b619ba7565b6128a27fa1ad576a2d6992ed7b88ac6dd6c5b6846983805cb0427c0e8a41335b22e8b93f60001b619ba7565b6128ce7f1f7ce69f3a12ace3ace288e4eaf2dc375ff9ad825d70123d8ddc3b3e2278ca1560001b619ba7565b6128fa7f8e1fe2551377b139dadb7648fa1673466d36144e02376204c389b3820ee4546460001b619ba7565b60006002811115612934577f4e487b7100000000000000000000000000000000000000000000000000000000600052602160045260246000fd5b6003600083815260200190815260200160002060020160009054906101000a900460ff166002811115612990577f4e487b7100000000000000000000000000000000000000000000000000000000600052602160045260246000fd5b146129d0576040517f08c379a00000000000000000000000000000000000000000000000000000000081526004016129c79061a5df565b60405180910390fd5b6129fc7f33022e746519d961c33b01de9185a41573e4fc0c351141794fa8406e8a04020e60001b619ba7565b612a287fdd81122a554767cfe179b98466e3d873f0a9c9262999538e6dd14c5df76a5edb60001b619ba7565b612a547fd39ad4e4da0d0a5325df22e87cc3141aa779daa0fe8b28832b0ff581d4ac5e7e60001b619ba7565b612a807f0a9edcc9292ed53e3fcd9e2b3d287694cd5b4445e1fb439b6bd8a45e3a73566460001b619ba7565b60036000828152602001908152602001600020600101544210612ad8576040517f08c379a0000000000000000000000000000000000000000000000000000000008152600401612acf9061a6bf565b60405180910390fd5b612b047f88de8a13c76a3a73aebe7a4c632ecedb37c29ed5874d34b4acc61bb5e7ff228860001b619ba7565b612b307fcc203b25f9ee9b3e1555dae6fd15c5ac5bd91c845caadc809d660de83ad9f52f60001b619ba7565b612b5c7fbe0d79ae7218deaab7704f2a5f14c29bb0ab11c9e8b1f5fc645c752d2c4b970060001b619ba7565b612b887f32f0665b2447e1a2615dc849ca5fa1e345dd5d5e6b24265ab071954c1421de2e60001b619ba7565b612bb47fb2fe9ea3dd98ec77331ff75ba7ba689a513b9ee49c6102b70d63d980676fbd9060001b619ba7565b6000600360008581526020019081526020016000206040518060a00160405290816000820160009054906101000a900473ffffffffffffffffffffffffffffffffffffffff1673ffffffffffffffffffffffffffffffffffffffff1673ffffffffffffffffffffffffffffffffffffffff168152602001600182015481526020016002820160009054906101000a900460ff166002811115612c7f577f4e487b7100000000000000000000000000000000000000000000000000000000600052602160045260246000fd5b6002811115612cb7577f4e487b7100000000000000000000000000000000000000000000000000000000600052602160045260246000fd5b815260200160038201604051806101200160405290816000820160009054906101000a900460ff166002811115612d17577f4e487b7100000000000000000000000000000000000000000000000000000000600052602160045260246000fd5b6002811115612d4f577f4e487b7100000000000000000000000000000000000000000000000000000000600052602160045260246000fd5b81526020016000820160019054906101000a900473ffffffffffffffffffffffffffffffffffffffff1673ffffffffffffffffffffffffffffffffffffffff1673ffffffffffffffffffffffffffffffffffffffff1681526020016001820160009054906101000a900473ffffffffffffffffffffffffffffffffffffffff1673ffffffffffffffffffffffffffffffffffffffff1673ffffffffffffffffffffffffffffffffffffffff16815260200160028201548152602001600382015481526020016004820160009054906101000a900460ff166001811115612e5e577f4e487b7100000000000000000000000000000000000000000000000000000000600052602160045260246000fd5b6001811115612e96577f4e487b7100000000000000000000000000000000000000000000000000000000600052602160045260246000fd5b81526020016004820160019054906101000a900460ff166001811115612ee5577f4e487b7100000000000000000000000000000000000000000000000000000000600052602160045260246000fd5b6001811115612f1d577f4e487b7100000000000000000000000000000000000000000000000000000000600052602160045260246000fd5b81526020016004820160029054906101000a900460ff166001811115612f6c577f4e487b7100000000000000000000000000000000000000000000000000000000600052602160045260246000fd5b6001811115612fa4577f4e487b7100000000000000000000000000000000000000000000000000000000600052602160045260246000fd5b81526020016004820160039054906101000a900473ffffffffffffffffffffffffffffffffffffffff1673ffffffffffffffffffffffffffffffffffffffff1673ffffffffffffffffffffffffffffffffffffffff1681525050815260200160088201604051806101200160405290816000820160009054906101000a900460ff16600281111561305e577f4e487b7100000000000000000000000000000000000000000000000000000000600052602160045260246000fd5b6002811115613096577f4e487b7100000000000000000000000000000000000000000000000000000000600052602160045260246000fd5b81526020016000820160019054906101000a900473ffffffffffffffffffffffffffffffffffffffff1673ffffffffffffffffffffffffffffffffffffffff1673ffffffffffffffffffffffffffffffffffffffff1681526020016001820160009054906101000a900473ffffffffffffffffffffffffffffffffffffffff1673ffffffffffffffffffffffffffffffffffffffff1673ffffffffffffffffffffffffffffffffffffffff16815260200160028201548152602001600382015481526020016004820160009054906101000a900460ff1660018111156131a5577f4e487b7100000000000000000000000000000000000000000000000000000000600052602160045260246000fd5b60018111156131dd577f4e487b7100000000000000000000000000000000000000000000000000000000600052602160045260246000fd5b81526020016004820160019054906101000a900460ff16600181111561322c577f4e487b7100000000000000000000000000000000000000000000000000000000600052602160045260246000fd5b6001811115613264577f4e487b7100000000000000000000000000000000000000000000000000000000600052602160045260246000fd5b81526020016004820160029054906101000a900460ff1660018111156132b3577f4e487b7100000000000000000000000000000000000000000000000000000000600052602160045260246000fd5b60018111156132eb577f4e487b7100000000000000000000000000000000000000000000000000000000600052602160045260246000fd5b81526020016004820160039054906101000a900473ffffffffffffffffffffffffffffffffffffffff1673ffffffffffffffffffffffffffffffffffffffff1673ffffffffffffffffffffffffffffffffffffffff16815250508152505090506133777f3773008c691102cd1410e464fae1c618c944b450481fe079034494c2e34d6dbb60001b619ba7565b6133a37f3741e1dc1bb7d6f779a69ea468305e070dac0a2d006b5d727fc34bb2e149b38360001b619ba7565b80606001516020015173ffffffffffffffffffffffffffffffffffffffff163373ffffffffffffffffffffffffffffffffffffffff1614156139985761340b7f1a04dd379c1956181be2c48b8ec1851f8de747339a566e066c610caa7c39a72f60001b619ba7565b6134377f7ee62a82ab7608dc9ab6f695b304e21eedab48bdddae2579a1cc3e07b1c4d5dd60001b619ba7565b6134637f4bd5ef2c8dc454a205288ac584f96707c3c8b42afd14e48afa55e2e124e66d4260001b619ba7565b61348f7f044c67ac3e0e4cfc0f4a9c24307719f28518dff2c3bd37547bfdf9905cf7ab5760001b619ba7565b6001808111156134c8577f4e487b7100000000000000000000000000000000000000000000000000000000600052602160045260246000fd5b816060015160a001516001811115613509577f4e487b7100000000000000000000000000000000000000000000000000000000600052602160045260246000fd5b14613549576040517f08c379a00000000000000000000000000000000000000000000000000000000081526004016135409061a4bf565b60405180910390fd5b6135757f65131f0a4edd686311013b8f27c58fedd32618e6bf54eff0ab7708ef8ee2724e60001b619ba7565b6135a17fc03c0cd501d67a901de7dcbdad21535574d6d56898caa3965c1607a2de573b4260001b619ba7565b6135cd7f2d16b9e1aef04b686d328272a8a4ef4e6830a54567735848da7259076c89fdee60001b619ba7565b6135f97f8ffcf9bd410f14af79a572062fad2d6448b2b27c1b6af3d515fcf87c477dbfa560001b619ba7565b60006001811115613633577f4e487b7100000000000000000000000000000000000000000000000000000000600052602160045260246000fd5b816060015160c001516001811115613674577f4e487b7100000000000000000000000000000000000000000000000000000000600052602160045260246000fd5b146136b4576040517f08c379a00000000000000000000000000000000000000000000000000000000081526004016136ab9061a65f565b60405180910390fd5b6136e07fc0e8821b6a562203b7d7f2da96cfcbddb668832457dd49d56732279684c139d960001b619ba7565b61370c7f4ac7cf3a8c1cb5f92deb2df5b3002ed3d4930c7a3ee5b33c24f4694fc15e2d9c60001b619ba7565b6137387fa2b612971b4a62106ffe55166249a825acb683419aec65107abb1148942a896460001b619ba7565b60016003600086815260200190815260200160002060030160040160016101000a81548160ff0219169083600181111561379b577f4e487b7100000000000000000000000000000000000000000000000000000000600052602160045260246000fd5b02179055506137cc7f3572a861f9e22ba809d1d6ba24c337fd40e59396d550d9ddaaec168653e6286060001b619ba7565b6137f87f0b201ae2ffa200a14c4c521aba28e283914dd7d56c239b62c9ac83edd41f122960001b619ba7565b600180811115613831577f4e487b7100000000000000000000000000000000000000000000000000000000600052602160045260246000fd5b816080015160c001516001811115613872577f4e487b7100000000000000000000000000000000000000000000000000000000600052602160045260246000fd5b1415613966576138a47fdd4f51df7a874f0561638272d4b59387f184c74d9c56b36b86bd1ec1e235a5cb60001b619ba7565b6138d07f87bca606a5a562eab78902ecc7cdba223f844a0506f8612527c89f4e054edd4260001b619ba7565b6138fc7f6289f337d21e789759f43993e54562e80b19f8d3b665d0d6030ecfa5c8d6b7cc60001b619ba7565b60016003600086815260200190815260200160002060020160006101000a81548160ff0219169083600281111561395c577f4e487b7100000000000000000000000000000000000000000000000000000000600052602160045260246000fd5b0217905550613993565b6139927fd4e0a7ae81534f3b523d94c8217bb6324562990f1530e9638b0e2df3685edcdd60001b619ba7565b5b614013565b6139c47f5aacc021c119e86175a8a900de45e30a269c169bdea249272648278d5bdf88b460001b619ba7565b6139f07f140fbfdaec47cbb9326e8ffaf514c7e396f4a721ab7ddeaca6ff617e1ed7c7b060001b619ba7565b80608001516020015173ffffffffffffffffffffffffffffffffffffffff163373ffffffffffffffffffffffffffffffffffffffff161415613fe557613a587f75b4e7a5bd2baecda4bc7e84e5ab79e855b8c309830a4d478fede8231abfd94360001b619ba7565b613a847fc9621a5e9badd9610de21eed7b30758378e5bd475488043ae341e2560443ee5b60001b619ba7565b613ab07f243dbd831f0672948f52541f95188415b7f5c56eb0bec89a67ddb80866faba2560001b619ba7565b613adc7fcf894ac4baa28112974458834869c06802c9e2843a8db65aa949ea24b8068f2f60001b619ba7565b600180811115613b15577f4e487b7100000000000000000000000000000000000000000000000000000000600052602160045260246000fd5b816080015160a001516001811115613b56577f4e487b7100000000000000000000000000000000000000000000000000000000600052602160045260246000fd5b14613b96576040517f08c379a0000000000000000000000000000000000000000000000000000000008152600401613b8d9061a4bf565b60405180910390fd5b613bc27fe4cdefa6be88b6e0cc71ba604d801416ecc309b185ea660d35abb0c93662e74460001b619ba7565b613bee7f300df90a35b4f62b830d333dba0116dc308e099e6ecc6df0a9168e36b900ee8260001b619ba7565b613c1a7f51c689b417d671c7f3aca75b610d39fd16b34b0a32aaaf835ec74628d72ea75660001b619ba7565b613c467fc2d8c0ca4e86448a67c876133cafb3cd554c999963e9c24bd15dd2ee5501b25660001b619ba7565b60006001811115613c80577f4e487b7100000000000000000000000000000000000000000000000000000000600052602160045260246000fd5b816080015160c001516001811115613cc1577f4e487b7100000000000000000000000000000000000000000000000000000000600052602160045260246000fd5b14613d01576040517f08c379a0000000000000000000000000000000000000000000000000000000008152600401613cf89061a65f565b60405180910390fd5b613d2d7f46eebfc8f23ebc95d4469501151afa282cebbfa692643370ad4751e7aef7244860001b619ba7565b613d597f9767c847b4db309617f7603d513e5259cce5d340a79eed45d8877a881f73d00960001b619ba7565b613d857fe88395b0059f41cff40394f3ace5cf191b6b95c9fa552945709a691d4ebf189c60001b619ba7565b60016003600086815260200190815260200160002060080160040160016101000a81548160ff02191690836001811115613de8577f4e487b7100000000000000000000000000000000000000000000000000000000600052602160045260246000fd5b0217905550613e197fc7c18df9026999c60ef16a913dd6ebae17e73e887daa8b923b44c41c9df1fe2060001b619ba7565b613e457f495fb9a5468305a5434a91ae5f51a1f1a789f8a601f8c1422d87ba8a7d4755d760001b619ba7565b600180811115613e7e577f4e487b7100000000000000000000000000000000000000000000000000000000600052602160045260246000fd5b816060015160c001516001811115613ebf577f4e487b7100000000000000000000000000000000000000000000000000000000600052602160045260246000fd5b1415613fb357613ef17ff93d9280fda3193a814a2fc9e2382dc0cfd772797999e104b5763e5ff4a602db60001b619ba7565b613f1d7f55eef2fe76be4d6fe56e6627728c9d5c66c1192a9043825ba805875c18bb524160001b619ba7565b613f497f1cf5b6f8fba6bce33d13aff93f086f473234611d6afb45b34a4ccf16d906293f60001b619ba7565b60016003600086815260200190815260200160002060020160006101000a81548160ff02191690836002811115613fa9577f4e487b7100000000000000000000000000000000000000000000000000000000600052602160045260246000fd5b0217905550613fe0565b613fdf7f10b93f7d5dde5f82aeafdc3a7f1a29783114a9a05978b5d303a24aaf0594c42960001b619ba7565b5b614012565b6140117f988497acab474375690d20774572391981191d50e320ec600e8c63c5815c638e60001b619ba7565b5b5b50505050565b6140457fed46c9bea0c05f8a65d381b8ed000aca071d30ce1ff3bd7997f48d1c06a463ad60001b619ba7565b6140717f117566e03f0cbf3d2e3dca9b932b2a591e5f8ea64dfd9b8c4090fbf29eb23d8460001b619ba7565b61409d7fabcbfe73379861e4efd7744c29f479fbdda2a51db848948555046a84c595263c60001b619ba7565b6140c97fa51f44aa86ab5739f5729ba58a873f2922f2e583b5a10287c3ec26fcd0472c1a60001b619ba7565b60025434101561410e576040517f08c379a00000000000000000000000000000000000000000000000000000000081526004016141059061a4ff565b60405180910390fd5b61413a7f1c51d7c88b16af352eb89a03ad1ca68919952b34f500308da413fb2167006dc060001b619ba7565b6141667f598bd7e8e631fee6a5a15904d71ad46aa38f1bd130e4692d342d6708a015298560001b619ba7565b600160008154809291906141799061a82c565b91905055506141aa7ffab9b1a2a109a4256f21c32002781b378f8e976d05ac92dfc8ff870c7591cbc460001b619ba7565b6141d67fd10510c1a4f9727293d26bf4553b4aaa5fb3be4ab602910ae5791cc3b0a9e11360001b619ba7565b60006040518061012001604052808b600281111561421d577f4e487b7100000000000000000000000000000000000000000000000000000000600052602160045260246000fd5b81526020013373ffffffffffffffffffffffffffffffffffffffff1681526020018a73ffffffffffffffffffffffffffffffffffffffff168152602001898152602001888152602001600060018111156142a0577f4e487b7100000000000000000000000000000000000000000000000000000000600052602160045260246000fd5b8152602001600060018111156142df577f4e487b7100000000000000000000000000000000000000000000000000000000600052602160045260246000fd5b81526020016000600181111561431e577f4e487b7100000000000000000000000000000000000000000000000000000000600052602160045260246000fd5b8152602001600073ffffffffffffffffffffffffffffffffffffffff16815250905061436c7fc5a24cb8706559bc37c267d3fefab2e4101a25d89c1f1d4e96e63c643fa94cae60001b619ba7565b6143987f75116f442d77fcbec989da1cb4463a41292576ba45bfb419aaf28965b87e161760001b619ba7565b60006040518061012001604052808860028111156143df577f4e487b7100000000000000000000000000000000000000000000000000000000600052602160045260246000fd5b8152602001600073ffffffffffffffffffffffffffffffffffffffff1681526020018773ffffffffffffffffffffffffffffffffffffffff16815260200186815260200185815260200160006001811115614463577f4e487b7100000000000000000000000000000000000000000000000000000000600052602160045260246000fd5b8152602001600060018111156144a2577f4e487b7100000000000000000000000000000000000000000000000000000000600052602160045260246000fd5b8152602001600060018111156144e1577f4e487b7100000000000000000000000000000000000000000000000000000000600052602160045260246000fd5b8152602001600073ffffffffffffffffffffffffffffffffffffffff16815250905061452f7fa9a2c40b6e2549c6e7045006b0721315619f4bbea528f66259236a5397ef600460001b619ba7565b61455b7f91c55bebaa435acdeec347d6b5ca9ba6ac83e18f226849f5764f158816c6c71b60001b619ba7565b60006040518060a001604052803373ffffffffffffffffffffffffffffffffffffffff168152602001858152602001600060028111156145c4577f4e487b7100000000000000000000000000000000000000000000000000000000600052602160045260246000fd5b81526020018481526020018381525090506146017f19c19d2656a6d8ed0baf2484e4a68041bb2987b7e095c87a08fc4e37c3058b8060001b619ba7565b61462d7f6d96846a06f7526504a3f837d4a256cffe8d29aaac29e0116363feab2f7317c860001b619ba7565b8060036000600154815260200190815260200160002060008201518160000160006101000a81548173ffffffffffffffffffffffffffffffffffffffff021916908373ffffffffffffffffffffffffffffffffffffffff1602179055506020820151816001015560408201518160020160006101000a81548160ff021916908360028111156146e5577f4e487b7100000000000000000000000000000000000000000000000000000000600052602160045260246000fd5b021790555060608201518160030160008201518160000160006101000a81548160ff02191690836002811115614744577f4e487b7100000000000000000000000000000000000000000000000000000000600052602160045260246000fd5b021790555060208201518160000160016101000a81548173ffffffffffffffffffffffffffffffffffffffff021916908373ffffffffffffffffffffffffffffffffffffffff16021790555060408201518160010160006101000a81548173ffffffffffffffffffffffffffffffffffffffff021916908373ffffffffffffffffffffffffffffffffffffffff160217905550606082015181600201556080820151816003015560a08201518160040160006101000a81548160ff0219169083600181111561483c577f4e487b7100000000000000000000000000000000000000000000000000000000600052602160045260246000fd5b021790555060c08201518160040160016101000a81548160ff02191690836001811115614892577f4e487b7100000000000000000000000000000000000000000000000000000000600052602160045260246000fd5b021790555060e08201518160040160026101000a81548160ff021916908360018111156148e8577f4e487b7100000000000000000000000000000000000000000000000000000000600052602160045260246000fd5b02179055506101008201518160040160036101000a81548173ffffffffffffffffffffffffffffffffffffffff021916908373ffffffffffffffffffffffffffffffffffffffff160217905550505060808201518160080160008201518160000160006101000a81548160ff02191690836002811115614991577f4e487b7100000000000000000000000000000000000000000000000000000000600052602160045260246000fd5b021790555060208201518160000160016101000a81548173ffffffffffffffffffffffffffffffffffffffff021916908373ffffffffffffffffffffffffffffffffffffffff16021790555060408201518160010160006101000a81548173ffffffffffffffffffffffffffffffffffffffff021916908373ffffffffffffffffffffffffffffffffffffffff160217905550606082015181600201556080820151816003015560a08201518160040160006101000a81548160ff02191690836001811115614a89577f4e487b7100000000000000000000000000000000000000000000000000000000600052602160045260246000fd5b021790555060c08201518160040160016101000a81548160ff02191690836001811115614adf577f4e487b7100000000000000000000000000000000000000000000000000000000600052602160045260246000fd5b021790555060e08201518160040160026101000a81548160ff02191690836001811115614b35577f4e487b7100000000000000000000000000000000000000000000000000000000600052602160045260246000fd5b02179055506101008201518160040160036101000a81548173ffffffffffffffffffffffffffffffffffffffff021916908373ffffffffffffffffffffffffffffffffffffffff1602179055505050905050505050505050505050505050565b60008060009054906101000a900473ffffffffffffffffffffffffffffffffffffffff16905090565b80614beb7ff305781557ea9cac350fb341e554a5dbee288dade81aa57e6078d60ded6c2c0760001b619ba7565b614c177f8a9a936c05abe4affdf8808369e50dba2980c4c56d3e7a3423c4431a5aefa53660001b619ba7565b614c437f87809facaeeb8e3924d4da88dd7a268d6e5c7b72e4a7ea909c9ee3159febd30d60001b619ba7565b614c6f7f98bc5334f92347c89e60dea58073248f22889ed5c9ce114b806efea212cc3a6460001b619ba7565b6003600082815260200190815260200160002060030160000160019054906101000a900473ffffffffffffffffffffffffffffffffffffffff1673ffffffffffffffffffffffffffffffffffffffff16614cc7619baa565b73ffffffffffffffffffffffffffffffffffffffff161480614d5457506003600082815260200190815260200160002060080160000160019054906101000a900473ffffffffffffffffffffffffffffffffffffffff1673ffffffffffffffffffffffffffffffffffffffff16614d3c619baa565b73ffffffffffffffffffffffffffffffffffffffff16145b614d93576040517f08c379a0000000000000000000000000000000000000000000000000000000008152600401614d8a9061a5ff565b60405180910390fd5b614dbf7f5b637aa460c45fea06fe865225606c68c6cd45868e1fedf448ecb147239041ee60001b619ba7565b614deb7f3872ad57768d303f35f623b0907fbf37813fe87d4a0568ecf79099a3cf3afeea60001b619ba7565b614e177fe92049df8737b5e196a8df9d7b7bdc41a013f5d4a1fbd635948646b23d68b9fb60001b619ba7565b614e437f08b2352260b0fccfb9a90a6958b5d22a91049876f674f14ffda9303d6676cb1960001b619ba7565b614e6f7fa40761344b448c327306a17abc1dc7496f8f9bab7f6333bc62459731336e991f60001b619ba7565b60036000838152602001908152602001600020600101544210614f7a57614eb87fca8f49a30440e522cd12516abc620aaed08df587b1d3a80440106d4da4b6730d60001b619ba7565b614ee47f89562a27e7e071ae6a931fbbb07211a818439be7ec52f2abe9c0a296ad1c221360001b619ba7565b614f107f75f65f71ebd4bbb15bd3b99725f338e34e0d42df1e7e796bb9565332b34d821760001b619ba7565b60026003600084815260200190815260200160002060020160006101000a81548160ff02191690836002811115614f70577f4e487b7100000000000000000000000000000000000000000000000000000000600052602160045260246000fd5b0217905550614fa7565b614fa67f15d8729a94b564d3e52ae79f7467d09240066e3811181301ba232a6b70ccd04460001b619ba7565b5b614fd37f3341e3ae1cc25e326a61b9e9bb92420dfc2892bc6ea0596a436a41fffd7b8b1360001b619ba7565b614fff7fc88c2d62125eb397f2d3b320f8d7dd49dfbd4ca66fe2a08b147469d8b8624b4f60001b619ba7565b6000600360008481526020019081526020016000206040518060a00160405290816000820160009054906101000a900473ffffffffffffffffffffffffffffffffffffffff1673ffffffffffffffffffffffffffffffffffffffff1673ffffffffffffffffffffffffffffffffffffffff168152602001600182015481526020016002820160009054906101000a900460ff1660028111156150ca577f4e487b7100000000000000000000000000000000000000000000000000000000600052602160045260246000fd5b6002811115615102577f4e487b7100000000000000000000000000000000000000000000000000000000600052602160045260246000fd5b815260200160038201604051806101200160405290816000820160009054906101000a900460ff166002811115615162577f4e487b7100000000000000000000000000000000000000000000000000000000600052602160045260246000fd5b600281111561519a577f4e487b7100000000000000000000000000000000000000000000000000000000600052602160045260246000fd5b81526020016000820160019054906101000a900473ffffffffffffffffffffffffffffffffffffffff1673ffffffffffffffffffffffffffffffffffffffff1673ffffffffffffffffffffffffffffffffffffffff1681526020016001820160009054906101000a900473ffffffffffffffffffffffffffffffffffffffff1673ffffffffffffffffffffffffffffffffffffffff1673ffffffffffffffffffffffffffffffffffffffff16815260200160028201548152602001600382015481526020016004820160009054906101000a900460ff1660018111156152a9577f4e487b7100000000000000000000000000000000000000000000000000000000600052602160045260246000fd5b60018111156152e1577f4e487b7100000000000000000000000000000000000000000000000000000000600052602160045260246000fd5b81526020016004820160019054906101000a900460ff166001811115615330577f4e487b7100000000000000000000000000000000000000000000000000000000600052602160045260246000fd5b6001811115615368577f4e487b7100000000000000000000000000000000000000000000000000000000600052602160045260246000fd5b81526020016004820160029054906101000a900460ff1660018111156153b7577f4e487b7100000000000000000000000000000000000000000000000000000000600052602160045260246000fd5b60018111156153ef577f4e487b7100000000000000000000000000000000000000000000000000000000600052602160045260246000fd5b81526020016004820160039054906101000a900473ffffffffffffffffffffffffffffffffffffffff1673ffffffffffffffffffffffffffffffffffffffff1673ffffffffffffffffffffffffffffffffffffffff1681525050815260200160088201604051806101200160405290816000820160009054906101000a900460ff1660028111156154a9577f4e487b7100000000000000000000000000000000000000000000000000000000600052602160045260246000fd5b60028111156154e1577f4e487b7100000000000000000000000000000000000000000000000000000000600052602160045260246000fd5b81526020016000820160019054906101000a900473ffffffffffffffffffffffffffffffffffffffff1673ffffffffffffffffffffffffffffffffffffffff1673ffffffffffffffffffffffffffffffffffffffff1681526020016001820160009054906101000a900473ffffffffffffffffffffffffffffffffffffffff1673ffffffffffffffffffffffffffffffffffffffff1673ffffffffffffffffffffffffffffffffffffffff16815260200160028201548152602001600382015481526020016004820160009054906101000a900460ff1660018111156155f0577f4e487b7100000000000000000000000000000000000000000000000000000000600052602160045260246000fd5b6001811115615628577f4e487b7100000000000000000000000000000000000000000000000000000000600052602160045260246000fd5b81526020016004820160019054906101000a900460ff166001811115615677577f4e487b7100000000000000000000000000000000000000000000000000000000600052602160045260246000fd5b60018111156156af577f4e487b7100000000000000000000000000000000000000000000000000000000600052602160045260246000fd5b81526020016004820160029054906101000a900460ff1660018111156156fe577f4e487b7100000000000000000000000000000000000000000000000000000000600052602160045260246000fd5b6001811115615736577f4e487b7100000000000000000000000000000000000000000000000000000000600052602160045260246000fd5b81526020016004820160039054906101000a900473ffffffffffffffffffffffffffffffffffffffff1673ffffffffffffffffffffffffffffffffffffffff1673ffffffffffffffffffffffffffffffffffffffff16815250508152505090506157c27ff57c6f09fe8ffc6e55c63cbfdbf46e023b9a3ddd53467873c0144962aafb82c960001b619ba7565b6157ee7f8a1dfdca4c645164b97f376fdaa4a8bf11dc9a14e231f227e69286fa0faada2860001b619ba7565b61581a7ff9c75d419a6f0221156bc34553b10249392df3bb210edbc7cd23a947e1a64a7760001b619ba7565b60006002811115615854577f4e487b7100000000000000000000000000000000000000000000000000000000600052602160045260246000fd5b81604001516002811115615891577f4e487b7100000000000000000000000000000000000000000000000000000000600052602160045260246000fd5b14156158d2576040517f08c379a00000000000000000000000000000000000000000000000000000000081526004016158c99061a4df565b60405180910390fd5b6158fe7fd56c64447a8283e304a3c3769d4cff895d23a488a622e5624f6228981945c50e60001b619ba7565b61592a7f4a05c154f18f4e41620f854be1eff284a1bc8b6c4e79c27f5739f4bb24585a3660001b619ba7565b6159567f47fa0876ee324e36da0cc3710bc87fa64c602216b9951b159fed0d82bfec5ce760001b619ba7565b80606001516020015173ffffffffffffffffffffffffffffffffffffffff163373ffffffffffffffffffffffffffffffffffffffff161415616df9576159be7fbc9d1941063e39fb9941de88778af88441f16cf7c9f66485b5f2de0ae7d939f560001b619ba7565b6159ea7f4a7b468d1380da56ccfba8625f48161ac830eb0a87c7686a1f16d84b02a78ed560001b619ba7565b615a167fc9be93b6c386e3e9bc68ae4bcf8f90be62f40e514a8947fa5f04aa173b5fac3460001b619ba7565b60016002811115615a50577f4e487b7100000000000000000000000000000000000000000000000000000000600052602160045260246000fd5b81604001516002811115615a8d577f4e487b7100000000000000000000000000000000000000000000000000000000600052602160045260246000fd5b14156161fc57615abf7fe0eb48f91ff669ce54f991e19df44dac859cc79d3d3dde9091f5710ad581c47c60001b619ba7565b615aeb7feeae0c58ded045cfd83d988927d35a8d7dde252c999b604788452c08d7a6216560001b619ba7565b615b177f1034e366f5103c1a695636ca187d9d9fcccc3b28be2ec95dbf757cf5e717526760001b619ba7565b336003600085815260200190815260200160002060080160040160036101000a81548173ffffffffffffffffffffffffffffffffffffffff021916908373ffffffffffffffffffffffffffffffffffffffff160217905550615b9b7f4f707255a0c2ffbed76afac8c623e1c195675a1c5179f98123ac0e6da8840f9f60001b619ba7565b615bc77f69b13ee4f6fba16c66ee07f2331e6a7982ecf0ae1061a54d1ac0dc7c43f1179660001b619ba7565b60016003600085815260200190815260200160002060080160040160026101000a81548160ff02191690836001811115615c2a577f4e487b7100000000000000000000000000000000000000000000000000000000600052602160045260246000fd5b0217905550615c5b7fd7d22ef81195ecec9b458d9f3f1d2f0948e363b8d184e599ed9f5470887bc8f260001b619ba7565b615c877f94fe6b98e0824f6b48117e634ca262c9a1cebf26b74fcea997f6998eb98f169c60001b619ba7565b60006002811115615cc1577f4e487b7100000000000000000000000000000000000000000000000000000000600052602160045260246000fd5b8160800151600001516002811115615d02577f4e487b7100000000000000000000000000000000000000000000000000000000600052602160045260246000fd5b1415615e1057615d347f35a034826393fd05d2e0b67ff802920a2110085d3b655b624b5113df0c02ea2560001b619ba7565b615d607fb65f76755e4ce6aa54d828fd13edbc41aa7e77b606826b406790ef99d75989c860001b619ba7565b615d8c7f2220f5d94ba1a104d8aaf074b0607b4b560c78345ae99969b7cd7c5c030605ee60001b619ba7565b80608001516040015173ffffffffffffffffffffffffffffffffffffffff166323b872dd30338460800151606001516040518463ffffffff1660e01b8152600401615dd99392919061a40a565b600060405180830381600087803b158015615df357600080fd5b505af1158015615e07573d6000803e3d6000fd5b505050506161f7565b615e3c7f4a3956ecd73a22165e1ac891220fbbe1bf2b61f9d6fb6ae271ac5ef4aef77e5f60001b619ba7565b615e687f7ddb5cfe46430fba0c48ffe14125d91e82741737fb0b61dd1a8714db7bcebcfb60001b619ba7565b60016002811115615ea2577f4e487b7100000000000000000000000000000000000000000000000000000000600052602160045260246000fd5b8160800151600001516002811115615ee3577f4e487b7100000000000000000000000000000000000000000000000000000000600052602160045260246000fd5b141561601057615f157fc25afe59fa2d60bb7363fba2ed1f66958bd3813df0267b1a166f4bb2c60f75d560001b619ba7565b615f417f210eb5d11f680a94e557268199597938de244cf046d4fca12299a31b41e1890760001b619ba7565b615f6d7fede09acda114944332cc92930444e2d13ef86dd31b74ffe72c8d30c8f776ef2360001b619ba7565b80608001516040015173ffffffffffffffffffffffffffffffffffffffff1663a9059cbb338360800151608001516040518363ffffffff1660e01b8152600401615fb892919061a441565b602060405180830381600087803b158015615fd257600080fd5b505af1158015615fe6573d6000803e3d6000fd5b505050506040513d601f19601f8201168201806040525081019061600a9190619cf3565b506161f6565b61603c7fe19808372bd533f68665797d41b5629be137fa2d223a5f35a4c4fd442997a46360001b619ba7565b6160687f234cba97407263aaa85b9d38da2d4d38a6ad8d29409c3521b3ee8397b900174760001b619ba7565b6002808111156160a1577f4e487b7100000000000000000000000000000000000000000000000000000000600052602160045260246000fd5b81608001516000015160028111156160e2577f4e487b7100000000000000000000000000000000000000000000000000000000600052602160045260246000fd5b14156161c8576161147f3aa3fc1c3dbe4f3662abe3a5421c2874208279b232d040912a6c781c1a52db6d60001b619ba7565b6161407f1e56ba74e9fcd94f3ba4956d3110685e261f93d712aa3b81b3555397616ab96060001b619ba7565b61616c7fdca26efa7806e3318d1e59c1f2accb322e8b0e035be7f7404e1654ff5a54ac4e60001b619ba7565b80606001516020015173ffffffffffffffffffffffffffffffffffffffff166108fc8260800151608001519081150290604051600060405180830381858888f193505050501580156161c2573d6000803e3d6000fd5b506161f5565b6161f47f42078e194eb9ce984ca384cd9b54483acde756def5589b08c69c7ad1896d237360001b619ba7565b5b5b5b616df4565b6162287f1b1614ea90cdfdb90ed5084337cf05cedabf79da347c77b8742487593a121eb960001b619ba7565b6162547f559292a0c5130b169d8ba5db836707ffeb2425744ad58a56757b72f245ae024160001b619ba7565b60028081111561628d577f4e487b7100000000000000000000000000000000000000000000000000000000600052602160045260246000fd5b816040015160028111156162ca577f4e487b7100000000000000000000000000000000000000000000000000000000600052602160045260246000fd5b1415616b55576162fc7f1de0a71682dd100cb9bafe27b0ea92f00d8288f4473de250fe79c7e196f85c1760001b619ba7565b6163287f6f79d52435da191d9538a8537ea98382aef2cf70b48b00ed90d0376d20e9d32360001b619ba7565b6163547f7e7217d01c2b34d3ff1919b247343172b9d88fcbad5ed9e72453c5207b346d1660001b619ba7565b6163807fc1962dd05454ec33136e3b1e1918c7b3929311e6d2c770749b692b5ff17d521860001b619ba7565b6001808111156163b9577f4e487b7100000000000000000000000000000000000000000000000000000000600052602160045260246000fd5b816060015160a0015160018111156163fa577f4e487b7100000000000000000000000000000000000000000000000000000000600052602160045260246000fd5b1461643a576040517f08c379a00000000000000000000000000000000000000000000000000000000081526004016164319061a53f565b60405180910390fd5b6164667f50816c71b2add169df265bf6101ada61431922f092d99ddd62541856f1bde94060001b619ba7565b6164927f3c65eb540529d883fcc7e02232ad4d6e8f907f3d83e4c10878764f4f3210dfe260001b619ba7565b6164be7fe66a089019b47fc5c5786805c08a047db378d99d0e0de37d9ef8deb5388e299960001b619ba7565b6164ea7fc2195b12d5c918cc5ea63ec0bd34aa8634d552385bfaabae2f249e671b55093e60001b619ba7565b60006001811115616524577f4e487b7100000000000000000000000000000000000000000000000000000000600052602160045260246000fd5b816060015160e001516001811115616565577f4e487b7100000000000000000000000000000000000000000000000000000000600052602160045260246000fd5b146165a5576040517f08c379a000000000000000000000000000000000000000000000000000000000815260040161659c9061a63f565b60405180910390fd5b6165d17f98db563341a44f0e2b54c1963935f6814a9a6a1b670ec6077e2b9e851b1e1c4660001b619ba7565b6165fd7f02e9a5945d689974144c6986daabb357fdecbb7147025396450d343bf205a89760001b619ba7565b6166297f3be3f6c097c52da763147b41ea4dafd8b7cfb83b816d7c9f5ff7843ce9673e2060001b619ba7565b336003600085815260200190815260200160002060030160040160036101000a81548173ffffffffffffffffffffffffffffffffffffffff021916908373ffffffffffffffffffffffffffffffffffffffff1602179055506166ad7f2808ea32ad6f3978681d9fc553a13a54557202a61121c982f88d4e0991a3b1cd60001b619ba7565b6166d97f5d17b4a232f7a04fe7c81913a4394d34c2d60d35872561766b3d9731ff35961460001b619ba7565b60016003600085815260200190815260200160002060030160040160026101000a81548160ff0219169083600181111561673c577f4e487b7100000000000000000000000000000000000000000000000000000000600052602160045260246000fd5b021790555061676d7f32cfb048d80186f2cd73073fa6d01126a4f42e806e59942f6bd45c9cfa71a65c60001b619ba7565b6167997f84a7430044526c89e344402cd8cdde638971e2e7650b5d7a22f4d81deafb8de260001b619ba7565b600060028111156167d3577f4e487b7100000000000000000000000000000000000000000000000000000000600052602160045260246000fd5b8160600151600001516002811115616814577f4e487b7100000000000000000000000000000000000000000000000000000000600052602160045260246000fd5b1415616922576168467f32a58819f21ee1a974a710cf8038641ccc54884e772b4b384d1a4fa2e097b69a60001b619ba7565b6168727f2fbc6b2987c97fe0274345b10b71748de03425268a60b3683408b9a4aee2532c60001b619ba7565b61689e7f553bfa7ca9ec0e059657e7401ac59d9fcee85c23d78f7c2fc006107d0651238f60001b619ba7565b80606001516040015173ffffffffffffffffffffffffffffffffffffffff166323b872dd30338460600151606001516040518463ffffffff1660e01b81526004016168eb9392919061a40a565b600060405180830381600087803b15801561690557600080fd5b505af1158015616919573d6000803e3d6000fd5b50505050616b50565b61694e7f7632d288dd0e4ad31528164c89c1294c9a0aedc6e07cd4b1dc1eb4240f39cb4660001b619ba7565b61697a7f57c4f73f03e63e48b6d987446f13d990b81057947ae2aec599d2bd3b5d8faf2f60001b619ba7565b600160028111156169b4577f4e487b7100000000000000000000000000000000000000000000000000000000600052602160045260246000fd5b81606001516000015160028111156169f5577f4e487b7100000000000000000000000000000000000000000000000000000000600052602160045260246000fd5b1415616b2257616a277fce9213e15a3eb556889a9d1210bb82eb51eb0c816500d97aafc2ffe941405c8560001b619ba7565b616a537f07197daf7865356dd950143b52212e2b82edd84c72a8a6a8d3130d14f96582f460001b619ba7565b616a7f7f6cffbcf0226a5a2ad13988fda6b80e7024371c90ccb1c71a2bf89127cd34d6c860001b619ba7565b80606001516040015173ffffffffffffffffffffffffffffffffffffffff1663a9059cbb338360600151608001516040518363ffffffff1660e01b8152600401616aca92919061a441565b602060405180830381600087803b158015616ae457600080fd5b505af1158015616af8573d6000803e3d6000fd5b505050506040513d601f19601f82011682018060405250810190616b1c9190619cf3565b50616b4f565b616b4e7f93b81e7b4774fe54ce61500ae2d6fb44c9e395714168ed8bfcfa323b70f65ad960001b619ba7565b5b5b616df3565b616b817f35b425e4e3841150d8cf758b074bcfd8e34b79a3be16690e6df84467a7f7e22560001b619ba7565b616bad7ffe843d13464c6f77d9f6a08f26d83cf23145dca274e23d0de5bfe6d55941418a60001b619ba7565b60006002811115616be7577f4e487b7100000000000000000000000000000000000000000000000000000000600052602160045260246000fd5b81604001516002811115616c24577f4e487b7100000000000000000000000000000000000000000000000000000000600052602160045260246000fd5b1415616dc557616c567f6bcc27573f0e255519de6cb5942efa9beb5977227ce1e066f794670b6235e5ab60001b619ba7565b616c827f09c7d7a58d54b173cb5d000f322f4ae44e1d497240cd8ee76cc37d1ba75efb7160001b619ba7565b616cae7f750ab7d041224e6ad34350b1524074e6c18bde493cee3829c7a5c85abc1dee2560001b619ba7565b616cda7fbb107959141af3ef71846d5e227d448766492e1d97883c9c678ec200a9e3295960001b619ba7565b600180811115616d13577f4e487b7100000000000000000000000000000000000000000000000000000000600052602160045260246000fd5b816060015160a001516001811115616d54577f4e487b7100000000000000000000000000000000000000000000000000000000600052602160045260246000fd5b14616d94576040517f08c379a0000000000000000000000000000000000000000000000000000000008152600401616d8b9061a53f565b60405180910390fd5b616dc07f6f4763428a6a6e11d435b1504b7755feb7b0bd62cc1da500d41f3fe22b81f85360001b619ba7565b616df2565b616df17fb6609ec13ee76c99c739d4bb45da7b8440c499f2418df6dd326c77e36a07e26c60001b619ba7565b5b5b5b61826a565b616e257fb7e5d5ffecde0a8a26599f24b20b361c76d466bb28981da99999c37cb2f3e90a60001b619ba7565b616e517f83ad2105f84d3d5c512fe1a357063413af5393ed879aaf9285ef90fe4943d79660001b619ba7565b80608001516020015173ffffffffffffffffffffffffffffffffffffffff163373ffffffffffffffffffffffffffffffffffffffff16141561823c57616eb97f23be0434a3efc2c5de686e89b63a9d603496c8b799625637b36455e8ef8710c060001b619ba7565b616ee57f9b97597e6aa2097680080ff8d672e4783a4d5379c39e240ecae64589f3c98d6660001b619ba7565b616f117fd687c7e620d0568cbfb964a2e0502e3915c2c8fff6701405aaedea16bb71288660001b619ba7565b60016002811115616f4b577f4e487b7100000000000000000000000000000000000000000000000000000000600052602160045260246000fd5b81604001516002811115616f88577f4e487b7100000000000000000000000000000000000000000000000000000000600052602160045260246000fd5b14156176f757616fba7f8620345dee2a8810436e4d8b602e4d090dd90d29eabfead599c83996983ebe9360001b619ba7565b616fe67f37bd21fd11e3e0232fae11a41bec9985d486c04149db6514fb395171cefb9a7860001b619ba7565b6170127fa0e6c114b6941e03988c04861f7f1b87f6816ba2544dd768dce55961d2c5e61c60001b619ba7565b336003600085815260200190815260200160002060030160040160036101000a81548173ffffffffffffffffffffffffffffffffffffffff021916908373ffffffffffffffffffffffffffffffffffffffff1602179055506170967f25e43ba8eb36fec382273743cdb8d804881f4649c83f80033c376cf71c924aaa60001b619ba7565b6170c27f864dd96976e8030739fa5ad907b91effacb4153d6349580cc7c45fac20371dd460001b619ba7565b60016003600085815260200190815260200160002060030160040160026101000a81548160ff02191690836001811115617125577f4e487b7100000000000000000000000000000000000000000000000000000000600052602160045260246000fd5b02179055506171567ffcee376926592e9d3fe7edd8005476c4351caab71718c528e5100cc67ffc8e6b60001b619ba7565b6171827fb0513700ba4337d1c10e2717936f9ca5a4e00801f1792f7a181de2c83fa8404a60001b619ba7565b600060028111156171bc577f4e487b7100000000000000000000000000000000000000000000000000000000600052602160045260246000fd5b81606001516000015160028111156171fd577f4e487b7100000000000000000000000000000000000000000000000000000000600052602160045260246000fd5b141561730b5761722f7fefb425e7cb171d849aed0ed8a0e0e1c3adf241161918e505c28629aa383a81ae60001b619ba7565b61725b7fac7c597680ff95547dd8ad078267aa4be2f995a1603d308d01baf37308ed869960001b619ba7565b6172877f3e451f73a4b6275c4713b2ca0dca7466b18ee4126c81af85f2ff5c3a4be24ba560001b619ba7565b80606001516040015173ffffffffffffffffffffffffffffffffffffffff166323b872dd30338460600151606001516040518463ffffffff1660e01b81526004016172d49392919061a40a565b600060405180830381600087803b1580156172ee57600080fd5b505af1158015617302573d6000803e3d6000fd5b505050506176f2565b6173377f39233720228636a77cae075eaea6cec6a060e8302082a90d26d5f0021794659f60001b619ba7565b6173637f4c2d004b9d9aebbda79e838012090b8b0d56318b55f289aa51f8f3cc7b24383860001b619ba7565b6001600281111561739d577f4e487b7100000000000000000000000000000000000000000000000000000000600052602160045260246000fd5b81606001516000015160028111156173de577f4e487b7100000000000000000000000000000000000000000000000000000000600052602160045260246000fd5b141561750b576174107f7581744faa1293729a479fc8fd14b86b9f6732322404afc2496fb56d58ddf4f060001b619ba7565b61743c7f9e8efe1e5e00f441d938c289b2425dfadd7cba44bd20e5450c063ff938a2236660001b619ba7565b6174687f7d9b60777685dd617e7daeafe7a10ed354f1dff71a1ce4acb031eb8296b5a27160001b619ba7565b80606001516040015173ffffffffffffffffffffffffffffffffffffffff1663a9059cbb338360600151608001516040518363ffffffff1660e01b81526004016174b392919061a441565b602060405180830381600087803b1580156174cd57600080fd5b505af11580156174e1573d6000803e3d6000fd5b505050506040513d601f19601f820116820180604052508101906175059190619cf3565b506176f1565b6175377f88817fb9d08cf93f71cd2cdb093f6af2a915656b65ff2f15d9cea3591c1a320660001b619ba7565b6175637fcaf6a3853f8a41ac17b3fd472790497920fe1d8f8df475f47719f3ffb97beb1e60001b619ba7565b60028081111561759c577f4e487b7100000000000000000000000000000000000000000000000000000000600052602160045260246000fd5b81606001516000015160028111156175dd577f4e487b7100000000000000000000000000000000000000000000000000000000600052602160045260246000fd5b14156176c35761760f7fbfeb511dfb6c1e14ff1a4ddc15ff75bfc9fb3fd8418d30608f57a186326d803a60001b619ba7565b61763b7f274dbd0c9fe69d2c87d6aae3a7b755fd49638ea8b772456c06f5bb42ebaa4b7860001b619ba7565b6176677f870222c780035340ab6ca8da9ae4c84a1495070d671ec8a6b5ba2272a9a06f5860001b619ba7565b80608001516020015173ffffffffffffffffffffffffffffffffffffffff166108fc8260600151608001519081150290604051600060405180830381858888f193505050501580156176bd573d6000803e3d6000fd5b506176f0565b6176ef7f14a17a4086a4c13be16579c76315df4c5e12a0cc72d0f462ee8e1dc350c449a660001b619ba7565b5b5b5b618237565b6177237f357b781727567c3c95a901b9fd1fa75cb2868e2c10228eee8836ff2f0bcaaff760001b619ba7565b61774f7f67cc04971e4496908cd63e189ee53ca8f694b0a6958c87c94905a99d552a45f460001b619ba7565b600280811115617788577f4e487b7100000000000000000000000000000000000000000000000000000000600052602160045260246000fd5b816040015160028111156177c5577f4e487b7100000000000000000000000000000000000000000000000000000000600052602160045260246000fd5b1415618209576177f77f35df6f6d9fb70bc99c26051e6977cbae6d350a74e612018a864e8bafac23616c60001b619ba7565b6178237fca1e49a71a9d251219e8473735b8f543c15b781b23a4de57f5513714d6c23cf160001b619ba7565b61784f7f9ef4c382faa12b1c806dc74052901ccbf190761222b80bef0f67b7a674b4198160001b619ba7565b61787b7fc38798dd30dc9907f68ebbd13a79916e5ebaa740b63c1dc252a2a22d05bee28860001b619ba7565b600060018111156178b5577f4e487b7100000000000000000000000000000000000000000000000000000000600052602160045260246000fd5b816080015160e0015160018111156178f6577f4e487b7100000000000000000000000000000000000000000000000000000000600052602160045260246000fd5b14617936576040517f08c379a000000000000000000000000000000000000000000000000000000000815260040161792d9061a55f565b60405180910390fd5b6179627f7c2c2ce0328eb677b273fb06bb017e6fd5750dd18eeb15aadd9d873081ca7c4b60001b619ba7565b61798e7f177ad358b0caf11a71021ebc4b98aa9e839bde989db04e8c626f2ee756ecae7c60001b619ba7565b6179ba7ff7ec854f01a1f7e713eaf28ebf7fd1822f856f8f298b091fe6ba50b718129c0960001b619ba7565b6179e67fbcd35bdd1bdadbec29d7ae473e92c2d22ffe6133ca3a685783e717f503cecbce60001b619ba7565b600180811115617a1f577f4e487b7100000000000000000000000000000000000000000000000000000000600052602160045260246000fd5b816080015160a001516001811115617a60577f4e487b7100000000000000000000000000000000000000000000000000000000600052602160045260246000fd5b14617aa0576040517f08c379a0000000000000000000000000000000000000000000000000000000008152600401617a979061a57f565b60405180910390fd5b617acc7f91defe3e3d5f58e8b55309b7f26ed47bc48fdecd1eaad918b8d197a9a023134360001b619ba7565b617af87f234654b2b577cb5ee2348b9e0814fd5acda5981a874078ce12c9ec96e3e4ce4360001b619ba7565b617b247f38455cefab49e2f7dace9e38735d606b5c3634ba0c69aef13346778dfb9f182560001b619ba7565b60016003600085815260200190815260200160002060080160040160026101000a81548160ff02191690836001811115617b87577f4e487b7100000000000000000000000000000000000000000000000000000000600052602160045260246000fd5b0217905550617bb87f462ec12f8a98263f255959bb31a1ac3b6ec7bfc295f1cffe4c6f4c6493cd620460001b619ba7565b617be47f9f789dce4681ffdfe764984c6634f9a8e7bc0d7681ee6b674bc77e64b3f72dab60001b619ba7565b336003600085815260200190815260200160002060080160040160036101000a81548173ffffffffffffffffffffffffffffffffffffffff021916908373ffffffffffffffffffffffffffffffffffffffff160217905550617c687f102fded933fee1d7de13a510b96d5ba2936ec00388fe69a71c7180d47de9a03360001b619ba7565b617c947fd7398943beb2f60d7294328ca89b5bd4c118331cc0812aba245324769613e07260001b619ba7565b60006002811115617cce577f4e487b7100000000000000000000000000000000000000000000000000000000600052602160045260246000fd5b8160800151600001516002811115617d0f577f4e487b7100000000000000000000000000000000000000000000000000000000600052602160045260246000fd5b1415617e1d57617d417fa78b498e63de424d3aaba99c5e093deedf14b8d7bba966909ba8c52253a8967960001b619ba7565b617d6d7f84ace979a1293d84a4874809809ee22daa329f120d9f1cd59a6ee2a46b6871e660001b619ba7565b617d997f4e2ddf40f0687eeed9622e7379c2016c5716adc49da24303eb026a9b299bfb7260001b619ba7565b80608001516040015173ffffffffffffffffffffffffffffffffffffffff166323b872dd30338460800151606001516040518463ffffffff1660e01b8152600401617de69392919061a40a565b600060405180830381600087803b158015617e0057600080fd5b505af1158015617e14573d6000803e3d6000fd5b50505050618204565b617e497fef3280a28a846b948531849689ce1e8ed8bb953db8e8035d983524d88ca19dfb60001b619ba7565b617e757f247b4d0a5e216b05e852f9397158a70f784d2e63cb42570b7583fe2ec34b9d1860001b619ba7565b60016002811115617eaf577f4e487b7100000000000000000000000000000000000000000000000000000000600052602160045260246000fd5b8160800151600001516002811115617ef0577f4e487b7100000000000000000000000000000000000000000000000000000000600052602160045260246000fd5b141561801d57617f227f0e2c15ec35aa81482d67b1ce5ce461f27b946914cec55013d4da68e4464dfcea60001b619ba7565b617f4e7f19b6ffaa59f409c2c441bf5ea9ee56b05cdf644c025de9e30881d184d133897d60001b619ba7565b617f7a7f29ebc9a78ef18e37a265830733a97fb057c01df87b333d24481ec731cef4fa2760001b619ba7565b80608001516040015173ffffffffffffffffffffffffffffffffffffffff1663a9059cbb338360800151608001516040518363ffffffff1660e01b8152600401617fc592919061a441565b602060405180830381600087803b158015617fdf57600080fd5b505af1158015617ff3573d6000803e3d6000fd5b505050506040513d601f19601f820116820180604052508101906180179190619cf3565b50618203565b6180497f99f91071b592dba14dc856ffa8c44d84f9a30b5905f3ea07a7c316d7099a34ec60001b619ba7565b6180757f3827cd0808650b3a0e3acccc42648188e0cc7367411c1e858d99853ffa06e9f260001b619ba7565b6002808111156180ae577f4e487b7100000000000000000000000000000000000000000000000000000000600052602160045260246000fd5b81608001516000015160028111156180ef577f4e487b7100000000000000000000000000000000000000000000000000000000600052602160045260246000fd5b14156181d5576181217fa1a2a61b03886a854b2a8ff1ebdf116062f9bb49ab18fddd054e27a0ba07792460001b619ba7565b61814d7fdc15e72a31020a45ce9aebc74368c7cd17335080e554a40ea5564a7ba779ce0f60001b619ba7565b6181797fd55f5debbf54db1a7bd796fc7c2664990aacc0b573e348a47d5c10618809025060001b619ba7565b80608001516020015173ffffffffffffffffffffffffffffffffffffffff166108fc8260800151608001519081150290604051600060405180830381858888f193505050501580156181cf573d6000803e3d6000fd5b50618202565b6182017f6ff696aa0d1c16674a63401ae979187f3ed8a5f6a42cb9316998a38e5a729ce660001b619ba7565b5b5b5b618236565b6182357f176f40144f8b332bbbab13bbfe23b82cba4c11e86daaa9e5aa23e9e935f3c26b60001b619ba7565b5b5b618269565b6182687f5754933bbacf72fdb3ddb0e999dca6c37de38fd2e972e3d6253bd1be4113bf0060001b619ba7565b5b5b505050565b8061829c7ff31873c88f130406b0dd816604aeb172129eb3613f7470b92e74fb52c680919c60001b619ba7565b6182c87fac111e7e5025b9f0c074519dac6f5a62948a59dec9f92f5343785ff2b6213f5360001b619ba7565b6182f47fbbcddfe5a701ab2036a676a820ef4c528eb9294c9ce396c7e05c992ce54f7c6d60001b619ba7565b6183207f9248535b1d8101d18955e623c80191c4cce85ca14dbfe5f6581cd411ddad029960001b619ba7565b6003600082815260200190815260200160002060000160009054906101000a900473ffffffffffffffffffffffffffffffffffffffff1673ffffffffffffffffffffffffffffffffffffffff16618375619baa565b73ffffffffffffffffffffffffffffffffffffffff16146183cb576040517f08c379a00000000000000000000000000000000000000000000000000000000081526004016183c29061a5ff565b60405180910390fd5b6183f77f481e6dd611c62e005d01a25d9c2267b627c58244d9919e9a2f39f9e2d72c8f9560001b619ba7565b6184237f689667a3fb7d84605c1a398cd6d110301a43a56ee58a982ed3b306ad9650ecc560001b619ba7565b816184507f424f2f6a09eb64cc2e5a3de2fad5d7d66bb4ac5305f5a1c399923b5afdba15ce60001b619ba7565b61847c7fa1ad576a2d6992ed7b88ac6dd6c5b6846983805cb0427c0e8a41335b22e8b93f60001b619ba7565b6184a87f1f7ce69f3a12ace3ace288e4eaf2dc375ff9ad825d70123d8ddc3b3e2278ca1560001b619ba7565b6184d47f8e1fe2551377b139dadb7648fa1673466d36144e02376204c389b3820ee4546460001b619ba7565b6000600281111561850e577f4e487b7100000000000000000000000000000000000000000000000000000000600052602160045260246000fd5b6003600083815260200190815260200160002060020160009054906101000a900460ff16600281111561856a577f4e487b7100000000000000000000000000000000000000000000000000000000600052602160045260246000fd5b146185aa576040517f08c379a00000000000000000000000000000000000000000000000000000000081526004016185a19061a5df565b60405180910390fd5b6185d67f33022e746519d961c33b01de9185a41573e4fc0c351141794fa8406e8a04020e60001b619ba7565b6186027fdd81122a554767cfe179b98466e3d873f0a9c9262999538e6dd14c5df76a5edb60001b619ba7565b61862e7fd39ad4e4da0d0a5325df22e87cc3141aa779daa0fe8b28832b0ff581d4ac5e7e60001b619ba7565b61865a7f0a9edcc9292ed53e3fcd9e2b3d287694cd5b4445e1fb439b6bd8a45e3a73566460001b619ba7565b600360008281526020019081526020016000206001015442106186b2576040517f08c379a00000000000000000000000000000000000000000000000000000000081526004016186a99061a6bf565b60405180910390fd5b6186de7f88de8a13c76a3a73aebe7a4c632ecedb37c29ed5874d34b4acc61bb5e7ff228860001b619ba7565b61870a7fcc203b25f9ee9b3e1555dae6fd15c5ac5bd91c845caadc809d660de83ad9f52f60001b619ba7565b6187367fa55a57402fde3d13761bb4fa3c947bc4c58a964ce71ad50dd3d5f72678b6ec7e60001b619ba7565b6187627f6989f6f434ad775e3560fb99e3ca219a287e0697603cf5838ee411592c40495e60001b619ba7565b61878e7f275a99e4029bb33bfc42854e9839384053484cffe5568926b420c68baabbaee760001b619ba7565b6000600360008581526020019081526020016000206040518060a00160405290816000820160009054906101000a900473ffffffffffffffffffffffffffffffffffffffff1673ffffffffffffffffffffffffffffffffffffffff1673ffffffffffffffffffffffffffffffffffffffff168152602001600182015481526020016002820160009054906101000a900460ff166002811115618859577f4e487b7100000000000000000000000000000000000000000000000000000000600052602160045260246000fd5b6002811115618891577f4e487b7100000000000000000000000000000000000000000000000000000000600052602160045260246000fd5b815260200160038201604051806101200160405290816000820160009054906101000a900460ff1660028111156188f1577f4e487b7100000000000000000000000000000000000000000000000000000000600052602160045260246000fd5b6002811115618929577f4e487b7100000000000000000000000000000000000000000000000000000000600052602160045260246000fd5b81526020016000820160019054906101000a900473ffffffffffffffffffffffffffffffffffffffff1673ffffffffffffffffffffffffffffffffffffffff1673ffffffffffffffffffffffffffffffffffffffff1681526020016001820160009054906101000a900473ffffffffffffffffffffffffffffffffffffffff1673ffffffffffffffffffffffffffffffffffffffff1673ffffffffffffffffffffffffffffffffffffffff16815260200160028201548152602001600382015481526020016004820160009054906101000a900460ff166001811115618a38577f4e487b7100000000000000000000000000000000000000000000000000000000600052602160045260246000fd5b6001811115618a70577f4e487b7100000000000000000000000000000000000000000000000000000000600052602160045260246000fd5b81526020016004820160019054906101000a900460ff166001811115618abf577f4e487b7100000000000000000000000000000000000000000000000000000000600052602160045260246000fd5b6001811115618af7577f4e487b7100000000000000000000000000000000000000000000000000000000600052602160045260246000fd5b81526020016004820160029054906101000a900460ff166001811115618b46577f4e487b7100000000000000000000000000000000000000000000000000000000600052602160045260246000fd5b6001811115618b7e577f4e487b7100000000000000000000000000000000000000000000000000000000600052602160045260246000fd5b81526020016004820160039054906101000a900473ffffffffffffffffffffffffffffffffffffffff1673ffffffffffffffffffffffffffffffffffffffff1673ffffffffffffffffffffffffffffffffffffffff1681525050815260200160088201604051806101200160405290816000820160009054906101000a900460ff166002811115618c38577f4e487b7100000000000000000000000000000000000000000000000000000000600052602160045260246000fd5b6002811115618c70577f4e487b7100000000000000000000000000000000000000000000000000000000600052602160045260246000fd5b81526020016000820160019054906101000a900473ffffffffffffffffffffffffffffffffffffffff1673ffffffffffffffffffffffffffffffffffffffff1673ffffffffffffffffffffffffffffffffffffffff1681526020016001820160009054906101000a900473ffffffffffffffffffffffffffffffffffffffff1673ffffffffffffffffffffffffffffffffffffffff1673ffffffffffffffffffffffffffffffffffffffff16815260200160028201548152602001600382015481526020016004820160009054906101000a900460ff166001811115618d7f577f4e487b7100000000000000000000000000000000000000000000000000000000600052602160045260246000fd5b6001811115618db7577f4e487b7100000000000000000000000000000000000000000000000000000000600052602160045260246000fd5b81526020016004820160019054906101000a900460ff166001811115618e06577f4e487b7100000000000000000000000000000000000000000000000000000000600052602160045260246000fd5b6001811115618e3e577f4e487b7100000000000000000000000000000000000000000000000000000000600052602160045260246000fd5b81526020016004820160029054906101000a900460ff166001811115618e8d577f4e487b7100000000000000000000000000000000000000000000000000000000600052602160045260246000fd5b6001811115618ec5577f4e487b7100000000000000000000000000000000000000000000000000000000600052602160045260246000fd5b81526020016004820160039054906101000a900473ffffffffffffffffffffffffffffffffffffffff1673ffffffffffffffffffffffffffffffffffffffff1673ffffffffffffffffffffffffffffffffffffffff1681525050815250509050618f517fc064565391564065a1e57933840fc48924a9f903b67d37b2fe02e332652d098860001b619ba7565b618f7d7fa32f342f91b804e01efa142b74c7b0217c9098522648012e29f7d7ec9b406a5560001b619ba7565b618fa97f24abc9b57a79573ff07fce809d4c614e172fc4d99b68d791796aecaca33b550160001b619ba7565b60006001811115618fe3577f4e487b7100000000000000000000000000000000000000000000000000000000600052602160045260246000fd5b816060015160c001516001811115619024577f4e487b7100000000000000000000000000000000000000000000000000000000600052602160045260246000fd5b14806190a8575060006001811115619065577f4e487b7100000000000000000000000000000000000000000000000000000000600052602160045260246000fd5b816080015160c0015160018111156190a6577f4e487b7100000000000000000000000000000000000000000000000000000000600052602160045260246000fd5b145b6190e7576040517f08c379a00000000000000000000000000000000000000000000000000000000081526004016190de9061a59f565b60405180910390fd5b6191137fb3a3ebf370056dedbcde27acc652b71f2f03a967083202c1f51ce507d406183960001b619ba7565b61913f7f09f02fb14074b87d4a4de409c2cb4fb68184fcee4d597933ab456c1851b407e760001b619ba7565b61916b7f8c979421d5df7d112473d4241a3dc0f88b4ac2a7161e5a177e0ff3cce517dc1860001b619ba7565b60026003600086815260200190815260200160002060020160006101000a81548160ff021916908360028111156191cb577f4e487b7100000000000000000000000000000000000000000000000000000000600052602160045260246000fd5b021790555050505050565b6191de619baa565b73ffffffffffffffffffffffffffffffffffffffff166191fc614b95565b73ffffffffffffffffffffffffffffffffffffffff1614619252576040517f08c379a00000000000000000000000000000000000000000000000000000000081526004016192499061a61f565b60405180910390fd5b61927e7f39079c241bd4e9754952dc0d96349e325e6ba93ce9cfcee3fb08c332eb96bd3e60001b619ba7565b6192aa7feef828a5e29224899314db966745cf4b7ff5a755ce7cd43337ffea33ca8a262460001b619ba7565b6192d67f938626a5d83903c7cfce649db02b4b8ba8821a9e24e677530a12d67538768ae560001b619ba7565b6193017e2d5eeab20445d9d2a7ff67eaedc06db59a14f978671cdab4b95b9aa5108ed560001b619ba7565b60008111619344576040517f08c379a000000000000000000000000000000000000000000000000000000000815260040161933b9061a67f565b60405180910390fd5b6193707f3b128a62fc91c32331265fc30dc47785a4ecd8e21bf7d8829acd1e05a9bc0af060001b619ba7565b61939c7f0e6099b110c058355235363bea6967a2ab16defe15cef3cd4647e7247c6e200260001b619ba7565b6193c87f9126fffc3b35d9c5f6fa9fc3a7945f2d41529b96dd339559d198c92297fb76c860001b619ba7565b8060028190555050565b60036020528060005260406000206000915090508060000160009054906101000a900473ffffffffffffffffffffffffffffffffffffffff16908060010154908060020160009054906101000a900460ff169080600301604051806101200160405290816000820160009054906101000a900460ff166002811115619480577f4e487b7100000000000000000000000000000000000000000000000000000000600052602160045260246000fd5b60028111156194b8577f4e487b7100000000000000000000000000000000000000000000000000000000600052602160045260246000fd5b81526020016000820160019054906101000a900473ffffffffffffffffffffffffffffffffffffffff1673ffffffffffffffffffffffffffffffffffffffff1673ffffffffffffffffffffffffffffffffffffffff1681526020016001820160009054906101000a900473ffffffffffffffffffffffffffffffffffffffff1673ffffffffffffffffffffffffffffffffffffffff1673ffffffffffffffffffffffffffffffffffffffff16815260200160028201548152602001600382015481526020016004820160009054906101000a900460ff1660018111156195c7577f4e487b7100000000000000000000000000000000000000000000000000000000600052602160045260246000fd5b60018111156195ff577f4e487b7100000000000000000000000000000000000000000000000000000000600052602160045260246000fd5b81526020016004820160019054906101000a900460ff16600181111561964e577f4e487b7100000000000000000000000000000000000000000000000000000000600052602160045260246000fd5b6001811115619686577f4e487b7100000000000000000000000000000000000000000000000000000000600052602160045260246000fd5b81526020016004820160029054906101000a900460ff1660018111156196d5577f4e487b7100000000000000000000000000000000000000000000000000000000600052602160045260246000fd5b600181111561970d577f4e487b7100000000000000000000000000000000000000000000000000000000600052602160045260246000fd5b81526020016004820160039054906101000a900473ffffffffffffffffffffffffffffffffffffffff1673ffffffffffffffffffffffffffffffffffffffff1673ffffffffffffffffffffffffffffffffffffffff16815250509080600801604051806101200160405290816000820160009054906101000a900460ff1660028111156197c3577f4e487b7100000000000000000000000000000000000000000000000000000000600052602160045260246000fd5b60028111156197fb577f4e487b7100000000000000000000000000000000000000000000000000000000600052602160045260246000fd5b81526020016000820160019054906101000a900473ffffffffffffffffffffffffffffffffffffffff1673ffffffffffffffffffffffffffffffffffffffff1673ffffffffffffffffffffffffffffffffffffffff1681526020016001820160009054906101000a900473ffffffffffffffffffffffffffffffffffffffff1673ffffffffffffffffffffffffffffffffffffffff1673ffffffffffffffffffffffffffffffffffffffff16815260200160028201548152602001600382015481526020016004820160009054906101000a900460ff16600181111561990a577f4e487b7100000000000000000000000000000000000000000000000000000000600052602160045260246000fd5b6001811115619942577f4e487b7100000000000000000000000000000000000000000000000000000000600052602160045260246000fd5b81526020016004820160019054906101000a900460ff166001811115619991577f4e487b7100000000000000000000000000000000000000000000000000000000600052602160045260246000fd5b60018111156199c9577f4e487b7100000000000000000000000000000000000000000000000000000000600052602160045260246000fd5b81526020016004820160029054906101000a900460ff166001811115619a18577f4e487b7100000000000000000000000000000000000000000000000000000000600052602160045260246000fd5b6001811115619a50577f4e487b7100000000000000000000000000000000000000000000000000000000600052602160045260246000fd5b81526020016004820160039054906101000a900473ffffffffffffffffffffffffffffffffffffffff1673ffffffffffffffffffffffffffffffffffffffff1673ffffffffffffffffffffffffffffffffffffffff1681525050905085565b619ab7619baa565b73ffffffffffffffffffffffffffffffffffffffff16619ad5614b95565b73ffffffffffffffffffffffffffffffffffffffff1614619b2b576040517f08c379a0000000000000000000000000000000000000000000000000000000008152600401619b229061a61f565b60405180910390fd5b600073ffffffffffffffffffffffffffffffffffffffff168173ffffffffffffffffffffffffffffffffffffffff161415619b9b576040517f08c379a0000000000000000000000000000000000000000000000000000000008152600401619b929061a51f565b60405180910390fd5b619ba481619bb2565b50565b50565b600033905090565b60008060009054906101000a900473ffffffffffffffffffffffffffffffffffffffff169050816000806101000a81548173ffffffffffffffffffffffffffffffffffffffff021916908373ffffffffffffffffffffffffffffffffffffffff1602179055508173ffffffffffffffffffffffffffffffffffffffff168173ffffffffffffffffffffffffffffffffffffffff167f8be0079c531659141344cd1fd0a4f28419497f9722a3daafe3b4186f6b6457e060405160405180910390a35050565b600081359050619c858161a937565b92915050565b600081519050619c9a8161a94e565b92915050565b600081359050619caf8161a965565b92915050565b600081359050619cc48161a975565b92915050565b600060208284031215619cdc57600080fd5b6000619cea84828501619c76565b91505092915050565b600060208284031215619d0557600080fd5b6000619d1384828501619c8b565b91505092915050565b60008060008060008060008060006101208a8c031215619d3b57600080fd5b6000619d498c828d01619ca0565b9950506020619d5a8c828d01619c76565b9850506040619d6b8c828d01619cb5565b9750506060619d7c8c828d01619cb5565b9650506080619d8d8c828d01619ca0565b95505060a0619d9e8c828d01619c76565b94505060c0619daf8c828d01619cb5565b93505060e0619dc08c828d01619cb5565b925050610100619dd28c828d01619cb5565b9150509295985092959850929598565b600060208284031215619df457600080fd5b6000619e0284828501619cb5565b91505092915050565b619e148161a72b565b82525050565b619e238161a72b565b82525050565b619e328161a7d2565b82525050565b619e418161a7e4565b82525050565b619e508161a7f6565b82525050565b619e5f8161a808565b82525050565b619e6e8161a81a565b82525050565b6000619e8160138361a71a565b91507f4173736574206964206e6f74206c6f636b6564000000000000000000000000006000830152602082019050919050565b6000619ec160108361a71a565b91507f4e6f7468696e6720746f20636c61696d000000000000000000000000000000006000830152602082019050919050565b6000619f0160128361a71a565b91507f506c6561736520706179207468652066656500000000000000000000000000006000830152602082019050919050565b6000619f4160268361a71a565b91507f4f776e61626c653a206e6577206f776e657220697320746865207a65726f206160008301527f64647265737300000000000000000000000000000000000000000000000000006020830152604082019050919050565b6000619fa760158361a71a565b91507f41737365742041206973206e6f74206c6f636b656400000000000000000000006000830152602082019050919050565b6000619fe7601a8361a71a565b91507f4173736574204220697320616c726561647920636c61696d65640000000000006000830152602082019050919050565b600061a02760158361a71a565b91507f41737365742042206973206e6f74206c6f636b656400000000000000000000006000830152602082019050919050565b600061a067601d8361a71a565b91507f43616e6e6f742063616e63656c20746865206c6f636b626f78206e6f770000006000830152602082019050919050565b600061a0a760178361a71a565b91507f417373657420697320616c7265616479206c6f636b65640000000000000000006000830152602082019050919050565b600061a0e7601e8361a71a565b91507f4c6f636b426f78206973206e6f742070656e64696e6720616e796d6f726500006000830152602082019050919050565b600061a127600b8361a71a565b91507f4e6f7420616c6c6f7765640000000000000000000000000000000000000000006000830152602082019050919050565b600061a16760208361a71a565b91507f4f776e61626c653a2063616c6c6572206973206e6f7420746865206f776e65726000830152602082019050919050565b600061a1a7601a8361a71a565b91507f4173736574204120697320616c726561647920636c61696d65640000000000006000830152602082019050919050565b600061a1e760198361a71a565b91507f417373657420697320616c726561647920617070726f766564000000000000006000830152602082019050919050565b600061a22760188361a71a565b91507f73686f756c64206265206d6f7265207468616e207a65726f00000000000000006000830152602082019050919050565b600061a267600f8361a71a565b91507f42616c616e6365206973207a65726f00000000000000000000000000000000006000830152602082019050919050565b600061a2a760128361a71a565b91507f6c6f636b626f78206973206578706972656400000000000000000000000000006000830152602082019050919050565b600061a2e7601a8361a71a565b91507f496e73756666696369656e74206c6f636b696e672066756e64730000000000006000830152602082019050919050565b6101208201600082015161a3316000850182619e38565b50602082015161a3446020850182619e0b565b50604082015161a3576040850182619e0b565b50606082015161a36a606085018261a3d1565b50608082015161a37d608085018261a3d1565b5060a082015161a39060a0850182619e56565b5060c082015161a3a360c0850182619e29565b5060e082015161a3b660e0850182619e47565b5061010082015161a3cb610100850182619e0b565b50505050565b61a3da8161a7c8565b82525050565b61a3e98161a7c8565b82525050565b600060208201905061a4046000830184619e1a565b92915050565b600060608201905061a41f6000830186619e1a565b61a42c6020830185619e1a565b61a439604083018461a3e0565b949350505050565b600060408201905061a4566000830185619e1a565b61a463602083018461a3e0565b9392505050565b60006102a08201905061a4806000830188619e1a565b61a48d602083018761a3e0565b61a49a6040830186619e65565b61a4a7606083018561a31a565b61a4b561018083018461a31a565b9695505050505050565b6000602082019050818103600083015261a4d881619e74565b9050919050565b6000602082019050818103600083015261a4f881619eb4565b9050919050565b6000602082019050818103600083015261a51881619ef4565b9050919050565b6000602082019050818103600083015261a53881619f34565b9050919050565b6000602082019050818103600083015261a55881619f9a565b9050919050565b6000602082019050818103600083015261a57881619fda565b9050919050565b6000602082019050818103600083015261a5988161a01a565b9050919050565b6000602082019050818103600083015261a5b88161a05a565b9050919050565b6000602082019050818103600083015261a5d88161a09a565b9050919050565b6000602082019050818103600083015261a5f88161a0da565b9050919050565b6000602082019050818103600083015261a6188161a11a565b9050919050565b6000602082019050818103600083015261a6388161a15a565b9050919050565b6000602082019050818103600083015261a6588161a19a565b9050919050565b6000602082019050818103600083015261a6788161a1da565b9050919050565b6000602082019050818103600083015261a6988161a21a565b9050919050565b6000602082019050818103600083015261a6b88161a25a565b9050919050565b6000602082019050818103600083015261a6d88161a29a565b9050919050565b6000602082019050818103600083015261a6f88161a2da565b9050919050565b600060208201905061a714600083018461a3e0565b92915050565b600082825260208201905092915050565b600061a7368261a7a8565b9050919050565b60008115159050919050565b600081905061a7578261a8d3565b919050565b600081905061a76a8261a8e7565b919050565b600081905061a77d8261a8fb565b919050565b600081905061a7908261a90f565b919050565b600081905061a7a38261a923565b919050565b600073ffffffffffffffffffffffffffffffffffffffff82169050919050565b6000819050919050565b600061a7dd8261a749565b9050919050565b600061a7ef8261a75c565b9050919050565b600061a8018261a76f565b9050919050565b600061a8138261a782565b9050919050565b600061a8258261a795565b9050919050565b600061a8378261a7c8565b91507fffffffffffffffffffffffffffffffffffffffffffffffffffffffffffffffff82141561a86a5761a86961a875565b5b600182019050919050565b7f4e487b7100000000000000000000000000000000000000000000000000000000600052601160045260246000fd5b7f4e487b7100000000000000000000000000000000000000000000000000000000600052602160045260246000fd5b6002811061a8e45761a8e361a8a4565b5b50565b6003811061a8f85761a8f761a8a4565b5b50565b6002811061a90c5761a90b61a8a4565b5b50565b6002811061a9205761a91f61a8a4565b5b50565b6003811061a9345761a93361a8a4565b5b50565b61a9408161a72b565b811461a94b57600080fd5b50565b61a9578161a73d565b811461a96257600080fd5b50565b6003811061a97257600080fd5b50565b61a97e8161a7c8565b811461a98957600080fd5b5056fea264697066735822122065dfd0213ceb275c443955d6471d8293e5623113bd823ad89942b0744a28a67764736f6c63430008000033",
  "linkReferences": {},
  "deployedLinkReferences": {}
}