{
  "_format": "hh-sol-artifact-1",
  "contractName": "LockBox",
  "sourceName": "contracts/LockBox.sol",
  "abi": [
    {
      "inputs": [
        {
          "internalType": "uint256",
          "name": "_id",
          "type": "uint256"
        }
      ],
      "name": "approveAsset",
      "outputs": [],
      "stateMutability": "nonpayable",
      "type": "function"
    },
    {
      "inputs": [],
      "name": "boxFee",
      "outputs": [
        {
          "internalType": "uint256",
          "name": "",
          "type": "uint256"
        }
      ],
      "stateMutability": "view",
      "type": "function"
    },
    {
      "inputs": [
        {
          "internalType": "uint256",
          "name": "_id",
          "type": "uint256"
        }
      ],
      "name": "cancelLockBox",
      "outputs": [],
      "stateMutability": "nonpayable",
      "type": "function"
    },
    {
      "inputs": [
        {
          "internalType": "uint256",
          "name": "_id",
          "type": "uint256"
        }
      ],
      "name": "claimAsset",
      "outputs": [],
      "stateMutability": "nonpayable",
      "type": "function"
    },
    {
      "inputs": [],
      "name": "counter",
      "outputs": [
        {
          "internalType": "uint256",
          "name": "",
          "type": "uint256"
        }
      ],
      "stateMutability": "view",
      "type": "function"
    },
    {
      "inputs": [
        {
          "internalType": "enum LockBox.AssetType",
          "name": "_assetAtype",
          "type": "uint8"
        },
        {
          "internalType": "address",
          "name": "_assetAaddress",
          "type": "address"
        },
        {
          "internalType": "uint256",
          "name": "_assetAID",
          "type": "uint256"
        },
        {
          "internalType": "uint256",
          "name": "_assetAQuantity",
          "type": "uint256"
        },
        {
          "internalType": "enum LockBox.AssetType",
          "name": "_assetBtype",
          "type": "uint8"
        },
        {
          "internalType": "address",
          "name": "_assetBaddress",
          "type": "address"
        },
        {
          "internalType": "uint256",
          "name": "_assetBID",
          "type": "uint256"
        },
        {
          "internalType": "uint256",
          "name": "_assetBQuantity",
          "type": "uint256"
        },
        {
          "internalType": "uint256",
          "name": "_expiryTime",
          "type": "uint256"
        }
      ],
      "name": "createLockBox",
      "outputs": [],
      "stateMutability": "payable",
      "type": "function"
    },
    {
      "inputs": [
        {
          "internalType": "uint256",
          "name": "_id",
          "type": "uint256"
        }
      ],
      "name": "lockAsset",
      "outputs": [],
      "stateMutability": "payable",
      "type": "function"
    },
    {
      "inputs": [
        {
          "internalType": "uint256",
          "name": "",
          "type": "uint256"
        }
      ],
      "name": "lockBoxInfo",
      "outputs": [
        {
          "internalType": "address",
          "name": "lockBoxOwner",
          "type": "address"
        },
        {
          "internalType": "uint256",
          "name": "expiryTime",
          "type": "uint256"
        },
        {
          "internalType": "enum LockBox.Status",
          "name": "status",
          "type": "uint8"
        },
        {
          "components": [
            {
              "internalType": "enum LockBox.AssetType",
              "name": "assetType",
              "type": "uint8"
            },
            {
              "internalType": "address",
              "name": "owner",
              "type": "address"
            },
            {
              "internalType": "address",
              "name": "assetAddress",
              "type": "address"
            },
            {
              "internalType": "uint256",
              "name": "assetID",
              "type": "uint256"
            },
            {
              "internalType": "uint256",
              "name": "assetQuantity",
              "type": "uint256"
            },
            {
              "internalType": "enum LockBox.LockStatus",
              "name": "lockStatus",
              "type": "uint8"
            },
            {
              "internalType": "enum LockBox.ApprovalStatus",
              "name": "approvalStatus",
              "type": "uint8"
            },
            {
              "internalType": "enum LockBox.ClaimStatus",
              "name": "claimStatus",
              "type": "uint8"
            },
            {
              "internalType": "address",
              "name": "claimedBy",
              "type": "address"
            }
          ],
          "internalType": "struct LockBox.Asset",
          "name": "assetA",
          "type": "tuple"
        },
        {
          "components": [
            {
              "internalType": "enum LockBox.AssetType",
              "name": "assetType",
              "type": "uint8"
            },
            {
              "internalType": "address",
              "name": "owner",
              "type": "address"
            },
            {
              "internalType": "address",
              "name": "assetAddress",
              "type": "address"
            },
            {
              "internalType": "uint256",
              "name": "assetID",
              "type": "uint256"
            },
            {
              "internalType": "uint256",
              "name": "assetQuantity",
              "type": "uint256"
            },
            {
              "internalType": "enum LockBox.LockStatus",
              "name": "lockStatus",
              "type": "uint8"
            },
            {
              "internalType": "enum LockBox.ApprovalStatus",
              "name": "approvalStatus",
              "type": "uint8"
            },
            {
              "internalType": "enum LockBox.ClaimStatus",
              "name": "claimStatus",
              "type": "uint8"
            },
            {
              "internalType": "address",
              "name": "claimedBy",
              "type": "address"
            }
          ],
          "internalType": "struct LockBox.Asset",
          "name": "assetB",
          "type": "tuple"
        }
      ],
      "stateMutability": "view",
      "type": "function"
    },
    {
      "inputs": [
        {
          "internalType": "address",
          "name": "",
          "type": "address"
        },
        {
          "internalType": "address",
          "name": "",
          "type": "address"
        },
        {
          "internalType": "uint256",
          "name": "",
          "type": "uint256"
        },
        {
          "internalType": "bytes",
          "name": "",
          "type": "bytes"
        }
      ],
      "name": "onERC721Received",
      "outputs": [
        {
          "internalType": "bytes4",
          "name": "",
          "type": "bytes4"
        }
      ],
      "stateMutability": "nonpayable",
      "type": "function"
    },
    {
      "inputs": [],
      "name": "updateFee",
      "outputs": [
        {
          "internalType": "uint256",
          "name": "",
          "type": "uint256"
        }
      ],
      "stateMutability": "view",
      "type": "function"
    }
  ],
  "bytecode": "0x608060405267016345785d8a000060015564e8d4a5100060025534801561002557600080fd5b5061376d806100356000396000f3fe6080604052600436106100915760003560e01c8063864d7e1411610059578063864d7e141461012d5780638a88cbbe1461014d578063d3c2a59214610160578063d3f29c3314610180578063f1c5797d146101a057610091565b80630a1053fb14610096578063150b7a02146100c15780631629614e146100ee57806361bc221a14610103578063758cdcf014610118575b600080fd5b3480156100a257600080fd5b506100ab6101d1565b6040516100b891906136c8565b60405180910390f35b3480156100cd57600080fd5b506100e16100dc36600461305c565b6101d7565b6040516100b8919061332c565b6101016100fc3660046131d3565b6101e7565b005b34801561010f57600080fd5b506100ab610b4a565b34801561012457600080fd5b506100ab610b50565b34801561013957600080fd5b506101016101483660046131d3565b610b56565b61010161015b36600461314f565b611231565b34801561016c57600080fd5b5061010161017b3660046131d3565b61170c565b34801561018c57600080fd5b5061010161019b3660046131d3565b6127c9565b3480156101ac57600080fd5b506101c06101bb3660046131d3565b612caf565b6040516100b89594939291906132e0565b60015481565b630a85bd0160e11b949350505050565b6000818152600360209081526040808320815160a08101835281546001600160a01b03168152600182015493810193909352600280820154919284019160ff169081111561024557634e487b7160e01b600052602160045260246000fd5b600281111561026457634e487b7160e01b600052602160045260246000fd5b8152604080516101208101909152600383018054602090930192829060ff1660028111156102a257634e487b7160e01b600052602160045260246000fd5b60028111156102c157634e487b7160e01b600052602160045260246000fd5b815281546001600160a01b036101009091048116602083015260018084015490911660408301526002830154606083015260038301546080830152600483015460a09092019160ff169081111561032857634e487b7160e01b600052602160045260246000fd5b600181111561034757634e487b7160e01b600052602160045260246000fd5b81526020016004820160019054906101000a900460ff16600181111561037d57634e487b7160e01b600052602160045260246000fd5b600181111561039c57634e487b7160e01b600052602160045260246000fd5b81526020016004820160029054906101000a900460ff1660018111156103d257634e487b7160e01b600052602160045260246000fd5b60018111156103f157634e487b7160e01b600052602160045260246000fd5b815260049190910154630100000090046001600160a01b03166020918201529082526040805161012081019091526008840180549390920192909190829060ff16600281111561045157634e487b7160e01b600052602160045260246000fd5b600281111561047057634e487b7160e01b600052602160045260246000fd5b815281546001600160a01b036101009091048116602083015260018084015490911660408301526002830154606083015260038301546080830152600483015460a09092019160ff16908111156104d757634e487b7160e01b600052602160045260246000fd5b60018111156104f657634e487b7160e01b600052602160045260246000fd5b81526020016004820160019054906101000a900460ff16600181111561052c57634e487b7160e01b600052602160045260246000fd5b600181111561054b57634e487b7160e01b600052602160045260246000fd5b81526020016004820160029054906101000a900460ff16600181111561058157634e487b7160e01b600052602160045260246000fd5b60018111156105a057634e487b7160e01b600052602160045260246000fd5b815260049190910154630100000090046001600160a01b031660209091015290525090506000816040015160028111156105ea57634e487b7160e01b600052602160045260246000fd5b146106105760405162461bcd60e51b81526004016106079061350b565b60405180910390fd5b806020015142106106335760405162461bcd60e51b815260040161060790613665565b8060600151602001516001600160a01b0316336001600160a01b031614156108c1576000816060015160a00151600181111561067f57634e487b7160e01b600052602160045260246000fd5b1461069c5760405162461bcd60e51b8152600401610607906134d4565b600060608201515160028111156106c357634e487b7160e01b600052602160045260246000fd5b1415610762578060600151604001516001600160a01b03166323b872dd33308460600151606001516040518463ffffffff1660e01b8152600401610709939291906132a3565b600060405180830381600087803b15801561072357600080fd5b505af1158015610737573d6000803e3d6000fd5b505050600083815260036020526040902060070180546001925060ff191682805b02179055506108bc565b6001606082015151600281111561078957634e487b7160e01b600052602160045260246000fd5b141561084357606081015160408082015160809092015190516323b872dd60e01b81526001600160a01b03909216916323b872dd916107ce91339130916004016132a3565b602060405180830381600087803b1580156107e857600080fd5b505af11580156107fc573d6000803e3d6000fd5b505050506040513d601f19601f820116820180604052508101906108209190613128565b50600082815260036020526040902060070180546001919060ff19168280610758565b6002606082015151600281111561086a57634e487b7160e01b600052602160045260246000fd5b14156108bc578060600151608001513410156108985760405162461bcd60e51b815260040161060790613691565b600082815260036020526040902060070180546001919060ff191682805b02179055505b610b46565b60008281526003602052604081206008018054610100600160a81b0319163361010002179055816080015160a00151600181111561090f57634e487b7160e01b600052602160045260246000fd5b1461092c5760405162461bcd60e51b8152600401610607906134d4565b6000608082015151600281111561095357634e487b7160e01b600052602160045260246000fd5b14156109eb57608081015160408082015160609092015190516323b872dd60e01b81526001600160a01b03909216916323b872dd9161099891339130916004016132a3565b600060405180830381600087803b1580156109b257600080fd5b505af11580156109c6573d6000803e3d6000fd5b5050506000838152600360205260409020600c0180546001925060ff191682806108b6565b60016080820151516002811115610a1257634e487b7160e01b600052602160045260246000fd5b1415610acd578060800151604001516001600160a01b03166323b872dd33308460800151608001516040518463ffffffff1660e01b8152600401610a58939291906132a3565b602060405180830381600087803b158015610a7257600080fd5b505af1158015610a86573d6000803e3d6000fd5b505050506040513d601f19601f82011682018060405250810190610aaa9190613128565b506000828152600360205260409020600c0180546001919060ff191682806108b6565b60026080820151516002811115610af457634e487b7160e01b600052602160045260246000fd5b1415610b4657806080015160800151341015610b225760405162461bcd60e51b815260040161060790613691565b6000828152600360205260409020600c0180546001919060ff191682805b02179055505b5050565b60005481565b60025481565b6000818152600360209081526040808320815160a08101835281546001600160a01b03168152600182015493810193909352600280820154919284019160ff1690811115610bb457634e487b7160e01b600052602160045260246000fd5b6002811115610bd357634e487b7160e01b600052602160045260246000fd5b8152604080516101208101909152600383018054602090930192829060ff166002811115610c1157634e487b7160e01b600052602160045260246000fd5b6002811115610c3057634e487b7160e01b600052602160045260246000fd5b815281546001600160a01b036101009091048116602083015260018084015490911660408301526002830154606083015260038301546080830152600483015460a09092019160ff1690811115610c9757634e487b7160e01b600052602160045260246000fd5b6001811115610cb657634e487b7160e01b600052602160045260246000fd5b81526020016004820160019054906101000a900460ff166001811115610cec57634e487b7160e01b600052602160045260246000fd5b6001811115610d0b57634e487b7160e01b600052602160045260246000fd5b81526020016004820160029054906101000a900460ff166001811115610d4157634e487b7160e01b600052602160045260246000fd5b6001811115610d6057634e487b7160e01b600052602160045260246000fd5b815260049190910154630100000090046001600160a01b03166020918201529082526040805161012081019091526008840180549390920192909190829060ff166002811115610dc057634e487b7160e01b600052602160045260246000fd5b6002811115610ddf57634e487b7160e01b600052602160045260246000fd5b815281546001600160a01b036101009091048116602083015260018084015490911660408301526002830154606083015260038301546080830152600483015460a09092019160ff1690811115610e4657634e487b7160e01b600052602160045260246000fd5b6001811115610e6557634e487b7160e01b600052602160045260246000fd5b81526020016004820160019054906101000a900460ff166001811115610e9b57634e487b7160e01b600052602160045260246000fd5b6001811115610eba57634e487b7160e01b600052602160045260246000fd5b81526020016004820160029054906101000a900460ff166001811115610ef057634e487b7160e01b600052602160045260246000fd5b6001811115610f0f57634e487b7160e01b600052602160045260246000fd5b815260049190910154630100000090046001600160a01b03166020909101529052509050600081604001516002811115610f5957634e487b7160e01b600052602160045260246000fd5b14610f765760405162461bcd60e51b81526004016106079061350b565b80602001514210610f995760405162461bcd60e51b8152600401610607906135d5565b8060600151602001516001600160a01b0316336001600160a01b03161480610fda57508060800151602001516001600160a01b0316336001600160a01b0316145b610ff65760405162461bcd60e51b815260040161060790613542565b8060600151602001516001600160a01b0316336001600160a01b03161415611111576001816060015160a00151600181111561104257634e487b7160e01b600052602160045260246000fd5b1461105f5760405162461bcd60e51b815260040161060790613341565b6000816060015160c00151600181111561108957634e487b7160e01b600052602160045260246000fd5b146110a65760405162461bcd60e51b81526004016106079061359e565b6000828152600360205260409020600701805461ff001916610100179055608081015160c00151600190818111156110ee57634e487b7160e01b600052602160045260246000fd5b1415611111576000828152600360205260409020600201805460ff191660011790555b8060800151602001516001600160a01b0316336001600160a01b03161415610b46576001816080015160a00151600181111561115d57634e487b7160e01b600052602160045260246000fd5b1461117a5760405162461bcd60e51b815260040161060790613341565b6000816080015160c0015160018111156111a457634e487b7160e01b600052602160045260246000fd5b146111c15760405162461bcd60e51b81526004016106079061359e565b6000828152600360205260409020600c01805461ff001916610100179055606081015160c001516001908181111561120957634e487b7160e01b600052602160045260246000fd5b1415610b4657600082815260036020526040902060020180546001919060ff19168280610b40565b6001543410156112535760405162461bcd60e51b81526004016106079061336e565b600080549080611262836136d1565b919050555060006040518061012001604052808b600281111561129557634e487b7160e01b600052602160045260246000fd5b81523360208201526001600160a01b038b166040820152606081018a90526080810189905260a00160008152602001600081526020016000815260200160006001600160a01b03168152509050600060405180610120016040528088600281111561131057634e487b7160e01b600052602160045260246000fd5b815260200160006001600160a01b03168152602001876001600160a01b031681526020018681526020018581526020016000600181111561136157634e487b7160e01b600052602160045260246000fd5b81526000602080830182905260408084018390526060938401839052805160a081018252338152808301898152818301858152958201899052608082018790528454855260039093529220825181546001600160a01b0319166001600160a01b039091161781559051600180830191909155925160028083018054969750939586959394929360ff1990911691849081111561140d57634e487b7160e01b600052602160045260246000fd5b021790555060608201518051600383018054909190829060ff1916600183600281111561144a57634e487b7160e01b600052602160045260246000fd5b021790555060208201518154610100600160a81b0319166101006001600160a01b03928316021782556040830151600180840180546001600160a01b0319169290931691909117909155606083015160028301556080830151600383015560a08301516004830180549192909160ff19169083818111156114db57634e487b7160e01b600052602160045260246000fd5b021790555060c082015160048201805461ff00191661010083600181111561151357634e487b7160e01b600052602160045260246000fd5b021790555060e082015160048201805462ff000019166201000083600181111561154d57634e487b7160e01b600052602160045260246000fd5b02179055506101009190910151600490910180546001600160a01b039092166301000000026301000000600160b81b031990921691909117905560808201518051600883018054909190829060ff191660018360028111156115bf57634e487b7160e01b600052602160045260246000fd5b021790555060208201518154610100600160a81b0319166101006001600160a01b03928316021782556040830151600180840180546001600160a01b0319169290931691909117909155606083015160028301556080830151600383015560a08301516004830180549192909160ff191690838181111561165057634e487b7160e01b600052602160045260246000fd5b021790555060c082015160048201805461ff00191661010083600181111561168857634e487b7160e01b600052602160045260246000fd5b021790555060e082015160048201805462ff00001916620100008360018111156116c257634e487b7160e01b600052602160045260246000fd5b02179055506101009190910151600490910180546001600160a01b039092166301000000026301000000600160b81b03199092169190911790555050505050505050505050505050565b6000818152600360209081526040808320815160a08101835281546001600160a01b03168152600182015493810193909352600280820154919284019160ff169081111561176a57634e487b7160e01b600052602160045260246000fd5b600281111561178957634e487b7160e01b600052602160045260246000fd5b8152604080516101208101909152600383018054602090930192829060ff1660028111156117c757634e487b7160e01b600052602160045260246000fd5b60028111156117e657634e487b7160e01b600052602160045260246000fd5b815281546001600160a01b036101009091048116602083015260018084015490911660408301526002830154606083015260038301546080830152600483015460a09092019160ff169081111561184d57634e487b7160e01b600052602160045260246000fd5b600181111561186c57634e487b7160e01b600052602160045260246000fd5b81526020016004820160019054906101000a900460ff1660018111156118a257634e487b7160e01b600052602160045260246000fd5b60018111156118c157634e487b7160e01b600052602160045260246000fd5b81526020016004820160029054906101000a900460ff1660018111156118f757634e487b7160e01b600052602160045260246000fd5b600181111561191657634e487b7160e01b600052602160045260246000fd5b815260049190910154630100000090046001600160a01b03166020918201529082526040805161012081019091526008840180549390920192909190829060ff16600281111561197657634e487b7160e01b600052602160045260246000fd5b600281111561199557634e487b7160e01b600052602160045260246000fd5b815281546001600160a01b036101009091048116602083015260018084015490911660408301526002830154606083015260038301546080830152600483015460a09092019160ff16908111156119fc57634e487b7160e01b600052602160045260246000fd5b6001811115611a1b57634e487b7160e01b600052602160045260246000fd5b81526020016004820160019054906101000a900460ff166001811115611a5157634e487b7160e01b600052602160045260246000fd5b6001811115611a7057634e487b7160e01b600052602160045260246000fd5b81526020016004820160029054906101000a900460ff166001811115611aa657634e487b7160e01b600052602160045260246000fd5b6001811115611ac557634e487b7160e01b600052602160045260246000fd5b815260049190910154630100000090046001600160a01b03166020909101529052509050600281604001516002811115611b0f57634e487b7160e01b600052602160045260246000fd5b1415611b2d5760405162461bcd60e51b815260040161060790613601565b8060600151602001516001600160a01b0316336001600160a01b03161480611b6e57508060800151602001516001600160a01b0316336001600160a01b0316145b611b8a5760405162461bcd60e51b815260040161060790613542565b8060600151602001516001600160a01b0316336001600160a01b031614156121cd57600181604001516002811115611bd257634e487b7160e01b600052602160045260246000fd5b1415611ec3576000816080015160e001516001811115611c0257634e487b7160e01b600052602160045260246000fd5b14611c1f5760405162461bcd60e51b815260040161060790613400565b6001816080015160a001516001811115611c4957634e487b7160e01b600052602160045260246000fd5b14611c665760405162461bcd60e51b81526004016106079061346e565b6001816080015160c001516001811115611c9057634e487b7160e01b600052602160045260246000fd5b14611cad5760405162461bcd60e51b81526004016106079061362e565b6000828152600360205260408120600c0180546301000000600160b81b031916336301000000021762ff00001916620100001790556080820151516002811115611d0757634e487b7160e01b600052602160045260246000fd5b1415611d8357608081015160408082015160609092015190516323b872dd60e01b81526001600160a01b03909216916323b872dd91611d4c91309133916004016132a3565b600060405180830381600087803b158015611d6657600080fd5b505af1158015611d7a573d6000803e3d6000fd5b50505050611ebe565b60016080820151516002811115611daa57634e487b7160e01b600052602160045260246000fd5b1415611e46578060800151604001516001600160a01b031663a9059cbb338360800151608001516040518363ffffffff1660e01b8152600401611dee9291906132c7565b602060405180830381600087803b158015611e0857600080fd5b505af1158015611e1c573d6000803e3d6000fd5b505050506040513d601f19601f82011682018060405250810190611e409190613128565b50611ebe565b60026080820151516002811115611e6d57634e487b7160e01b600052602160045260246000fd5b1415611ebe578060600151602001516001600160a01b03166108fc8260800151608001519081150290604051600060405180830381858888f19350505050158015611ebc573d6000803e3d6000fd5b505b6121cd565b600281604001516002811115611ee957634e487b7160e01b600052602160045260246000fd5b14156121cd576000816060015160e001516001811115611f1957634e487b7160e01b600052602160045260246000fd5b14611f365760405162461bcd60e51b815260040161060790613567565b6001816060015160a001516001811115611f6057634e487b7160e01b600052602160045260246000fd5b14611f7d5760405162461bcd60e51b8152600401610607906133d1565b6001816060015160c001516001811115611fa757634e487b7160e01b600052602160045260246000fd5b14611fc45760405162461bcd60e51b815260040161060790613437565b600082815260036020526040812060070180546301000000600160b81b031916336301000000021762ff0000191662010000179055606082015151600281111561201e57634e487b7160e01b600052602160045260246000fd5b141561209b578060600151604001516001600160a01b03166323b872dd30338460600151606001516040518463ffffffff1660e01b8152600401612064939291906132a3565b600060405180830381600087803b15801561207e57600080fd5b505af1158015612092573d6000803e3d6000fd5b505050506121cd565b600160608201515160028111156120c257634e487b7160e01b600052602160045260246000fd5b1415612158578060600151604001516001600160a01b031663a9059cbb338360600151608001516040518363ffffffff1660e01b81526004016121069291906132c7565b602060405180830381600087803b15801561212057600080fd5b505af1158015612134573d6000803e3d6000fd5b505050506040513d601f19601f82011682018060405250810190611ebc9190613128565b6002606082015151600281111561217f57634e487b7160e01b600052602160045260246000fd5b14156121cd57606081015160208101516080909101516040516001600160a01b039092169181156108fc0291906000818181858888f193505050501580156121cb573d6000803e3d6000fd5b505b8060800151602001516001600160a01b0316336001600160a01b03161415610b465760018160400151600281111561221557634e487b7160e01b600052602160045260246000fd5b1415612506576000816060015160e00151600181111561224557634e487b7160e01b600052602160045260246000fd5b146122625760405162461bcd60e51b815260040161060790613567565b6001816060015160a00151600181111561228c57634e487b7160e01b600052602160045260246000fd5b146122a95760405162461bcd60e51b8152600401610607906133d1565b6001816060015160c0015160018111156122d357634e487b7160e01b600052602160045260246000fd5b146122f05760405162461bcd60e51b815260040161060790613437565b600082815260036020526040812060070180546301000000600160b81b031916336301000000021762ff0000191662010000179055606082015151600281111561234a57634e487b7160e01b600052602160045260246000fd5b14156123c7578060600151604001516001600160a01b03166323b872dd30338460600151606001516040518463ffffffff1660e01b8152600401612390939291906132a3565b600060405180830381600087803b1580156123aa57600080fd5b505af11580156123be573d6000803e3d6000fd5b505050506108bc565b600160608201515160028111156123ee57634e487b7160e01b600052602160045260246000fd5b141561248a578060600151604001516001600160a01b031663a9059cbb338360600151608001516040518363ffffffff1660e01b81526004016124329291906132c7565b602060405180830381600087803b15801561244c57600080fd5b505af1158015612460573d6000803e3d6000fd5b505050506040513d601f19601f820116820180604052508101906124849190613128565b506108bc565b600260608201515160028111156124b157634e487b7160e01b600052602160045260246000fd5b14156108bc578060800151602001516001600160a01b03166108fc8260600151608001519081150290604051600060405180830381858888f19350505050158015612500573d6000803e3d6000fd5b50610b46565b60028160400151600281111561252c57634e487b7160e01b600052602160045260246000fd5b1415610b46576000816080015160e00151600181111561255c57634e487b7160e01b600052602160045260246000fd5b146125795760405162461bcd60e51b815260040161060790613400565b6001816080015160a0015160018111156125a357634e487b7160e01b600052602160045260246000fd5b146125c05760405162461bcd60e51b81526004016106079061346e565b6000828152600360205260408120600c01805462ff0000191662010000176301000000600160b81b03191633630100000002179055608082015151600281111561261a57634e487b7160e01b600052602160045260246000fd5b141561269657608081015160408082015160609092015190516323b872dd60e01b81526001600160a01b03909216916323b872dd9161265f91309133916004016132a3565b600060405180830381600087803b15801561267957600080fd5b505af115801561268d573d6000803e3d6000fd5b50505050610b46565b600160808201515160028111156126bd57634e487b7160e01b600052602160045260246000fd5b1415612753578060800151604001516001600160a01b031663a9059cbb338360800151608001516040518363ffffffff1660e01b81526004016127019291906132c7565b602060405180830381600087803b15801561271b57600080fd5b505af115801561272f573d6000803e3d6000fd5b505050506040513d601f19601f820116820180604052508101906125009190613128565b6002608082015151600281111561277a57634e487b7160e01b600052602160045260246000fd5b1415610b465760808082015160208101519101516040516001600160a01b039092169181156108fc0291906000818181858888f193505050501580156127c4573d6000803e3d6000fd5b505050565b6000818152600360209081526040808320815160a08101835281546001600160a01b03168152600182015493810193909352600280820154919284019160ff169081111561282757634e487b7160e01b600052602160045260246000fd5b600281111561284657634e487b7160e01b600052602160045260246000fd5b8152604080516101208101909152600383018054602090930192829060ff16600281111561288457634e487b7160e01b600052602160045260246000fd5b60028111156128a357634e487b7160e01b600052602160045260246000fd5b815281546001600160a01b036101009091048116602083015260018084015490911660408301526002830154606083015260038301546080830152600483015460a09092019160ff169081111561290a57634e487b7160e01b600052602160045260246000fd5b600181111561292957634e487b7160e01b600052602160045260246000fd5b81526020016004820160019054906101000a900460ff16600181111561295f57634e487b7160e01b600052602160045260246000fd5b600181111561297e57634e487b7160e01b600052602160045260246000fd5b81526020016004820160029054906101000a900460ff1660018111156129b457634e487b7160e01b600052602160045260246000fd5b60018111156129d357634e487b7160e01b600052602160045260246000fd5b815260049190910154630100000090046001600160a01b03166020918201529082526040805161012081019091526008840180549390920192909190829060ff166002811115612a3357634e487b7160e01b600052602160045260246000fd5b6002811115612a5257634e487b7160e01b600052602160045260246000fd5b815281546001600160a01b036101009091048116602083015260018084015490911660408301526002830154606083015260038301546080830152600483015460a09092019160ff1690811115612ab957634e487b7160e01b600052602160045260246000fd5b6001811115612ad857634e487b7160e01b600052602160045260246000fd5b81526020016004820160019054906101000a900460ff166001811115612b0e57634e487b7160e01b600052602160045260246000fd5b6001811115612b2d57634e487b7160e01b600052602160045260246000fd5b81526020016004820160029054906101000a900460ff166001811115612b6357634e487b7160e01b600052602160045260246000fd5b6001811115612b8257634e487b7160e01b600052602160045260246000fd5b8152600491909101546001600160a01b0363010000009091048116602090920191909152915282519293509190911633149050612bd15760405162461bcd60e51b815260040161060790613542565b600081604001516002811115612bf757634e487b7160e01b600052602160045260246000fd5b14612c145760405162461bcd60e51b81526004016106079061339a565b6000816060015160c001516001811115612c3e57634e487b7160e01b600052602160045260246000fd5b148015612c7257506000816080015160c001516001811115612c7057634e487b7160e01b600052602160045260246000fd5b145b612c8e5760405162461bcd60e51b81526004016106079061349d565b60008281526003602052604090206002908101805460ff1916600183610b40565b600360208190526000918252604091829020805460018201546002808401548651610120810190975294840180546001600160a01b0390941696929560ff90811695949192849290911690811115612d1757634e487b7160e01b600052602160045260246000fd5b6002811115612d3657634e487b7160e01b600052602160045260246000fd5b815281546001600160a01b036101009091048116602083015260018084015490911660408301526002830154606083015260038301546080830152600483015460a09092019160ff1690811115612d9d57634e487b7160e01b600052602160045260246000fd5b6001811115612dbc57634e487b7160e01b600052602160045260246000fd5b81526020016004820160019054906101000a900460ff166001811115612df257634e487b7160e01b600052602160045260246000fd5b6001811115612e1157634e487b7160e01b600052602160045260246000fd5b81526020016004820160029054906101000a900460ff166001811115612e4757634e487b7160e01b600052602160045260246000fd5b6001811115612e6657634e487b7160e01b600052602160045260246000fd5b815260049190910154630100000090046001600160a01b0316602090910152604080516101208101909152600883018054929392829060ff166002811115612ebe57634e487b7160e01b600052602160045260246000fd5b6002811115612edd57634e487b7160e01b600052602160045260246000fd5b815281546001600160a01b036101009091048116602083015260018084015490911660408301526002830154606083015260038301546080830152600483015460a09092019160ff1690811115612f4457634e487b7160e01b600052602160045260246000fd5b6001811115612f6357634e487b7160e01b600052602160045260246000fd5b81526020016004820160019054906101000a900460ff166001811115612f9957634e487b7160e01b600052602160045260246000fd5b6001811115612fb857634e487b7160e01b600052602160045260246000fd5b81526020016004820160029054906101000a900460ff166001811115612fee57634e487b7160e01b600052602160045260246000fd5b600181111561300d57634e487b7160e01b600052602160045260246000fd5b815260049190910154630100000090046001600160a01b0316602090910152905085565b80356001600160a01b038116811461304857600080fd5b919050565b80356003811061304857600080fd5b60008060008060808587031215613071578384fd5b61307a85613031565b93506020613089818701613031565b935060408601359250606086013567ffffffffffffffff808211156130ac578384fd5b818801915088601f8301126130bf578384fd5b8135818111156130d1576130d161370e565b604051601f8201601f19168101850183811182821017156130f4576130f461370e565b60405281815283820185018b101561310a578586fd5b81858501868301379081019093019390935250939692955090935050565b600060208284031215613139578081fd5b81518015158114613148578182fd5b9392505050565b60008060008060008060008060006101208a8c03121561316d578485fd5b6131768a61304d565b985061318460208b01613031565b975060408a0135965060608a013595506131a060808b0161304d565b94506131ae60a08b01613031565b935060c08a0135925060e08a013591506101008a013590509295985092959850929598565b6000602082840312156131e4578081fd5b5035919050565b6001600160a01b03169052565b60028110613208576132086136f8565b9052565b805161321781613724565b80835250602081015160018060a01b0380821660208501528060408401511660408501525050606081015160608301526080810151608083015260a081015161326360a08401826131f8565b5060c081015161327660c08401826131f8565b5060e081015161328960e08401826131f8565b506101008082015161329d828501826131eb565b50505050565b6001600160a01b039384168152919092166020820152604081019190915260600190565b6001600160a01b03929092168252602082015260400190565b6001600160a01b0386168152602081018590526102a0810161330185613724565b846040830152613314606083018561320c565b61332261018083018461320c565b9695505050505050565b6001600160e01b031991909116815260200190565b602080825260139082015272105cdcd95d081a59081b9bdd081b1bd8dad959606a1b604082015260600190565b602080825260129082015271506c6561736520706179207468652066656560701b604082015260600190565b6020808252601e908201527f4c6f636b626f78206973206e6f742070656e64696e6720616e796d6f72650000604082015260600190565b602080825260159082015274105cdcd95d0810481a5cc81b9bdd081b1bd8dad959605a1b604082015260600190565b6020808252601a908201527f4173736574204220697320616c726561647920636c61696d6564000000000000604082015260600190565b60208082526017908201527f41737365742041206973206e6f7420617070726f766564000000000000000000604082015260600190565b602080825260159082015274105cdcd95d0810881a5cc81b9bdd081b1bd8dad959605a1b604082015260600190565b6020808252601d908201527f43616e6e6f742063616e63656c20746865206c6f636b626f78206e6f77000000604082015260600190565b60208082526017908201527f417373657420697320616c7265616479206c6f636b6564000000000000000000604082015260600190565b6020808252601e908201527f4c6f636b426f78206973206e6f742070656e64696e6720616e796d6f72650000604082015260600190565b6020808252600b908201526a139bdd08185b1b1bddd95960aa1b604082015260600190565b6020808252601a908201527f4173736574204120697320616c726561647920636c61696d6564000000000000604082015260600190565b60208082526019908201527f417373657420697320616c726561647920617070726f76656400000000000000604082015260600190565b602080825260129082015271131bd8dad89bde081a5cc8195e1c1a5c995960721b604082015260600190565b602080825260139082015272131bd8dad09bde081a5cc818d85b98d95b1959606a1b604082015260600190565b60208082526017908201527f41737365742042206973206e6f7420617070726f766564000000000000000000604082015260600190565b6020808252601290820152711b1bd8dad89bde081a5cc8195e1c1a5c995960721b604082015260600190565b6020808252601a908201527f496e73756666696369656e74206c6f636b696e672066756e6473000000000000604082015260600190565b90815260200190565b60006000198214156136f157634e487b7160e01b81526011600452602481fd5b5060010190565b634e487b7160e01b600052602160045260246000fd5b634e487b7160e01b600052604160045260246000fd5b60038110613734576137346136f8565b5056fea2646970667358221220f9fcb3142d8c8119ca4f0eb8005d0be3a1b8c58dcf59a419afa15bfa1d6058b464736f6c63430008000033",
  "linkReferences": {},
  "deployedLinkReferences": {}
}